{
	"contracts/Vote.sol": {
		"Voting": {
			"abi": [
				{
					"inputs": [],
					"stateMutability": "nonpayable",
					"type": "constructor"
				},
				{
					"anonymous": false,
					"inputs": [
						{
							"indexed": false,
							"internalType": "string",
							"name": "name",
							"type": "string"
						},
						{
							"indexed": true,
							"internalType": "address",
							"name": "candidate",
							"type": "address"
						},
						{
							"indexed": false,
							"internalType": "string",
							"name": "partyName",
							"type": "string"
						}
					],
					"name": "CandidateRegistered",
					"type": "event"
				},
				{
					"anonymous": false,
					"inputs": [
						{
							"indexed": true,
							"internalType": "address",
							"name": "voter",
							"type": "address"
						},
						{
							"indexed": true,
							"internalType": "address",
							"name": "candidate",
							"type": "address"
						}
					],
					"name": "VoteCasted",
					"type": "event"
				},
				{
					"anonymous": false,
					"inputs": [
						{
							"indexed": true,
							"internalType": "address",
							"name": "voter",
							"type": "address"
						},
						{
							"indexed": false,
							"internalType": "string",
							"name": "name",
							"type": "string"
						},
						{
							"indexed": false,
							"internalType": "string",
							"name": "nationalId",
							"type": "string"
						},
						{
							"indexed": false,
							"internalType": "uint256",
							"name": "age",
							"type": "uint256"
						}
					],
					"name": "VoterRegistered",
					"type": "event"
				},
				{
					"anonymous": false,
					"inputs": [
						{
							"indexed": false,
							"internalType": "address",
							"name": "winner",
							"type": "address"
						},
						{
							"indexed": false,
							"internalType": "uint256",
							"name": "maxVotes",
							"type": "uint256"
						},
						{
							"indexed": false,
							"internalType": "bool",
							"name": "isTie",
							"type": "bool"
						}
					],
					"name": "VotingEnded",
					"type": "event"
				},
				{
					"anonymous": false,
					"inputs": [],
					"name": "VotingStarted",
					"type": "event"
				},
				{
					"inputs": [],
					"name": "admin",
					"outputs": [
						{
							"internalType": "address",
							"name": "",
							"type": "address"
						}
					],
					"stateMutability": "view",
					"type": "function"
				},
				{
					"inputs": [
						{
							"internalType": "address",
							"name": "",
							"type": "address"
						}
					],
					"name": "candidates",
					"outputs": [
						{
							"internalType": "string",
							"name": "name",
							"type": "string"
						},
						{
							"internalType": "address",
							"name": "candidateAddress",
							"type": "address"
						},
						{
							"internalType": "uint256",
							"name": "voteCount",
							"type": "uint256"
						},
						{
							"internalType": "string",
							"name": "partyName",
							"type": "string"
						}
					],
					"stateMutability": "view",
					"type": "function"
				},
				{
					"inputs": [
						{
							"internalType": "uint256",
							"name": "",
							"type": "uint256"
						}
					],
					"name": "candidatesList",
					"outputs": [
						{
							"internalType": "address",
							"name": "",
							"type": "address"
						}
					],
					"stateMutability": "view",
					"type": "function"
				},
				{
					"inputs": [],
					"name": "currentMaxVotes",
					"outputs": [
						{
							"internalType": "uint256",
							"name": "",
							"type": "uint256"
						}
					],
					"stateMutability": "view",
					"type": "function"
				},
				{
					"inputs": [],
					"name": "currentWinner",
					"outputs": [
						{
							"internalType": "address",
							"name": "",
							"type": "address"
						}
					],
					"stateMutability": "view",
					"type": "function"
				},
				{
					"inputs": [],
					"name": "endVoting",
					"outputs": [],
					"stateMutability": "nonpayable",
					"type": "function"
				},
				{
					"inputs": [],
					"name": "getAllCandidates",
					"outputs": [
						{
							"components": [
								{
									"internalType": "string",
									"name": "name",
									"type": "string"
								},
								{
									"internalType": "address",
									"name": "candidateAddress",
									"type": "address"
								},
								{
									"internalType": "uint256",
									"name": "voteCount",
									"type": "uint256"
								},
								{
									"internalType": "string",
									"name": "partyName",
									"type": "string"
								}
							],
							"internalType": "struct Voting.Candidate[]",
							"name": "",
							"type": "tuple[]"
						}
					],
					"stateMutability": "view",
					"type": "function"
				},
				{
					"inputs": [],
					"name": "getElectionResults",
					"outputs": [
						{
							"internalType": "address",
							"name": "winner",
							"type": "address"
						},
						{
							"internalType": "uint256",
							"name": "maxVotes",
							"type": "uint256"
						},
						{
							"internalType": "bool",
							"name": "isTie",
							"type": "bool"
						}
					],
					"stateMutability": "view",
					"type": "function"
				},
				{
					"inputs": [],
					"name": "getTiedCandidates",
					"outputs": [
						{
							"components": [
								{
									"internalType": "string",
									"name": "name",
									"type": "string"
								},
								{
									"internalType": "address",
									"name": "candidateAddress",
									"type": "address"
								},
								{
									"internalType": "uint256",
									"name": "voteCount",
									"type": "uint256"
								},
								{
									"internalType": "string",
									"name": "partyName",
									"type": "string"
								}
							],
							"internalType": "struct Voting.Candidate[]",
							"name": "",
							"type": "tuple[]"
						}
					],
					"stateMutability": "view",
					"type": "function"
				},
				{
					"inputs": [
						{
							"internalType": "address",
							"name": "_candidateAddress",
							"type": "address"
						},
						{
							"internalType": "string",
							"name": "_name",
							"type": "string"
						},
						{
							"internalType": "string",
							"name": "_partyName",
							"type": "string"
						}
					],
					"name": "registerCandidate",
					"outputs": [],
					"stateMutability": "nonpayable",
					"type": "function"
				},
				{
					"inputs": [
						{
							"internalType": "address",
							"name": "_voterAddress",
							"type": "address"
						},
						{
							"internalType": "string",
							"name": "_name",
							"type": "string"
						},
						{
							"internalType": "string",
							"name": "_nationalId",
							"type": "string"
						},
						{
							"internalType": "uint256",
							"name": "_age",
							"type": "uint256"
						}
					],
					"name": "registerVoter",
					"outputs": [],
					"stateMutability": "nonpayable",
					"type": "function"
				},
				{
					"inputs": [],
					"name": "startVoting",
					"outputs": [],
					"stateMutability": "nonpayable",
					"type": "function"
				},
				{
					"inputs": [
						{
							"internalType": "uint256",
							"name": "",
							"type": "uint256"
						}
					],
					"name": "tiedCandidates",
					"outputs": [
						{
							"internalType": "address",
							"name": "",
							"type": "address"
						}
					],
					"stateMutability": "view",
					"type": "function"
				},
				{
					"inputs": [
						{
							"internalType": "address",
							"name": "_voterAddress",
							"type": "address"
						},
						{
							"internalType": "string",
							"name": "_nationalId",
							"type": "string"
						}
					],
					"name": "verifyVoter",
					"outputs": [
						{
							"internalType": "bool",
							"name": "",
							"type": "bool"
						}
					],
					"stateMutability": "view",
					"type": "function"
				},
				{
					"inputs": [
						{
							"internalType": "address",
							"name": "_candidateAddress",
							"type": "address"
						}
					],
					"name": "vote",
					"outputs": [],
					"stateMutability": "nonpayable",
					"type": "function"
				},
				{
					"inputs": [
						{
							"internalType": "address",
							"name": "",
							"type": "address"
						}
					],
					"name": "voters",
					"outputs": [
						{
							"internalType": "bool",
							"name": "isRegistered",
							"type": "bool"
						},
						{
							"internalType": "bool",
							"name": "hasVoted",
							"type": "bool"
						},
						{
							"internalType": "address",
							"name": "votedFor",
							"type": "address"
						},
						{
							"internalType": "string",
							"name": "name",
							"type": "string"
						},
						{
							"internalType": "string",
							"name": "nationalId",
							"type": "string"
						},
						{
							"internalType": "uint256",
							"name": "age",
							"type": "uint256"
						},
						{
							"internalType": "address",
							"name": "voterAddress",
							"type": "address"
						}
					],
					"stateMutability": "view",
					"type": "function"
				},
				{
					"inputs": [],
					"name": "votingEnded",
					"outputs": [
						{
							"internalType": "bool",
							"name": "",
							"type": "bool"
						}
					],
					"stateMutability": "view",
					"type": "function"
				},
				{
					"inputs": [],
					"name": "votingStarted",
					"outputs": [
						{
							"internalType": "bool",
							"name": "",
							"type": "bool"
						}
					],
					"stateMutability": "view",
					"type": "function"
				}
			],
			"devdoc": {
				"kind": "dev",
				"methods": {},
				"version": 1
			},
			"evm": {
				"assembly": "    /* \"contracts/Vote.sol\":60:5820  contract Voting {... */\n  mstore(0x40, 0x80)\n    /* \"contracts/Vote.sol\":1377:1428  constructor() {... */\n  callvalue\n  dup1\n  iszero\n  tag_1\n  jumpi\n  0x00\n  dup1\n  revert\ntag_1:\n  pop\n    /* \"contracts/Vote.sol\":1410:1420  msg.sender */\n  caller\n    /* \"contracts/Vote.sol\":1402:1407  admin */\n  0x00\n  dup1\n    /* \"contracts/Vote.sol\":1402:1420  admin = msg.sender */\n  0x0100\n  exp\n  dup2\n  sload\n  dup2\n  0xffffffffffffffffffffffffffffffffffffffff\n  mul\n  not\n  and\n  swap1\n  dup4\n  0xffffffffffffffffffffffffffffffffffffffff\n  and\n  mul\n  or\n  swap1\n  sstore\n  pop\n    /* \"contracts/Vote.sol\":60:5820  contract Voting {... */\n  dataSize(sub_0)\n  dup1\n  dataOffset(sub_0)\n  0x00\n  codecopy\n  0x00\n  return\nstop\n\nsub_0: assembly {\n        /* \"contracts/Vote.sol\":60:5820  contract Voting {... */\n      mstore(0x40, 0x80)\n      callvalue\n      dup1\n      iszero\n      tag_1\n      jumpi\n      0x00\n      dup1\n      revert\n    tag_1:\n      pop\n      jumpi(tag_2, lt(calldatasize, 0x04))\n      shr(0xe0, calldataload(0x00))\n      dup1\n      0x9d5a0529\n      gt\n      tag_21\n      jumpi\n      dup1\n      0xd8e06ca9\n      gt\n      tag_22\n      jumpi\n      dup1\n      0xd8e06ca9\n      eq\n      tag_16\n      jumpi\n      dup1\n      0xdf2d5ec7\n      eq\n      tag_17\n      jumpi\n      dup1\n      0xeccf1f10\n      eq\n      tag_18\n      jumpi\n      dup1\n      0xf7a3b396\n      eq\n      tag_19\n      jumpi\n      dup1\n      0xf851a440\n      eq\n      tag_20\n      jumpi\n      jump(tag_2)\n    tag_22:\n      dup1\n      0x9d5a0529\n      eq\n      tag_12\n      jumpi\n      dup1\n      0xa3ec138d\n      eq\n      tag_13\n      jumpi\n      dup1\n      0xaabe2fe3\n      eq\n      tag_14\n      jumpi\n      dup1\n      0xc3403ddf\n      eq\n      tag_15\n      jumpi\n      jump(tag_2)\n    tag_21:\n      dup1\n      0x378b4864\n      gt\n      tag_23\n      jumpi\n      dup1\n      0x378b4864\n      eq\n      tag_7\n      jumpi\n      dup1\n      0x40b68257\n      eq\n      tag_8\n      jumpi\n      dup1\n      0x6dd7d8ea\n      eq\n      tag_9\n      jumpi\n      dup1\n      0x83d948b7\n      eq\n      tag_10\n      jumpi\n      dup1\n      0x8ab66a90\n      eq\n      tag_11\n      jumpi\n      jump(tag_2)\n    tag_23:\n      dup1\n      0x1ec6b60a\n      eq\n      tag_3\n      jumpi\n      dup1\n      0x2e6997fe\n      eq\n      tag_4\n      jumpi\n      dup1\n      0x30eb771a\n      eq\n      tag_5\n      jumpi\n      dup1\n      0x326ebef3\n      eq\n      tag_6\n      jumpi\n    tag_2:\n      0x00\n      dup1\n      revert\n        /* \"contracts/Vote.sol\":2733:2957  function startVoting() external onlyAdmin {... */\n    tag_3:\n      tag_24\n      tag_25\n      jump\t// in\n    tag_24:\n      stop\n        /* \"contracts/Vote.sol\":4083:4415  function getAllCandidates() external view returns (Candidate[] memory) {... */\n    tag_4:\n      tag_26\n      tag_27\n      jump\t// in\n    tag_26:\n      mload(0x40)\n      tag_28\n      swap2\n      swap1\n      tag_29\n      jump\t// in\n    tag_28:\n      mload(0x40)\n      dup1\n      swap2\n      sub\n      swap1\n      return\n        /* \"contracts/Vote.sol\":1911:2259  function verifyVoter(address _voterAddress, string memory _nationalId) public view returns (bool) {... */\n    tag_5:\n      tag_30\n      0x04\n      dup1\n      calldatasize\n      sub\n      dup2\n      add\n      swap1\n      tag_31\n      swap2\n      swap1\n      tag_32\n      jump\t// in\n    tag_31:\n      tag_33\n      jump\t// in\n    tag_30:\n      mload(0x40)\n      tag_34\n      swap2\n      swap1\n      tag_35\n      jump\t// in\n    tag_34:\n      mload(0x40)\n      dup1\n      swap2\n      sub\n      swap1\n      return\n        /* \"contracts/Vote.sol\":1436:1832  function registerVoter(address _voterAddress, string memory _name, string memory _nationalId, uint _age) external onlyAdmin {... */\n    tag_6:\n      tag_36\n      0x04\n      dup1\n      calldatasize\n      sub\n      dup2\n      add\n      swap1\n      tag_37\n      swap2\n      swap1\n      tag_38\n      jump\t// in\n    tag_37:\n      tag_39\n      jump\t// in\n    tag_36:\n      stop\n        /* \"contracts/Vote.sol\":737:764  uint public currentMaxVotes */\n    tag_7:\n      tag_40\n      tag_41\n      jump\t// in\n    tag_40:\n      mload(0x40)\n      tag_42\n      swap2\n      swap1\n      tag_43\n      jump\t// in\n    tag_42:\n      mload(0x40)\n      dup1\n      swap2\n      sub\n      swap1\n      return\n        /* \"contracts/Vote.sol\":2267:2725  function registerCandidate(address _candidateAddress, string memory _name, string memory _partyName) external onlyAdmin {... */\n    tag_8:\n      tag_44\n      0x04\n      dup1\n      calldatasize\n      sub\n      dup2\n      add\n      swap1\n      tag_45\n      swap2\n      swap1\n      tag_46\n      jump\t// in\n    tag_45:\n      tag_47\n      jump\t// in\n    tag_44:\n      stop\n        /* \"contracts/Vote.sol\":3308:4075  function vote(address _candidateAddress) external votingActive {... */\n    tag_9:\n      tag_48\n      0x04\n      dup1\n      calldatasize\n      sub\n      dup2\n      add\n      swap1\n      tag_49\n      swap2\n      swap1\n      tag_50\n      jump\t// in\n    tag_49:\n      tag_51\n      jump\t// in\n    tag_48:\n      stop\n        /* \"contracts/Vote.sol\":110:135  bool public votingStarted */\n    tag_10:\n      tag_52\n      tag_53\n      jump\t// in\n    tag_52:\n      mload(0x40)\n      tag_54\n      swap2\n      swap1\n      tag_35\n      jump\t// in\n    tag_54:\n      mload(0x40)\n      dup1\n      swap2\n      sub\n      swap1\n      return\n        /* \"contracts/Vote.sol\":570:617  mapping(address => Candidate) public candidates */\n    tag_11:\n      tag_55\n      0x04\n      dup1\n      calldatasize\n      sub\n      dup2\n      add\n      swap1\n      tag_56\n      swap2\n      swap1\n      tag_50\n      jump\t// in\n    tag_56:\n      tag_57\n      jump\t// in\n    tag_55:\n      mload(0x40)\n      tag_58\n      swap5\n      swap4\n      swap3\n      swap2\n      swap1\n      tag_59\n      jump\t// in\n    tag_58:\n      mload(0x40)\n      dup1\n      swap2\n      sub\n      swap1\n      return\n        /* \"contracts/Vote.sol\":142:165  bool public votingEnded */\n    tag_12:\n      tag_60\n      tag_61\n      jump\t// in\n    tag_60:\n      mload(0x40)\n      tag_62\n      swap2\n      swap1\n      tag_35\n      jump\t// in\n    tag_62:\n      mload(0x40)\n      dup1\n      swap2\n      sub\n      swap1\n      return\n        /* \"contracts/Vote.sol\":524:563  mapping(address => Voter) public voters */\n    tag_13:\n      tag_63\n      0x04\n      dup1\n      calldatasize\n      sub\n      dup2\n      add\n      swap1\n      tag_64\n      swap2\n      swap1\n      tag_50\n      jump\t// in\n    tag_64:\n      tag_65\n      jump\t// in\n    tag_63:\n      mload(0x40)\n      tag_66\n      swap8\n      swap7\n      swap6\n      swap5\n      swap4\n      swap3\n      swap2\n      swap1\n      tag_67\n      jump\t// in\n    tag_66:\n      mload(0x40)\n      dup1\n      swap2\n      sub\n      swap1\n      return\n        /* \"contracts/Vote.sol\":702:730  address public currentWinner */\n    tag_14:\n      tag_68\n      tag_69\n      jump\t// in\n    tag_68:\n      mload(0x40)\n      tag_70\n      swap2\n      swap1\n      tag_71\n      jump\t// in\n    tag_70:\n      mload(0x40)\n      dup1\n      swap2\n      sub\n      swap1\n      return\n        /* \"contracts/Vote.sol\":2965:3300  function endVoting() external onlyAdmin {... */\n    tag_15:\n      tag_72\n      tag_73\n      jump\t// in\n    tag_72:\n      stop\n        /* \"contracts/Vote.sol\":662:693  address[] public tiedCandidates */\n    tag_16:\n      tag_74\n      0x04\n      dup1\n      calldatasize\n      sub\n      dup2\n      add\n      swap1\n      tag_75\n      swap2\n      swap1\n      tag_76\n      jump\t// in\n    tag_75:\n      tag_77\n      jump\t// in\n    tag_74:\n      mload(0x40)\n      tag_78\n      swap2\n      swap1\n      tag_71\n      jump\t// in\n    tag_78:\n      mload(0x40)\n      dup1\n      swap2\n      sub\n      swap1\n      return\n        /* \"contracts/Vote.sol\":624:655  address[] public candidatesList */\n    tag_17:\n      tag_79\n      0x04\n      dup1\n      calldatasize\n      sub\n      dup2\n      add\n      swap1\n      tag_80\n      swap2\n      swap1\n      tag_76\n      jump\t// in\n    tag_80:\n      tag_81\n      jump\t// in\n    tag_79:\n      mload(0x40)\n      tag_82\n      swap2\n      swap1\n      tag_71\n      jump\t// in\n    tag_82:\n      mload(0x40)\n      dup1\n      swap2\n      sub\n      swap1\n      return\n        /* \"contracts/Vote.sol\":5089:5329  function getElectionResults() external view returns (address winner, uint maxVotes, bool isTie) {... */\n    tag_18:\n      tag_83\n      tag_84\n      jump\t// in\n    tag_83:\n      mload(0x40)\n      tag_85\n      swap4\n      swap3\n      swap2\n      swap1\n      tag_86\n      jump\t// in\n    tag_85:\n      mload(0x40)\n      dup1\n      swap2\n      sub\n      swap1\n      return\n        /* \"contracts/Vote.sol\":5337:5817  function getTiedCandidates() external view returns (Candidate[] memory) {... */\n    tag_19:\n      tag_87\n      tag_88\n      jump\t// in\n    tag_87:\n      mload(0x40)\n      tag_89\n      swap2\n      swap1\n      tag_29\n      jump\t// in\n    tag_89:\n      mload(0x40)\n      dup1\n      swap2\n      sub\n      swap1\n      return\n        /* \"contracts/Vote.sol\":83:103  address public admin */\n    tag_20:\n      tag_90\n      tag_91\n      jump\t// in\n    tag_90:\n      mload(0x40)\n      tag_92\n      swap2\n      swap1\n      tag_71\n      jump\t// in\n    tag_92:\n      mload(0x40)\n      dup1\n      swap2\n      sub\n      swap1\n      return\n        /* \"contracts/Vote.sol\":2733:2957  function startVoting() external onlyAdmin {... */\n    tag_25:\n        /* \"contracts/Vote.sol\":1180:1185  admin */\n      0x00\n      dup1\n      sload\n      swap1\n      0x0100\n      exp\n      swap1\n      div\n      0xffffffffffffffffffffffffffffffffffffffff\n      and\n        /* \"contracts/Vote.sol\":1166:1185  msg.sender == admin */\n      0xffffffffffffffffffffffffffffffffffffffff\n      and\n        /* \"contracts/Vote.sol\":1166:1176  msg.sender */\n      caller\n        /* \"contracts/Vote.sol\":1166:1185  msg.sender == admin */\n      0xffffffffffffffffffffffffffffffffffffffff\n      and\n      eq\n        /* \"contracts/Vote.sol\":1158:1224  require(msg.sender == admin, \"Only admin can perform this action\") */\n      tag_94\n      jumpi\n      mload(0x40)\n      0x08c379a000000000000000000000000000000000000000000000000000000000\n      dup2\n      mstore\n      0x04\n      add\n      tag_95\n      swap1\n      tag_96\n      jump\t// in\n    tag_95:\n      mload(0x40)\n      dup1\n      swap2\n      sub\n      swap1\n      revert\n    tag_94:\n        /* \"contracts/Vote.sol\":2819:2820  2 */\n      0x02\n        /* \"contracts/Vote.sol\":2794:2808  candidatesList */\n      0x03\n        /* \"contracts/Vote.sol\":2794:2815  candidatesList.length */\n      dup1\n      sload\n      swap1\n      pop\n        /* \"contracts/Vote.sol\":2794:2820  candidatesList.length >= 2 */\n      lt\n      iszero\n        /* \"contracts/Vote.sol\":2786:2857  require(candidatesList.length >= 2, \"At least two candidates required\") */\n      tag_98\n      jumpi\n      mload(0x40)\n      0x08c379a000000000000000000000000000000000000000000000000000000000\n      dup2\n      mstore\n      0x04\n      add\n      tag_99\n      swap1\n      tag_100\n      jump\t// in\n    tag_99:\n      mload(0x40)\n      dup1\n      swap2\n      sub\n      swap1\n      revert\n    tag_98:\n        /* \"contracts/Vote.sol\":2884:2888  true */\n      0x01\n        /* \"contracts/Vote.sol\":2868:2881  votingStarted */\n      0x00\n      0x14\n        /* \"contracts/Vote.sol\":2868:2888  votingStarted = true */\n      0x0100\n      exp\n      dup2\n      sload\n      dup2\n      0xff\n      mul\n      not\n      and\n      swap1\n      dup4\n      iszero\n      iszero\n      mul\n      or\n      swap1\n      sstore\n      pop\n        /* \"contracts/Vote.sol\":2913:2918  false */\n      0x00\n        /* \"contracts/Vote.sol\":2899:2910  votingEnded */\n      dup1\n      0x15\n        /* \"contracts/Vote.sol\":2899:2918  votingEnded = false */\n      0x0100\n      exp\n      dup2\n      sload\n      dup2\n      0xff\n      mul\n      not\n      and\n      swap1\n      dup4\n      iszero\n      iszero\n      mul\n      or\n      swap1\n      sstore\n      pop\n        /* \"contracts/Vote.sol\":2934:2949  VotingStarted() */\n      0x877e2548498f42b7975a186b94ef1d32c86d420b7b806dd2be2bea293b895904\n      mload(0x40)\n      mload(0x40)\n      dup1\n      swap2\n      sub\n      swap1\n      log1\n        /* \"contracts/Vote.sol\":2733:2957  function startVoting() external onlyAdmin {... */\n      jump\t// out\n        /* \"contracts/Vote.sol\":4083:4415  function getAllCandidates() external view returns (Candidate[] memory) {... */\n    tag_27:\n        /* \"contracts/Vote.sol\":4134:4152  Candidate[] memory */\n      0x60\n        /* \"contracts/Vote.sol\":4165:4197  Candidate[] memory allCandidates */\n      0x00\n        /* \"contracts/Vote.sol\":4216:4230  candidatesList */\n      0x03\n        /* \"contracts/Vote.sol\":4216:4237  candidatesList.length */\n      dup1\n      sload\n      swap1\n      pop\n        /* \"contracts/Vote.sol\":4200:4238  new Candidate[](candidatesList.length) */\n      0xffffffffffffffff\n      dup2\n      gt\n      iszero\n      tag_102\n      jumpi\n      tag_103\n      tag_104\n      jump\t// in\n    tag_103:\n    tag_102:\n      mload(0x40)\n      swap1\n      dup1\n      dup3\n      mstore\n      dup1\n      0x20\n      mul\n      0x20\n      add\n      dup3\n      add\n      0x40\n      mstore\n      dup1\n      iszero\n      tag_105\n      jumpi\n      dup2\n      0x20\n      add\n    tag_106:\n      tag_107\n      tag_108\n      jump\t// in\n    tag_107:\n      dup2\n      mstore\n      0x20\n      add\n      swap1\n      0x01\n      swap1\n      sub\n      swap1\n      dup2\n      tag_106\n      jumpi\n      swap1\n      pop\n    tag_105:\n      pop\n        /* \"contracts/Vote.sol\":4165:4238  Candidate[] memory allCandidates = new Candidate[](candidatesList.length) */\n      swap1\n      pop\n        /* \"contracts/Vote.sol\":4256:4262  uint i */\n      0x00\n        /* \"contracts/Vote.sol\":4251:4375  for (uint i = 0; i < candidatesList.length; i++) {... */\n    tag_109:\n        /* \"contracts/Vote.sol\":4272:4286  candidatesList */\n      0x03\n        /* \"contracts/Vote.sol\":4272:4293  candidatesList.length */\n      dup1\n      sload\n      swap1\n      pop\n        /* \"contracts/Vote.sol\":4268:4269  i */\n      dup2\n        /* \"contracts/Vote.sol\":4268:4293  i < candidatesList.length */\n      lt\n        /* \"contracts/Vote.sol\":4251:4375  for (uint i = 0; i < candidatesList.length; i++) {... */\n      iszero\n      tag_110\n      jumpi\n        /* \"contracts/Vote.sol\":4334:4344  candidates */\n      0x02\n        /* \"contracts/Vote.sol\":4334:4363  candidates[candidatesList[i]] */\n      0x00\n        /* \"contracts/Vote.sol\":4345:4359  candidatesList */\n      0x03\n        /* \"contracts/Vote.sol\":4360:4361  i */\n      dup4\n        /* \"contracts/Vote.sol\":4345:4362  candidatesList[i] */\n      dup2\n      sload\n      dup2\n      lt\n      tag_112\n      jumpi\n      tag_113\n      tag_114\n      jump\t// in\n    tag_113:\n    tag_112:\n      swap1\n      0x00\n      mstore\n      keccak256(0x00, 0x20)\n      add\n      0x00\n      swap1\n      sload\n      swap1\n      0x0100\n      exp\n      swap1\n      div\n      0xffffffffffffffffffffffffffffffffffffffff\n      and\n        /* \"contracts/Vote.sol\":4334:4363  candidates[candidatesList[i]] */\n      0xffffffffffffffffffffffffffffffffffffffff\n      and\n      0xffffffffffffffffffffffffffffffffffffffff\n      and\n      dup2\n      mstore\n      0x20\n      add\n      swap1\n      dup2\n      mstore\n      0x20\n      add\n      0x00\n      keccak256\n        /* \"contracts/Vote.sol\":4315:4363  allCandidates[i] = candidates[candidatesList[i]] */\n      mload(0x40)\n      dup1\n      0x80\n      add\n      0x40\n      mstore\n      swap1\n      dup2\n      0x00\n      dup3\n      add\n      dup1\n      sload\n      tag_116\n      swap1\n      tag_117\n      jump\t// in\n    tag_116:\n      dup1\n      0x1f\n      add\n      0x20\n      dup1\n      swap2\n      div\n      mul\n      0x20\n      add\n      mload(0x40)\n      swap1\n      dup2\n      add\n      0x40\n      mstore\n      dup1\n      swap3\n      swap2\n      swap1\n      dup2\n      dup2\n      mstore\n      0x20\n      add\n      dup3\n      dup1\n      sload\n      tag_118\n      swap1\n      tag_117\n      jump\t// in\n    tag_118:\n      dup1\n      iszero\n      tag_119\n      jumpi\n      dup1\n      0x1f\n      lt\n      tag_120\n      jumpi\n      0x0100\n      dup1\n      dup4\n      sload\n      div\n      mul\n      dup4\n      mstore\n      swap2\n      0x20\n      add\n      swap2\n      jump(tag_119)\n    tag_120:\n      dup3\n      add\n      swap2\n      swap1\n      0x00\n      mstore\n      keccak256(0x00, 0x20)\n      swap1\n    tag_121:\n      dup2\n      sload\n      dup2\n      mstore\n      swap1\n      0x01\n      add\n      swap1\n      0x20\n      add\n      dup1\n      dup4\n      gt\n      tag_121\n      jumpi\n      dup3\n      swap1\n      sub\n      0x1f\n      and\n      dup3\n      add\n      swap2\n    tag_119:\n      pop\n      pop\n      pop\n      pop\n      pop\n      dup2\n      mstore\n      0x20\n      add\n      0x01\n      dup3\n      add\n      0x00\n      swap1\n      sload\n      swap1\n      0x0100\n      exp\n      swap1\n      div\n      0xffffffffffffffffffffffffffffffffffffffff\n      and\n      0xffffffffffffffffffffffffffffffffffffffff\n      and\n      0xffffffffffffffffffffffffffffffffffffffff\n      and\n      dup2\n      mstore\n      0x20\n      add\n      0x02\n      dup3\n      add\n      sload\n      dup2\n      mstore\n      0x20\n      add\n      0x03\n      dup3\n      add\n      dup1\n      sload\n      tag_122\n      swap1\n      tag_117\n      jump\t// in\n    tag_122:\n      dup1\n      0x1f\n      add\n      0x20\n      dup1\n      swap2\n      div\n      mul\n      0x20\n      add\n      mload(0x40)\n      swap1\n      dup2\n      add\n      0x40\n      mstore\n      dup1\n      swap3\n      swap2\n      swap1\n      dup2\n      dup2\n      mstore\n      0x20\n      add\n      dup3\n      dup1\n      sload\n      tag_123\n      swap1\n      tag_117\n      jump\t// in\n    tag_123:\n      dup1\n      iszero\n      tag_124\n      jumpi\n      dup1\n      0x1f\n      lt\n      tag_125\n      jumpi\n      0x0100\n      dup1\n      dup4\n      sload\n      div\n      mul\n      dup4\n      mstore\n      swap2\n      0x20\n      add\n      swap2\n      jump(tag_124)\n    tag_125:\n      dup3\n      add\n      swap2\n      swap1\n      0x00\n      mstore\n      keccak256(0x00, 0x20)\n      swap1\n    tag_126:\n      dup2\n      sload\n      dup2\n      mstore\n      swap1\n      0x01\n      add\n      swap1\n      0x20\n      add\n      dup1\n      dup4\n      gt\n      tag_126\n      jumpi\n      dup3\n      swap1\n      sub\n      0x1f\n      and\n      dup3\n      add\n      swap2\n    tag_124:\n      pop\n      pop\n      pop\n      pop\n      pop\n      dup2\n      mstore\n      pop\n      pop\n        /* \"contracts/Vote.sol\":4315:4328  allCandidates */\n      dup3\n        /* \"contracts/Vote.sol\":4329:4330  i */\n      dup3\n        /* \"contracts/Vote.sol\":4315:4331  allCandidates[i] */\n      dup2\n      mload\n      dup2\n      lt\n      tag_127\n      jumpi\n      tag_128\n      tag_114\n      jump\t// in\n    tag_128:\n    tag_127:\n      0x20\n      mul\n      0x20\n      add\n      add\n        /* \"contracts/Vote.sol\":4315:4363  allCandidates[i] = candidates[candidatesList[i]] */\n      dup2\n      swap1\n      mstore\n      pop\n        /* \"contracts/Vote.sol\":4295:4298  i++ */\n      dup1\n      dup1\n      0x01\n      add\n      swap2\n      pop\n      pop\n        /* \"contracts/Vote.sol\":4251:4375  for (uint i = 0; i < candidatesList.length; i++) {... */\n      jump(tag_109)\n    tag_110:\n      pop\n        /* \"contracts/Vote.sol\":4394:4407  allCandidates */\n      dup1\n        /* \"contracts/Vote.sol\":4387:4407  return allCandidates */\n      swap2\n      pop\n      pop\n        /* \"contracts/Vote.sol\":4083:4415  function getAllCandidates() external view returns (Candidate[] memory) {... */\n      swap1\n      jump\t// out\n        /* \"contracts/Vote.sol\":1911:2259  function verifyVoter(address _voterAddress, string memory _nationalId) public view returns (bool) {... */\n    tag_33:\n        /* \"contracts/Vote.sol\":2003:2007  bool */\n      0x00\n        /* \"contracts/Vote.sol\":2020:2039  Voter storage voter */\n      dup1\n        /* \"contracts/Vote.sol\":2042:2048  voters */\n      0x01\n        /* \"contracts/Vote.sol\":2042:2063  voters[_voterAddress] */\n      0x00\n        /* \"contracts/Vote.sol\":2049:2062  _voterAddress */\n      dup6\n        /* \"contracts/Vote.sol\":2042:2063  voters[_voterAddress] */\n      0xffffffffffffffffffffffffffffffffffffffff\n      and\n      0xffffffffffffffffffffffffffffffffffffffff\n      and\n      dup2\n      mstore\n      0x20\n      add\n      swap1\n      dup2\n      mstore\n      0x20\n      add\n      0x00\n      keccak256\n        /* \"contracts/Vote.sol\":2020:2063  Voter storage voter = voters[_voterAddress] */\n      swap1\n      pop\n        /* \"contracts/Vote.sol\":2078:2083  voter */\n      dup1\n        /* \"contracts/Vote.sol\":2078:2096  voter.isRegistered */\n      0x00\n      add\n      0x00\n      swap1\n      sload\n      swap1\n      0x0100\n      exp\n      swap1\n      div\n      0xff\n      and\n        /* \"contracts/Vote.sol\":2078:2189  voter.isRegistered && keccak256(abi.encodePacked(voter.nationalId)) == keccak256(abi.encodePacked(_nationalId)) */\n      dup1\n      iszero\n      tag_130\n      jumpi\n      pop\n        /* \"contracts/Vote.sol\":2176:2187  _nationalId */\n      dup3\n        /* \"contracts/Vote.sol\":2159:2188  abi.encodePacked(_nationalId) */\n      add(0x20, mload(0x40))\n      tag_131\n      swap2\n      swap1\n      tag_132\n      jump\t// in\n    tag_131:\n      mload(0x40)\n      0x20\n      dup2\n      dup4\n      sub\n      sub\n      dup2\n      mstore\n      swap1\n      0x40\n      mstore\n        /* \"contracts/Vote.sol\":2149:2189  keccak256(abi.encodePacked(_nationalId)) */\n      dup1\n      mload\n      swap1\n      0x20\n      add\n      keccak256\n        /* \"contracts/Vote.sol\":2127:2132  voter */\n      dup2\n        /* \"contracts/Vote.sol\":2127:2143  voter.nationalId */\n      0x02\n      add\n        /* \"contracts/Vote.sol\":2110:2144  abi.encodePacked(voter.nationalId) */\n      add(0x20, mload(0x40))\n      tag_133\n      swap2\n      swap1\n      tag_134\n      jump\t// in\n    tag_133:\n      mload(0x40)\n      0x20\n      dup2\n      dup4\n      sub\n      sub\n      dup2\n      mstore\n      swap1\n      0x40\n      mstore\n        /* \"contracts/Vote.sol\":2100:2145  keccak256(abi.encodePacked(voter.nationalId)) */\n      dup1\n      mload\n      swap1\n      0x20\n      add\n      keccak256\n        /* \"contracts/Vote.sol\":2100:2189  keccak256(abi.encodePacked(voter.nationalId)) == keccak256(abi.encodePacked(_nationalId)) */\n      eq\n        /* \"contracts/Vote.sol\":2078:2189  voter.isRegistered && keccak256(abi.encodePacked(voter.nationalId)) == keccak256(abi.encodePacked(_nationalId)) */\n    tag_130:\n        /* \"contracts/Vote.sol\":2074:2229  if (voter.isRegistered && keccak256(abi.encodePacked(voter.nationalId)) == keccak256(abi.encodePacked(_nationalId))) {... */\n      iszero\n      tag_135\n      jumpi\n        /* \"contracts/Vote.sol\":2213:2217  true */\n      0x01\n        /* \"contracts/Vote.sol\":2206:2217  return true */\n      swap2\n      pop\n      pop\n      jump(tag_129)\n        /* \"contracts/Vote.sol\":2074:2229  if (voter.isRegistered && keccak256(abi.encodePacked(voter.nationalId)) == keccak256(abi.encodePacked(_nationalId))) {... */\n    tag_135:\n        /* \"contracts/Vote.sol\":2246:2251  false */\n      0x00\n        /* \"contracts/Vote.sol\":2239:2251  return false */\n      swap2\n      pop\n      pop\n        /* \"contracts/Vote.sol\":1911:2259  function verifyVoter(address _voterAddress, string memory _nationalId) public view returns (bool) {... */\n    tag_129:\n      swap3\n      swap2\n      pop\n      pop\n      jump\t// out\n        /* \"contracts/Vote.sol\":1436:1832  function registerVoter(address _voterAddress, string memory _name, string memory _nationalId, uint _age) external onlyAdmin {... */\n    tag_39:\n        /* \"contracts/Vote.sol\":1180:1185  admin */\n      0x00\n      dup1\n      sload\n      swap1\n      0x0100\n      exp\n      swap1\n      div\n      0xffffffffffffffffffffffffffffffffffffffff\n      and\n        /* \"contracts/Vote.sol\":1166:1185  msg.sender == admin */\n      0xffffffffffffffffffffffffffffffffffffffff\n      and\n        /* \"contracts/Vote.sol\":1166:1176  msg.sender */\n      caller\n        /* \"contracts/Vote.sol\":1166:1185  msg.sender == admin */\n      0xffffffffffffffffffffffffffffffffffffffff\n      and\n      eq\n        /* \"contracts/Vote.sol\":1158:1224  require(msg.sender == admin, \"Only admin can perform this action\") */\n      tag_137\n      jumpi\n      mload(0x40)\n      0x08c379a000000000000000000000000000000000000000000000000000000000\n      dup2\n      mstore\n      0x04\n      add\n      tag_138\n      swap1\n      tag_96\n      jump\t// in\n    tag_138:\n      mload(0x40)\n      dup1\n      swap2\n      sub\n      swap1\n      revert\n    tag_137:\n        /* \"contracts/Vote.sol\":1580:1586  voters */\n      0x01\n        /* \"contracts/Vote.sol\":1580:1601  voters[_voterAddress] */\n      0x00\n        /* \"contracts/Vote.sol\":1587:1600  _voterAddress */\n      dup6\n        /* \"contracts/Vote.sol\":1580:1601  voters[_voterAddress] */\n      0xffffffffffffffffffffffffffffffffffffffff\n      and\n      0xffffffffffffffffffffffffffffffffffffffff\n      and\n      dup2\n      mstore\n      0x20\n      add\n      swap1\n      dup2\n      mstore\n      0x20\n      add\n      0x00\n      keccak256\n        /* \"contracts/Vote.sol\":1580:1614  voters[_voterAddress].isRegistered */\n      0x00\n      add\n      0x00\n      swap1\n      sload\n      swap1\n      0x0100\n      exp\n      swap1\n      div\n      0xff\n      and\n        /* \"contracts/Vote.sol\":1579:1614  !voters[_voterAddress].isRegistered */\n      iszero\n        /* \"contracts/Vote.sol\":1571:1646  require(!voters[_voterAddress].isRegistered, \"Voter is already registered\") */\n      tag_140\n      jumpi\n      mload(0x40)\n      0x08c379a000000000000000000000000000000000000000000000000000000000\n      dup2\n      mstore\n      0x04\n      add\n      tag_141\n      swap1\n      tag_142\n      jump\t// in\n    tag_141:\n      mload(0x40)\n      dup1\n      swap2\n      sub\n      swap1\n      revert\n    tag_140:\n        /* \"contracts/Vote.sol\":1681:1752  Voter(true, false, address(0), _name, _nationalId, _age, _voterAddress) */\n      mload(0x40)\n      dup1\n      0xe0\n      add\n      0x40\n      mstore\n      dup1\n        /* \"contracts/Vote.sol\":1687:1691  true */\n      0x01\n        /* \"contracts/Vote.sol\":1681:1752  Voter(true, false, address(0), _name, _nationalId, _age, _voterAddress) */\n      iszero\n      iszero\n      dup2\n      mstore\n      0x20\n      add\n        /* \"contracts/Vote.sol\":1693:1698  false */\n      0x00\n        /* \"contracts/Vote.sol\":1681:1752  Voter(true, false, address(0), _name, _nationalId, _age, _voterAddress) */\n      iszero\n      iszero\n      dup2\n      mstore\n      0x20\n      add\n        /* \"contracts/Vote.sol\":1708:1709  0 */\n      0x00\n        /* \"contracts/Vote.sol\":1681:1752  Voter(true, false, address(0), _name, _nationalId, _age, _voterAddress) */\n      0xffffffffffffffffffffffffffffffffffffffff\n      and\n      dup2\n      mstore\n      0x20\n      add\n        /* \"contracts/Vote.sol\":1712:1717  _name */\n      dup5\n        /* \"contracts/Vote.sol\":1681:1752  Voter(true, false, address(0), _name, _nationalId, _age, _voterAddress) */\n      dup2\n      mstore\n      0x20\n      add\n        /* \"contracts/Vote.sol\":1719:1730  _nationalId */\n      dup4\n        /* \"contracts/Vote.sol\":1681:1752  Voter(true, false, address(0), _name, _nationalId, _age, _voterAddress) */\n      dup2\n      mstore\n      0x20\n      add\n        /* \"contracts/Vote.sol\":1732:1736  _age */\n      dup3\n        /* \"contracts/Vote.sol\":1681:1752  Voter(true, false, address(0), _name, _nationalId, _age, _voterAddress) */\n      dup2\n      mstore\n      0x20\n      add\n        /* \"contracts/Vote.sol\":1738:1751  _voterAddress */\n      dup6\n        /* \"contracts/Vote.sol\":1681:1752  Voter(true, false, address(0), _name, _nationalId, _age, _voterAddress) */\n      0xffffffffffffffffffffffffffffffffffffffff\n      and\n      dup2\n      mstore\n      pop\n        /* \"contracts/Vote.sol\":1657:1663  voters */\n      0x01\n        /* \"contracts/Vote.sol\":1657:1678  voters[_voterAddress] */\n      0x00\n        /* \"contracts/Vote.sol\":1664:1677  _voterAddress */\n      dup7\n        /* \"contracts/Vote.sol\":1657:1678  voters[_voterAddress] */\n      0xffffffffffffffffffffffffffffffffffffffff\n      and\n      0xffffffffffffffffffffffffffffffffffffffff\n      and\n      dup2\n      mstore\n      0x20\n      add\n      swap1\n      dup2\n      mstore\n      0x20\n      add\n      0x00\n      keccak256\n        /* \"contracts/Vote.sol\":1657:1752  voters[_voterAddress] = Voter(true, false, address(0), _name, _nationalId, _age, _voterAddress) */\n      0x00\n      dup3\n      add\n      mload\n      dup2\n      0x00\n      add\n      exp(0x0100, 0x00)\n      dup2\n      sload\n      dup2\n      0xff\n      mul\n      not\n      and\n      swap1\n      dup4\n      iszero\n      iszero\n      mul\n      or\n      swap1\n      sstore\n      pop\n      0x20\n      dup3\n      add\n      mload\n      dup2\n      0x00\n      add\n      exp(0x0100, 0x01)\n      dup2\n      sload\n      dup2\n      0xff\n      mul\n      not\n      and\n      swap1\n      dup4\n      iszero\n      iszero\n      mul\n      or\n      swap1\n      sstore\n      pop\n      0x40\n      dup3\n      add\n      mload\n      dup2\n      0x00\n      add\n      exp(0x0100, 0x02)\n      dup2\n      sload\n      dup2\n      0xffffffffffffffffffffffffffffffffffffffff\n      mul\n      not\n      and\n      swap1\n      dup4\n      0xffffffffffffffffffffffffffffffffffffffff\n      and\n      mul\n      or\n      swap1\n      sstore\n      pop\n      0x60\n      dup3\n      add\n      mload\n      dup2\n      0x01\n      add\n      swap1\n      dup2\n      tag_143\n      swap2\n      swap1\n      tag_144\n      jump\t// in\n    tag_143:\n      pop\n      0x80\n      dup3\n      add\n      mload\n      dup2\n      0x02\n      add\n      swap1\n      dup2\n      tag_145\n      swap2\n      swap1\n      tag_144\n      jump\t// in\n    tag_145:\n      pop\n      0xa0\n      dup3\n      add\n      mload\n      dup2\n      0x03\n      add\n      sstore\n      0xc0\n      dup3\n      add\n      mload\n      dup2\n      0x04\n      add\n      exp(0x0100, 0x00)\n      dup2\n      sload\n      dup2\n      0xffffffffffffffffffffffffffffffffffffffff\n      mul\n      not\n      and\n      swap1\n      dup4\n      0xffffffffffffffffffffffffffffffffffffffff\n      and\n      mul\n      or\n      swap1\n      sstore\n      pop\n      swap1\n      pop\n      pop\n        /* \"contracts/Vote.sol\":1784:1797  _voterAddress */\n      dup4\n        /* \"contracts/Vote.sol\":1768:1824  VoterRegistered(_voterAddress, _name, _nationalId, _age) */\n      0xffffffffffffffffffffffffffffffffffffffff\n      and\n      0x9cf1682c9291d84aae23538285245cbbabc90127784deda74b7d7ea1136ae4e7\n        /* \"contracts/Vote.sol\":1799:1804  _name */\n      dup5\n        /* \"contracts/Vote.sol\":1806:1817  _nationalId */\n      dup5\n        /* \"contracts/Vote.sol\":1819:1823  _age */\n      dup5\n        /* \"contracts/Vote.sol\":1768:1824  VoterRegistered(_voterAddress, _name, _nationalId, _age) */\n      mload(0x40)\n      tag_146\n      swap4\n      swap3\n      swap2\n      swap1\n      tag_147\n      jump\t// in\n    tag_146:\n      mload(0x40)\n      dup1\n      swap2\n      sub\n      swap1\n      log2\n        /* \"contracts/Vote.sol\":1436:1832  function registerVoter(address _voterAddress, string memory _name, string memory _nationalId, uint _age) external onlyAdmin {... */\n      pop\n      pop\n      pop\n      pop\n      jump\t// out\n        /* \"contracts/Vote.sol\":737:764  uint public currentMaxVotes */\n    tag_41:\n      sload(0x06)\n      dup2\n      jump\t// out\n        /* \"contracts/Vote.sol\":2267:2725  function registerCandidate(address _candidateAddress, string memory _name, string memory _partyName) external onlyAdmin {... */\n    tag_47:\n        /* \"contracts/Vote.sol\":1180:1185  admin */\n      0x00\n      dup1\n      sload\n      swap1\n      0x0100\n      exp\n      swap1\n      div\n      0xffffffffffffffffffffffffffffffffffffffff\n      and\n        /* \"contracts/Vote.sol\":1166:1185  msg.sender == admin */\n      0xffffffffffffffffffffffffffffffffffffffff\n      and\n        /* \"contracts/Vote.sol\":1166:1176  msg.sender */\n      caller\n        /* \"contracts/Vote.sol\":1166:1185  msg.sender == admin */\n      0xffffffffffffffffffffffffffffffffffffffff\n      and\n      eq\n        /* \"contracts/Vote.sol\":1158:1224  require(msg.sender == admin, \"Only admin can perform this action\") */\n      tag_149\n      jumpi\n      mload(0x40)\n      0x08c379a000000000000000000000000000000000000000000000000000000000\n      dup2\n      mstore\n      0x04\n      add\n      tag_150\n      swap1\n      tag_96\n      jump\t// in\n    tag_150:\n      mload(0x40)\n      dup1\n      swap2\n      sub\n      swap1\n      revert\n    tag_149:\n        /* \"contracts/Vote.sol\":2464:2465  0 */\n      0x00\n        /* \"contracts/Vote.sol\":2406:2466  candidates[_candidateAddress].candidateAddress == address(0) */\n      0xffffffffffffffffffffffffffffffffffffffff\n      and\n        /* \"contracts/Vote.sol\":2406:2416  candidates */\n      0x02\n        /* \"contracts/Vote.sol\":2406:2435  candidates[_candidateAddress] */\n      0x00\n        /* \"contracts/Vote.sol\":2417:2434  _candidateAddress */\n      dup6\n        /* \"contracts/Vote.sol\":2406:2435  candidates[_candidateAddress] */\n      0xffffffffffffffffffffffffffffffffffffffff\n      and\n      0xffffffffffffffffffffffffffffffffffffffff\n      and\n      dup2\n      mstore\n      0x20\n      add\n      swap1\n      dup2\n      mstore\n      0x20\n      add\n      0x00\n      keccak256\n        /* \"contracts/Vote.sol\":2406:2452  candidates[_candidateAddress].candidateAddress */\n      0x01\n      add\n      0x00\n      swap1\n      sload\n      swap1\n      0x0100\n      exp\n      swap1\n      div\n      0xffffffffffffffffffffffffffffffffffffffff\n      and\n        /* \"contracts/Vote.sol\":2406:2466  candidates[_candidateAddress].candidateAddress == address(0) */\n      0xffffffffffffffffffffffffffffffffffffffff\n      and\n      eq\n        /* \"contracts/Vote.sol\":2398:2502  require(candidates[_candidateAddress].candidateAddress == address(0), \"Candidate is already registered\") */\n      tag_152\n      jumpi\n      mload(0x40)\n      0x08c379a000000000000000000000000000000000000000000000000000000000\n      dup2\n      mstore\n      0x04\n      add\n      tag_153\n      swap1\n      tag_154\n      jump\t// in\n    tag_153:\n      mload(0x40)\n      dup1\n      swap2\n      sub\n      swap1\n      revert\n    tag_152:\n        /* \"contracts/Vote.sol\":2545:2595  Candidate(_name, _candidateAddress, 0, _partyName) */\n      mload(0x40)\n      dup1\n      0x80\n      add\n      0x40\n      mstore\n      dup1\n        /* \"contracts/Vote.sol\":2555:2560  _name */\n      dup4\n        /* \"contracts/Vote.sol\":2545:2595  Candidate(_name, _candidateAddress, 0, _partyName) */\n      dup2\n      mstore\n      0x20\n      add\n        /* \"contracts/Vote.sol\":2562:2579  _candidateAddress */\n      dup5\n        /* \"contracts/Vote.sol\":2545:2595  Candidate(_name, _candidateAddress, 0, _partyName) */\n      0xffffffffffffffffffffffffffffffffffffffff\n      and\n      dup2\n      mstore\n      0x20\n      add\n        /* \"contracts/Vote.sol\":2581:2582  0 */\n      0x00\n        /* \"contracts/Vote.sol\":2545:2595  Candidate(_name, _candidateAddress, 0, _partyName) */\n      dup2\n      mstore\n      0x20\n      add\n        /* \"contracts/Vote.sol\":2584:2594  _partyName */\n      dup3\n        /* \"contracts/Vote.sol\":2545:2595  Candidate(_name, _candidateAddress, 0, _partyName) */\n      dup2\n      mstore\n      pop\n        /* \"contracts/Vote.sol\":2513:2523  candidates */\n      0x02\n        /* \"contracts/Vote.sol\":2513:2542  candidates[_candidateAddress] */\n      0x00\n        /* \"contracts/Vote.sol\":2524:2541  _candidateAddress */\n      dup6\n        /* \"contracts/Vote.sol\":2513:2542  candidates[_candidateAddress] */\n      0xffffffffffffffffffffffffffffffffffffffff\n      and\n      0xffffffffffffffffffffffffffffffffffffffff\n      and\n      dup2\n      mstore\n      0x20\n      add\n      swap1\n      dup2\n      mstore\n      0x20\n      add\n      0x00\n      keccak256\n        /* \"contracts/Vote.sol\":2513:2595  candidates[_candidateAddress] = Candidate(_name, _candidateAddress, 0, _partyName) */\n      0x00\n      dup3\n      add\n      mload\n      dup2\n      0x00\n      add\n      swap1\n      dup2\n      tag_155\n      swap2\n      swap1\n      tag_144\n      jump\t// in\n    tag_155:\n      pop\n      0x20\n      dup3\n      add\n      mload\n      dup2\n      0x01\n      add\n      exp(0x0100, 0x00)\n      dup2\n      sload\n      dup2\n      0xffffffffffffffffffffffffffffffffffffffff\n      mul\n      not\n      and\n      swap1\n      dup4\n      0xffffffffffffffffffffffffffffffffffffffff\n      and\n      mul\n      or\n      swap1\n      sstore\n      pop\n      0x40\n      dup3\n      add\n      mload\n      dup2\n      0x02\n      add\n      sstore\n      0x60\n      dup3\n      add\n      mload\n      dup2\n      0x03\n      add\n      swap1\n      dup2\n      tag_156\n      swap2\n      swap1\n      tag_144\n      jump\t// in\n    tag_156:\n      pop\n      swap1\n      pop\n      pop\n        /* \"contracts/Vote.sol\":2606:2620  candidatesList */\n      0x03\n        /* \"contracts/Vote.sol\":2626:2643  _candidateAddress */\n      dup4\n        /* \"contracts/Vote.sol\":2606:2644  candidatesList.push(_candidateAddress) */\n      swap1\n      dup1\n      0x01\n      dup2\n      sload\n      add\n      dup1\n      dup3\n      sstore\n      dup1\n      swap2\n      pop\n      pop\n      0x01\n      swap1\n      sub\n      swap1\n      0x00\n      mstore\n      keccak256(0x00, 0x20)\n      add\n      0x00\n      swap1\n      swap2\n      swap1\n      swap2\n      swap1\n      swap2\n      0x0100\n      exp\n      dup2\n      sload\n      dup2\n      0xffffffffffffffffffffffffffffffffffffffff\n      mul\n      not\n      and\n      swap1\n      dup4\n      0xffffffffffffffffffffffffffffffffffffffff\n      and\n      mul\n      or\n      swap1\n      sstore\n      pop\n        /* \"contracts/Vote.sol\":2687:2704  _candidateAddress */\n      dup3\n        /* \"contracts/Vote.sol\":2660:2717  CandidateRegistered(_name, _candidateAddress, _partyName) */\n      0xffffffffffffffffffffffffffffffffffffffff\n      and\n      0x32495c7defa10bd47846728172a9991dcad3bb09741cb15a28041c5de778c416\n        /* \"contracts/Vote.sol\":2680:2685  _name */\n      dup4\n        /* \"contracts/Vote.sol\":2706:2716  _partyName */\n      dup4\n        /* \"contracts/Vote.sol\":2660:2717  CandidateRegistered(_name, _candidateAddress, _partyName) */\n      mload(0x40)\n      tag_158\n      swap3\n      swap2\n      swap1\n      tag_159\n      jump\t// in\n    tag_158:\n      mload(0x40)\n      dup1\n      swap2\n      sub\n      swap1\n      log2\n        /* \"contracts/Vote.sol\":2267:2725  function registerCandidate(address _candidateAddress, string memory _name, string memory _partyName) external onlyAdmin {... */\n      pop\n      pop\n      pop\n      jump\t// out\n        /* \"contracts/Vote.sol\":3308:4075  function vote(address _candidateAddress) external votingActive {... */\n    tag_51:\n        /* \"contracts/Vote.sol\":1295:1308  votingStarted */\n      0x00\n      0x14\n      swap1\n      sload\n      swap1\n      0x0100\n      exp\n      swap1\n      div\n      0xff\n      and\n        /* \"contracts/Vote.sol\":1295:1324  votingStarted && !votingEnded */\n      dup1\n      iszero\n      tag_161\n      jumpi\n      pop\n        /* \"contracts/Vote.sol\":1313:1324  votingEnded */\n      0x00\n      0x15\n      swap1\n      sload\n      swap1\n      0x0100\n      exp\n      swap1\n      div\n      0xff\n      and\n        /* \"contracts/Vote.sol\":1312:1324  !votingEnded */\n      iszero\n        /* \"contracts/Vote.sol\":1295:1324  votingStarted && !votingEnded */\n    tag_161:\n        /* \"contracts/Vote.sol\":1287:1349  require(votingStarted && !votingEnded, \"Voting is not active\") */\n      tag_162\n      jumpi\n      mload(0x40)\n      0x08c379a000000000000000000000000000000000000000000000000000000000\n      dup2\n      mstore\n      0x04\n      add\n      tag_163\n      swap1\n      tag_164\n      jump\t// in\n    tag_163:\n      mload(0x40)\n      dup1\n      swap2\n      sub\n      swap1\n      revert\n    tag_162:\n        /* \"contracts/Vote.sol\":3382:3402  Voter storage sender */\n      0x00\n        /* \"contracts/Vote.sol\":3405:3411  voters */\n      0x01\n        /* \"contracts/Vote.sol\":3405:3423  voters[msg.sender] */\n      0x00\n        /* \"contracts/Vote.sol\":3412:3422  msg.sender */\n      caller\n        /* \"contracts/Vote.sol\":3405:3423  voters[msg.sender] */\n      0xffffffffffffffffffffffffffffffffffffffff\n      and\n      0xffffffffffffffffffffffffffffffffffffffff\n      and\n      dup2\n      mstore\n      0x20\n      add\n      swap1\n      dup2\n      mstore\n      0x20\n      add\n      0x00\n      keccak256\n        /* \"contracts/Vote.sol\":3382:3423  Voter storage sender = voters[msg.sender] */\n      swap1\n      pop\n        /* \"contracts/Vote.sol\":3442:3448  sender */\n      dup1\n        /* \"contracts/Vote.sol\":3442:3461  sender.isRegistered */\n      0x00\n      add\n      0x00\n      swap1\n      sload\n      swap1\n      0x0100\n      exp\n      swap1\n      div\n      0xff\n      and\n        /* \"contracts/Vote.sol\":3434:3497  require(sender.isRegistered, \"Only registered voters can vote\") */\n      tag_166\n      jumpi\n      mload(0x40)\n      0x08c379a000000000000000000000000000000000000000000000000000000000\n      dup2\n      mstore\n      0x04\n      add\n      tag_167\n      swap1\n      tag_168\n      jump\t// in\n    tag_167:\n      mload(0x40)\n      dup1\n      swap2\n      sub\n      swap1\n      revert\n    tag_166:\n        /* \"contracts/Vote.sol\":3517:3523  sender */\n      dup1\n        /* \"contracts/Vote.sol\":3517:3532  sender.hasVoted */\n      0x00\n      add\n      0x01\n      swap1\n      sload\n      swap1\n      0x0100\n      exp\n      swap1\n      div\n      0xff\n      and\n        /* \"contracts/Vote.sol\":3516:3532  !sender.hasVoted */\n      iszero\n        /* \"contracts/Vote.sol\":3508:3560  require(!sender.hasVoted, \"Voter has already voted\") */\n      tag_169\n      jumpi\n      mload(0x40)\n      0x08c379a000000000000000000000000000000000000000000000000000000000\n      dup2\n      mstore\n      0x04\n      add\n      tag_170\n      swap1\n      tag_171\n      jump\t// in\n    tag_170:\n      mload(0x40)\n      dup1\n      swap2\n      sub\n      swap1\n      revert\n    tag_169:\n        /* \"contracts/Vote.sol\":3637:3638  0 */\n      0x00\n        /* \"contracts/Vote.sol\":3579:3639  candidates[_candidateAddress].candidateAddress != address(0) */\n      0xffffffffffffffffffffffffffffffffffffffff\n      and\n        /* \"contracts/Vote.sol\":3579:3589  candidates */\n      0x02\n        /* \"contracts/Vote.sol\":3579:3608  candidates[_candidateAddress] */\n      0x00\n        /* \"contracts/Vote.sol\":3590:3607  _candidateAddress */\n      dup5\n        /* \"contracts/Vote.sol\":3579:3608  candidates[_candidateAddress] */\n      0xffffffffffffffffffffffffffffffffffffffff\n      and\n      0xffffffffffffffffffffffffffffffffffffffff\n      and\n      dup2\n      mstore\n      0x20\n      add\n      swap1\n      dup2\n      mstore\n      0x20\n      add\n      0x00\n      keccak256\n        /* \"contracts/Vote.sol\":3579:3625  candidates[_candidateAddress].candidateAddress */\n      0x01\n      add\n      0x00\n      swap1\n      sload\n      swap1\n      0x0100\n      exp\n      swap1\n      div\n      0xffffffffffffffffffffffffffffffffffffffff\n      and\n        /* \"contracts/Vote.sol\":3579:3639  candidates[_candidateAddress].candidateAddress != address(0) */\n      0xffffffffffffffffffffffffffffffffffffffff\n      and\n      sub\n        /* \"contracts/Vote.sol\":3571:3668  require(candidates[_candidateAddress].candidateAddress != address(0), \"Candidate does not exist\") */\n      tag_172\n      jumpi\n      mload(0x40)\n      0x08c379a000000000000000000000000000000000000000000000000000000000\n      dup2\n      mstore\n      0x04\n      add\n      tag_173\n      swap1\n      tag_174\n      jump\t// in\n    tag_173:\n      mload(0x40)\n      dup1\n      swap2\n      sub\n      swap1\n      revert\n    tag_172:\n        /* \"contracts/Vote.sol\":3699:3703  true */\n      0x01\n        /* \"contracts/Vote.sol\":3681:3687  sender */\n      dup2\n        /* \"contracts/Vote.sol\":3681:3696  sender.hasVoted */\n      0x00\n      add\n      0x01\n        /* \"contracts/Vote.sol\":3681:3703  sender.hasVoted = true */\n      0x0100\n      exp\n      dup2\n      sload\n      dup2\n      0xff\n      mul\n      not\n      and\n      swap1\n      dup4\n      iszero\n      iszero\n      mul\n      or\n      swap1\n      sstore\n      pop\n        /* \"contracts/Vote.sol\":3732:3749  _candidateAddress */\n      dup2\n        /* \"contracts/Vote.sol\":3714:3720  sender */\n      dup2\n        /* \"contracts/Vote.sol\":3714:3729  sender.votedFor */\n      0x00\n      add\n      0x02\n        /* \"contracts/Vote.sol\":3714:3749  sender.votedFor = _candidateAddress */\n      0x0100\n      exp\n      dup2\n      sload\n      dup2\n      0xffffffffffffffffffffffffffffffffffffffff\n      mul\n      not\n      and\n      swap1\n      dup4\n      0xffffffffffffffffffffffffffffffffffffffff\n      and\n      mul\n      or\n      swap1\n      sstore\n      pop\n        /* \"contracts/Vote.sol\":3760:3770  candidates */\n      0x02\n        /* \"contracts/Vote.sol\":3760:3789  candidates[_candidateAddress] */\n      0x00\n        /* \"contracts/Vote.sol\":3771:3788  _candidateAddress */\n      dup4\n        /* \"contracts/Vote.sol\":3760:3789  candidates[_candidateAddress] */\n      0xffffffffffffffffffffffffffffffffffffffff\n      and\n      0xffffffffffffffffffffffffffffffffffffffff\n      and\n      dup2\n      mstore\n      0x20\n      add\n      swap1\n      dup2\n      mstore\n      0x20\n      add\n      0x00\n      keccak256\n        /* \"contracts/Vote.sol\":3760:3799  candidates[_candidateAddress].voteCount */\n      0x02\n      add\n      0x00\n        /* \"contracts/Vote.sol\":3760:3801  candidates[_candidateAddress].voteCount++ */\n      dup2\n      sload\n      dup1\n      swap3\n      swap2\n      swap1\n      tag_175\n      swap1\n      tag_176\n      jump\t// in\n    tag_175:\n      swap2\n      swap1\n      pop\n      sstore\n      pop\n        /* \"contracts/Vote.sol\":3860:3875  currentMaxVotes */\n      sload(0x06)\n        /* \"contracts/Vote.sol\":3818:3828  candidates */\n      0x02\n        /* \"contracts/Vote.sol\":3818:3847  candidates[_candidateAddress] */\n      0x00\n        /* \"contracts/Vote.sol\":3829:3846  _candidateAddress */\n      dup5\n        /* \"contracts/Vote.sol\":3818:3847  candidates[_candidateAddress] */\n      0xffffffffffffffffffffffffffffffffffffffff\n      and\n      0xffffffffffffffffffffffffffffffffffffffff\n      and\n      dup2\n      mstore\n      0x20\n      add\n      swap1\n      dup2\n      mstore\n      0x20\n      add\n      0x00\n      keccak256\n        /* \"contracts/Vote.sol\":3818:3857  candidates[_candidateAddress].voteCount */\n      0x02\n      add\n      sload\n        /* \"contracts/Vote.sol\":3818:3875  candidates[_candidateAddress].voteCount > currentMaxVotes */\n      gt\n        /* \"contracts/Vote.sol\":3814:4009  if (candidates[_candidateAddress].voteCount > currentMaxVotes) {... */\n      iszero\n      tag_177\n      jumpi\n        /* \"contracts/Vote.sol\":3910:3920  candidates */\n      0x02\n        /* \"contracts/Vote.sol\":3910:3939  candidates[_candidateAddress] */\n      0x00\n        /* \"contracts/Vote.sol\":3921:3938  _candidateAddress */\n      dup4\n        /* \"contracts/Vote.sol\":3910:3939  candidates[_candidateAddress] */\n      0xffffffffffffffffffffffffffffffffffffffff\n      and\n      0xffffffffffffffffffffffffffffffffffffffff\n      and\n      dup2\n      mstore\n      0x20\n      add\n      swap1\n      dup2\n      mstore\n      0x20\n      add\n      0x00\n      keccak256\n        /* \"contracts/Vote.sol\":3910:3949  candidates[_candidateAddress].voteCount */\n      0x02\n      add\n      sload\n        /* \"contracts/Vote.sol\":3892:3907  currentMaxVotes */\n      0x06\n        /* \"contracts/Vote.sol\":3892:3949  currentMaxVotes = candidates[_candidateAddress].voteCount */\n      dup2\n      swap1\n      sstore\n      pop\n        /* \"contracts/Vote.sol\":3980:3997  _candidateAddress */\n      dup2\n        /* \"contracts/Vote.sol\":3964:3977  currentWinner */\n      0x05\n      0x00\n        /* \"contracts/Vote.sol\":3964:3997  currentWinner = _candidateAddress */\n      0x0100\n      exp\n      dup2\n      sload\n      dup2\n      0xffffffffffffffffffffffffffffffffffffffff\n      mul\n      not\n      and\n      swap1\n      dup4\n      0xffffffffffffffffffffffffffffffffffffffff\n      and\n      mul\n      or\n      swap1\n      sstore\n      pop\n        /* \"contracts/Vote.sol\":3814:4009  if (candidates[_candidateAddress].voteCount > currentMaxVotes) {... */\n    tag_177:\n        /* \"contracts/Vote.sol\":4049:4066  _candidateAddress */\n      dup2\n        /* \"contracts/Vote.sol\":4026:4067  VoteCasted(msg.sender, _candidateAddress) */\n      0xffffffffffffffffffffffffffffffffffffffff\n      and\n        /* \"contracts/Vote.sol\":4037:4047  msg.sender */\n      caller\n        /* \"contracts/Vote.sol\":4026:4067  VoteCasted(msg.sender, _candidateAddress) */\n      0xffffffffffffffffffffffffffffffffffffffff\n      and\n      0xc4bfea56d023dc354a6e1649f3d6e114e28a306b3e281116b4d9d6c89098fa66\n      mload(0x40)\n      mload(0x40)\n      dup1\n      swap2\n      sub\n      swap1\n      log3\n        /* \"contracts/Vote.sol\":3371:4075  {... */\n      pop\n        /* \"contracts/Vote.sol\":3308:4075  function vote(address _candidateAddress) external votingActive {... */\n      pop\n      jump\t// out\n        /* \"contracts/Vote.sol\":110:135  bool public votingStarted */\n    tag_53:\n      0x00\n      0x14\n      swap1\n      sload\n      swap1\n      0x0100\n      exp\n      swap1\n      div\n      0xff\n      and\n      dup2\n      jump\t// out\n        /* \"contracts/Vote.sol\":570:617  mapping(address => Candidate) public candidates */\n    tag_57:\n      mstore(0x20, 0x02)\n      dup1\n      0x00\n      mstore\n      keccak256(0x00, 0x40)\n      0x00\n      swap2\n      pop\n      swap1\n      pop\n      dup1\n      0x00\n      add\n      dup1\n      sload\n      tag_178\n      swap1\n      tag_117\n      jump\t// in\n    tag_178:\n      dup1\n      0x1f\n      add\n      0x20\n      dup1\n      swap2\n      div\n      mul\n      0x20\n      add\n      mload(0x40)\n      swap1\n      dup2\n      add\n      0x40\n      mstore\n      dup1\n      swap3\n      swap2\n      swap1\n      dup2\n      dup2\n      mstore\n      0x20\n      add\n      dup3\n      dup1\n      sload\n      tag_179\n      swap1\n      tag_117\n      jump\t// in\n    tag_179:\n      dup1\n      iszero\n      tag_180\n      jumpi\n      dup1\n      0x1f\n      lt\n      tag_181\n      jumpi\n      0x0100\n      dup1\n      dup4\n      sload\n      div\n      mul\n      dup4\n      mstore\n      swap2\n      0x20\n      add\n      swap2\n      jump(tag_180)\n    tag_181:\n      dup3\n      add\n      swap2\n      swap1\n      0x00\n      mstore\n      keccak256(0x00, 0x20)\n      swap1\n    tag_182:\n      dup2\n      sload\n      dup2\n      mstore\n      swap1\n      0x01\n      add\n      swap1\n      0x20\n      add\n      dup1\n      dup4\n      gt\n      tag_182\n      jumpi\n      dup3\n      swap1\n      sub\n      0x1f\n      and\n      dup3\n      add\n      swap2\n    tag_180:\n      pop\n      pop\n      pop\n      pop\n      pop\n      swap1\n      dup1\n      0x01\n      add\n      0x00\n      swap1\n      sload\n      swap1\n      0x0100\n      exp\n      swap1\n      div\n      0xffffffffffffffffffffffffffffffffffffffff\n      and\n      swap1\n      dup1\n      0x02\n      add\n      sload\n      swap1\n      dup1\n      0x03\n      add\n      dup1\n      sload\n      tag_183\n      swap1\n      tag_117\n      jump\t// in\n    tag_183:\n      dup1\n      0x1f\n      add\n      0x20\n      dup1\n      swap2\n      div\n      mul\n      0x20\n      add\n      mload(0x40)\n      swap1\n      dup2\n      add\n      0x40\n      mstore\n      dup1\n      swap3\n      swap2\n      swap1\n      dup2\n      dup2\n      mstore\n      0x20\n      add\n      dup3\n      dup1\n      sload\n      tag_184\n      swap1\n      tag_117\n      jump\t// in\n    tag_184:\n      dup1\n      iszero\n      tag_185\n      jumpi\n      dup1\n      0x1f\n      lt\n      tag_186\n      jumpi\n      0x0100\n      dup1\n      dup4\n      sload\n      div\n      mul\n      dup4\n      mstore\n      swap2\n      0x20\n      add\n      swap2\n      jump(tag_185)\n    tag_186:\n      dup3\n      add\n      swap2\n      swap1\n      0x00\n      mstore\n      keccak256(0x00, 0x20)\n      swap1\n    tag_187:\n      dup2\n      sload\n      dup2\n      mstore\n      swap1\n      0x01\n      add\n      swap1\n      0x20\n      add\n      dup1\n      dup4\n      gt\n      tag_187\n      jumpi\n      dup3\n      swap1\n      sub\n      0x1f\n      and\n      dup3\n      add\n      swap2\n    tag_185:\n      pop\n      pop\n      pop\n      pop\n      pop\n      swap1\n      pop\n      dup5\n      jump\t// out\n        /* \"contracts/Vote.sol\":142:165  bool public votingEnded */\n    tag_61:\n      0x00\n      0x15\n      swap1\n      sload\n      swap1\n      0x0100\n      exp\n      swap1\n      div\n      0xff\n      and\n      dup2\n      jump\t// out\n        /* \"contracts/Vote.sol\":524:563  mapping(address => Voter) public voters */\n    tag_65:\n      mstore(0x20, 0x01)\n      dup1\n      0x00\n      mstore\n      keccak256(0x00, 0x40)\n      0x00\n      swap2\n      pop\n      swap1\n      pop\n      dup1\n      0x00\n      add\n      0x00\n      swap1\n      sload\n      swap1\n      0x0100\n      exp\n      swap1\n      div\n      0xff\n      and\n      swap1\n      dup1\n      0x00\n      add\n      0x01\n      swap1\n      sload\n      swap1\n      0x0100\n      exp\n      swap1\n      div\n      0xff\n      and\n      swap1\n      dup1\n      0x00\n      add\n      0x02\n      swap1\n      sload\n      swap1\n      0x0100\n      exp\n      swap1\n      div\n      0xffffffffffffffffffffffffffffffffffffffff\n      and\n      swap1\n      dup1\n      0x01\n      add\n      dup1\n      sload\n      tag_188\n      swap1\n      tag_117\n      jump\t// in\n    tag_188:\n      dup1\n      0x1f\n      add\n      0x20\n      dup1\n      swap2\n      div\n      mul\n      0x20\n      add\n      mload(0x40)\n      swap1\n      dup2\n      add\n      0x40\n      mstore\n      dup1\n      swap3\n      swap2\n      swap1\n      dup2\n      dup2\n      mstore\n      0x20\n      add\n      dup3\n      dup1\n      sload\n      tag_189\n      swap1\n      tag_117\n      jump\t// in\n    tag_189:\n      dup1\n      iszero\n      tag_190\n      jumpi\n      dup1\n      0x1f\n      lt\n      tag_191\n      jumpi\n      0x0100\n      dup1\n      dup4\n      sload\n      div\n      mul\n      dup4\n      mstore\n      swap2\n      0x20\n      add\n      swap2\n      jump(tag_190)\n    tag_191:\n      dup3\n      add\n      swap2\n      swap1\n      0x00\n      mstore\n      keccak256(0x00, 0x20)\n      swap1\n    tag_192:\n      dup2\n      sload\n      dup2\n      mstore\n      swap1\n      0x01\n      add\n      swap1\n      0x20\n      add\n      dup1\n      dup4\n      gt\n      tag_192\n      jumpi\n      dup3\n      swap1\n      sub\n      0x1f\n      and\n      dup3\n      add\n      swap2\n    tag_190:\n      pop\n      pop\n      pop\n      pop\n      pop\n      swap1\n      dup1\n      0x02\n      add\n      dup1\n      sload\n      tag_193\n      swap1\n      tag_117\n      jump\t// in\n    tag_193:\n      dup1\n      0x1f\n      add\n      0x20\n      dup1\n      swap2\n      div\n      mul\n      0x20\n      add\n      mload(0x40)\n      swap1\n      dup2\n      add\n      0x40\n      mstore\n      dup1\n      swap3\n      swap2\n      swap1\n      dup2\n      dup2\n      mstore\n      0x20\n      add\n      dup3\n      dup1\n      sload\n      tag_194\n      swap1\n      tag_117\n      jump\t// in\n    tag_194:\n      dup1\n      iszero\n      tag_195\n      jumpi\n      dup1\n      0x1f\n      lt\n      tag_196\n      jumpi\n      0x0100\n      dup1\n      dup4\n      sload\n      div\n      mul\n      dup4\n      mstore\n      swap2\n      0x20\n      add\n      swap2\n      jump(tag_195)\n    tag_196:\n      dup3\n      add\n      swap2\n      swap1\n      0x00\n      mstore\n      keccak256(0x00, 0x20)\n      swap1\n    tag_197:\n      dup2\n      sload\n      dup2\n      mstore\n      swap1\n      0x01\n      add\n      swap1\n      0x20\n      add\n      dup1\n      dup4\n      gt\n      tag_197\n      jumpi\n      dup3\n      swap1\n      sub\n      0x1f\n      and\n      dup3\n      add\n      swap2\n    tag_195:\n      pop\n      pop\n      pop\n      pop\n      pop\n      swap1\n      dup1\n      0x03\n      add\n      sload\n      swap1\n      dup1\n      0x04\n      add\n      0x00\n      swap1\n      sload\n      swap1\n      0x0100\n      exp\n      swap1\n      div\n      0xffffffffffffffffffffffffffffffffffffffff\n      and\n      swap1\n      pop\n      dup8\n      jump\t// out\n        /* \"contracts/Vote.sol\":702:730  address public currentWinner */\n    tag_69:\n      0x05\n      0x00\n      swap1\n      sload\n      swap1\n      0x0100\n      exp\n      swap1\n      div\n      0xffffffffffffffffffffffffffffffffffffffff\n      and\n      dup2\n      jump\t// out\n        /* \"contracts/Vote.sol\":2965:3300  function endVoting() external onlyAdmin {... */\n    tag_73:\n        /* \"contracts/Vote.sol\":1180:1185  admin */\n      0x00\n      dup1\n      sload\n      swap1\n      0x0100\n      exp\n      swap1\n      div\n      0xffffffffffffffffffffffffffffffffffffffff\n      and\n        /* \"contracts/Vote.sol\":1166:1185  msg.sender == admin */\n      0xffffffffffffffffffffffffffffffffffffffff\n      and\n        /* \"contracts/Vote.sol\":1166:1176  msg.sender */\n      caller\n        /* \"contracts/Vote.sol\":1166:1185  msg.sender == admin */\n      0xffffffffffffffffffffffffffffffffffffffff\n      and\n      eq\n        /* \"contracts/Vote.sol\":1158:1224  require(msg.sender == admin, \"Only admin can perform this action\") */\n      tag_199\n      jumpi\n      mload(0x40)\n      0x08c379a000000000000000000000000000000000000000000000000000000000\n      dup2\n      mstore\n      0x04\n      add\n      tag_200\n      swap1\n      tag_96\n      jump\t// in\n    tag_200:\n      mload(0x40)\n      dup1\n      swap2\n      sub\n      swap1\n      revert\n    tag_199:\n        /* \"contracts/Vote.sol\":3024:3037  votingStarted */\n      0x00\n      0x14\n      swap1\n      sload\n      swap1\n      0x0100\n      exp\n      swap1\n      div\n      0xff\n      and\n        /* \"contracts/Vote.sol\":3016:3064  require(votingStarted, \"Voting has not started\") */\n      tag_202\n      jumpi\n      mload(0x40)\n      0x08c379a000000000000000000000000000000000000000000000000000000000\n      dup2\n      mstore\n      0x04\n      add\n      tag_203\n      swap1\n      tag_204\n      jump\t// in\n    tag_203:\n      mload(0x40)\n      dup1\n      swap2\n      sub\n      swap1\n      revert\n    tag_202:\n        /* \"contracts/Vote.sol\":3084:3095  votingEnded */\n      0x00\n      0x15\n      swap1\n      sload\n      swap1\n      0x0100\n      exp\n      swap1\n      div\n      0xff\n      and\n        /* \"contracts/Vote.sol\":3083:3095  !votingEnded */\n      iszero\n        /* \"contracts/Vote.sol\":3075:3124  require(!votingEnded, \"Voting has already ended\") */\n      tag_205\n      jumpi\n      mload(0x40)\n      0x08c379a000000000000000000000000000000000000000000000000000000000\n      dup2\n      mstore\n      0x04\n      add\n      tag_206\n      swap1\n      tag_207\n      jump\t// in\n    tag_206:\n      mload(0x40)\n      dup1\n      swap2\n      sub\n      swap1\n      revert\n    tag_205:\n        /* \"contracts/Vote.sol\":3151:3156  false */\n      0x00\n        /* \"contracts/Vote.sol\":3135:3148  votingStarted */\n      dup1\n      0x14\n        /* \"contracts/Vote.sol\":3135:3156  votingStarted = false */\n      0x0100\n      exp\n      dup2\n      sload\n      dup2\n      0xff\n      mul\n      not\n      and\n      swap1\n      dup4\n      iszero\n      iszero\n      mul\n      or\n      swap1\n      sstore\n      pop\n        /* \"contracts/Vote.sol\":3181:3185  true */\n      0x01\n        /* \"contracts/Vote.sol\":3167:3178  votingEnded */\n      0x00\n      0x15\n        /* \"contracts/Vote.sol\":3167:3185  votingEnded = true */\n      0x0100\n      exp\n      dup2\n      sload\n      dup2\n      0xff\n      mul\n      not\n      and\n      swap1\n      dup4\n      iszero\n      iszero\n      mul\n      or\n      swap1\n      sstore\n      pop\n        /* \"contracts/Vote.sol\":3198:3208  bool isTie */\n      0x00\n        /* \"contracts/Vote.sol\":3211:3224  checkForTie() */\n      tag_208\n        /* \"contracts/Vote.sol\":3211:3222  checkForTie */\n      tag_209\n        /* \"contracts/Vote.sol\":3211:3224  checkForTie() */\n      jump\t// in\n    tag_208:\n        /* \"contracts/Vote.sol\":3198:3224  bool isTie = checkForTie() */\n      swap1\n      pop\n        /* \"contracts/Vote.sol\":3242:3292  VotingEnded(currentWinner, currentMaxVotes, isTie) */\n      0x0bb2f19094bd5381446a0665b0e954deb7d3af8942be3623044de8e377001b59\n        /* \"contracts/Vote.sol\":3254:3267  currentWinner */\n      0x05\n      0x00\n      swap1\n      sload\n      swap1\n      0x0100\n      exp\n      swap1\n      div\n      0xffffffffffffffffffffffffffffffffffffffff\n      and\n        /* \"contracts/Vote.sol\":3269:3284  currentMaxVotes */\n      sload(0x06)\n        /* \"contracts/Vote.sol\":3286:3291  isTie */\n      dup4\n        /* \"contracts/Vote.sol\":3242:3292  VotingEnded(currentWinner, currentMaxVotes, isTie) */\n      mload(0x40)\n      tag_210\n      swap4\n      swap3\n      swap2\n      swap1\n      tag_86\n      jump\t// in\n    tag_210:\n      mload(0x40)\n      dup1\n      swap2\n      sub\n      swap1\n      log1\n        /* \"contracts/Vote.sol\":3005:3300  {... */\n      pop\n        /* \"contracts/Vote.sol\":2965:3300  function endVoting() external onlyAdmin {... */\n      jump\t// out\n        /* \"contracts/Vote.sol\":662:693  address[] public tiedCandidates */\n    tag_77:\n      0x04\n      dup2\n      dup2\n      sload\n      dup2\n      lt\n      tag_211\n      jumpi\n      0x00\n      dup1\n      revert\n    tag_211:\n      swap1\n      0x00\n      mstore\n      keccak256(0x00, 0x20)\n      add\n      0x00\n      swap2\n      pop\n      sload\n      swap1\n      0x0100\n      exp\n      swap1\n      div\n      0xffffffffffffffffffffffffffffffffffffffff\n      and\n      dup2\n      jump\t// out\n        /* \"contracts/Vote.sol\":624:655  address[] public candidatesList */\n    tag_81:\n      0x03\n      dup2\n      dup2\n      sload\n      dup2\n      lt\n      tag_213\n      jumpi\n      0x00\n      dup1\n      revert\n    tag_213:\n      swap1\n      0x00\n      mstore\n      keccak256(0x00, 0x20)\n      add\n      0x00\n      swap2\n      pop\n      sload\n      swap1\n      0x0100\n      exp\n      swap1\n      div\n      0xffffffffffffffffffffffffffffffffffffffff\n      and\n      dup2\n      jump\t// out\n        /* \"contracts/Vote.sol\":5089:5329  function getElectionResults() external view returns (address winner, uint maxVotes, bool isTie) {... */\n    tag_84:\n        /* \"contracts/Vote.sol\":5142:5156  address winner */\n      0x00\n        /* \"contracts/Vote.sol\":5158:5171  uint maxVotes */\n      dup1\n        /* \"contracts/Vote.sol\":5173:5183  bool isTie */\n      0x00\n        /* \"contracts/Vote.sol\":5204:5215  votingEnded */\n      dup1\n      0x15\n      swap1\n      sload\n      swap1\n      0x0100\n      exp\n      swap1\n      div\n      0xff\n      and\n        /* \"contracts/Vote.sol\":5196:5244  require(votingEnded, \"Voting has not ended yet\") */\n      tag_216\n      jumpi\n      mload(0x40)\n      0x08c379a000000000000000000000000000000000000000000000000000000000\n      dup2\n      mstore\n      0x04\n      add\n      tag_217\n      swap1\n      tag_218\n      jump\t// in\n    tag_217:\n      mload(0x40)\n      dup1\n      swap2\n      sub\n      swap1\n      revert\n    tag_216:\n        /* \"contracts/Vote.sol\":5263:5276  currentWinner */\n      0x05\n      0x00\n      swap1\n      sload\n      swap1\n      0x0100\n      exp\n      swap1\n      div\n      0xffffffffffffffffffffffffffffffffffffffff\n      and\n        /* \"contracts/Vote.sol\":5278:5293  currentMaxVotes */\n      sload(0x06)\n        /* \"contracts/Vote.sol\":5319:5320  1 */\n      0x01\n        /* \"contracts/Vote.sol\":5295:5309  tiedCandidates */\n      0x04\n        /* \"contracts/Vote.sol\":5295:5316  tiedCandidates.length */\n      dup1\n      sload\n      swap1\n      pop\n        /* \"contracts/Vote.sol\":5295:5320  tiedCandidates.length > 1 */\n      gt\n        /* \"contracts/Vote.sol\":5255:5321  return (currentWinner, currentMaxVotes, tiedCandidates.length > 1) */\n      swap3\n      pop\n      swap3\n      pop\n      swap3\n      pop\n        /* \"contracts/Vote.sol\":5089:5329  function getElectionResults() external view returns (address winner, uint maxVotes, bool isTie) {... */\n      swap1\n      swap2\n      swap3\n      jump\t// out\n        /* \"contracts/Vote.sol\":5337:5817  function getTiedCandidates() external view returns (Candidate[] memory) {... */\n    tag_88:\n        /* \"contracts/Vote.sol\":5389:5407  Candidate[] memory */\n      0x60\n        /* \"contracts/Vote.sol\":5428:5439  votingEnded */\n      0x00\n      0x15\n      swap1\n      sload\n      swap1\n      0x0100\n      exp\n      swap1\n      div\n      0xff\n      and\n        /* \"contracts/Vote.sol\":5420:5468  require(votingEnded, \"Voting has not ended yet\") */\n      tag_220\n      jumpi\n      mload(0x40)\n      0x08c379a000000000000000000000000000000000000000000000000000000000\n      dup2\n      mstore\n      0x04\n      add\n      tag_221\n      swap1\n      tag_218\n      jump\t// in\n    tag_221:\n      mload(0x40)\n      dup1\n      swap2\n      sub\n      swap1\n      revert\n    tag_220:\n        /* \"contracts/Vote.sol\":5511:5512  1 */\n      0x01\n        /* \"contracts/Vote.sol\":5487:5501  tiedCandidates */\n      0x04\n        /* \"contracts/Vote.sol\":5487:5508  tiedCandidates.length */\n      dup1\n      sload\n      swap1\n      pop\n        /* \"contracts/Vote.sol\":5487:5512  tiedCandidates.length > 1 */\n      gt\n        /* \"contracts/Vote.sol\":5479:5532  require(tiedCandidates.length > 1, \"No tie detected\") */\n      tag_222\n      jumpi\n      mload(0x40)\n      0x08c379a000000000000000000000000000000000000000000000000000000000\n      dup2\n      mstore\n      0x04\n      add\n      tag_223\n      swap1\n      tag_224\n      jump\t// in\n    tag_223:\n      mload(0x40)\n      dup1\n      swap2\n      sub\n      swap1\n      revert\n    tag_222:\n        /* \"contracts/Vote.sol\":5545:5585  Candidate[] memory tiedCandidatesDetails */\n      0x00\n        /* \"contracts/Vote.sol\":5604:5618  tiedCandidates */\n      0x04\n        /* \"contracts/Vote.sol\":5604:5625  tiedCandidates.length */\n      dup1\n      sload\n      swap1\n      pop\n        /* \"contracts/Vote.sol\":5588:5626  new Candidate[](tiedCandidates.length) */\n      0xffffffffffffffff\n      dup2\n      gt\n      iszero\n      tag_225\n      jumpi\n      tag_226\n      tag_104\n      jump\t// in\n    tag_226:\n    tag_225:\n      mload(0x40)\n      swap1\n      dup1\n      dup3\n      mstore\n      dup1\n      0x20\n      mul\n      0x20\n      add\n      dup3\n      add\n      0x40\n      mstore\n      dup1\n      iszero\n      tag_227\n      jumpi\n      dup2\n      0x20\n      add\n    tag_228:\n      tag_229\n      tag_108\n      jump\t// in\n    tag_229:\n      dup2\n      mstore\n      0x20\n      add\n      swap1\n      0x01\n      swap1\n      sub\n      swap1\n      dup2\n      tag_228\n      jumpi\n      swap1\n      pop\n    tag_227:\n      pop\n        /* \"contracts/Vote.sol\":5545:5626  Candidate[] memory tiedCandidatesDetails = new Candidate[](tiedCandidates.length) */\n      swap1\n      pop\n        /* \"contracts/Vote.sol\":5642:5648  uint i */\n      0x00\n        /* \"contracts/Vote.sol\":5637:5769  for (uint i = 0; i < tiedCandidates.length; i++) {... */\n    tag_230:\n        /* \"contracts/Vote.sol\":5658:5672  tiedCandidates */\n      0x04\n        /* \"contracts/Vote.sol\":5658:5679  tiedCandidates.length */\n      dup1\n      sload\n      swap1\n      pop\n        /* \"contracts/Vote.sol\":5654:5655  i */\n      dup2\n        /* \"contracts/Vote.sol\":5654:5679  i < tiedCandidates.length */\n      lt\n        /* \"contracts/Vote.sol\":5637:5769  for (uint i = 0; i < tiedCandidates.length; i++) {... */\n      iszero\n      tag_231\n      jumpi\n        /* \"contracts/Vote.sol\":5728:5738  candidates */\n      0x02\n        /* \"contracts/Vote.sol\":5728:5757  candidates[tiedCandidates[i]] */\n      0x00\n        /* \"contracts/Vote.sol\":5739:5753  tiedCandidates */\n      0x04\n        /* \"contracts/Vote.sol\":5754:5755  i */\n      dup4\n        /* \"contracts/Vote.sol\":5739:5756  tiedCandidates[i] */\n      dup2\n      sload\n      dup2\n      lt\n      tag_233\n      jumpi\n      tag_234\n      tag_114\n      jump\t// in\n    tag_234:\n    tag_233:\n      swap1\n      0x00\n      mstore\n      keccak256(0x00, 0x20)\n      add\n      0x00\n      swap1\n      sload\n      swap1\n      0x0100\n      exp\n      swap1\n      div\n      0xffffffffffffffffffffffffffffffffffffffff\n      and\n        /* \"contracts/Vote.sol\":5728:5757  candidates[tiedCandidates[i]] */\n      0xffffffffffffffffffffffffffffffffffffffff\n      and\n      0xffffffffffffffffffffffffffffffffffffffff\n      and\n      dup2\n      mstore\n      0x20\n      add\n      swap1\n      dup2\n      mstore\n      0x20\n      add\n      0x00\n      keccak256\n        /* \"contracts/Vote.sol\":5701:5757  tiedCandidatesDetails[i] = candidates[tiedCandidates[i]] */\n      mload(0x40)\n      dup1\n      0x80\n      add\n      0x40\n      mstore\n      swap1\n      dup2\n      0x00\n      dup3\n      add\n      dup1\n      sload\n      tag_236\n      swap1\n      tag_117\n      jump\t// in\n    tag_236:\n      dup1\n      0x1f\n      add\n      0x20\n      dup1\n      swap2\n      div\n      mul\n      0x20\n      add\n      mload(0x40)\n      swap1\n      dup2\n      add\n      0x40\n      mstore\n      dup1\n      swap3\n      swap2\n      swap1\n      dup2\n      dup2\n      mstore\n      0x20\n      add\n      dup3\n      dup1\n      sload\n      tag_237\n      swap1\n      tag_117\n      jump\t// in\n    tag_237:\n      dup1\n      iszero\n      tag_238\n      jumpi\n      dup1\n      0x1f\n      lt\n      tag_239\n      jumpi\n      0x0100\n      dup1\n      dup4\n      sload\n      div\n      mul\n      dup4\n      mstore\n      swap2\n      0x20\n      add\n      swap2\n      jump(tag_238)\n    tag_239:\n      dup3\n      add\n      swap2\n      swap1\n      0x00\n      mstore\n      keccak256(0x00, 0x20)\n      swap1\n    tag_240:\n      dup2\n      sload\n      dup2\n      mstore\n      swap1\n      0x01\n      add\n      swap1\n      0x20\n      add\n      dup1\n      dup4\n      gt\n      tag_240\n      jumpi\n      dup3\n      swap1\n      sub\n      0x1f\n      and\n      dup3\n      add\n      swap2\n    tag_238:\n      pop\n      pop\n      pop\n      pop\n      pop\n      dup2\n      mstore\n      0x20\n      add\n      0x01\n      dup3\n      add\n      0x00\n      swap1\n      sload\n      swap1\n      0x0100\n      exp\n      swap1\n      div\n      0xffffffffffffffffffffffffffffffffffffffff\n      and\n      0xffffffffffffffffffffffffffffffffffffffff\n      and\n      0xffffffffffffffffffffffffffffffffffffffff\n      and\n      dup2\n      mstore\n      0x20\n      add\n      0x02\n      dup3\n      add\n      sload\n      dup2\n      mstore\n      0x20\n      add\n      0x03\n      dup3\n      add\n      dup1\n      sload\n      tag_241\n      swap1\n      tag_117\n      jump\t// in\n    tag_241:\n      dup1\n      0x1f\n      add\n      0x20\n      dup1\n      swap2\n      div\n      mul\n      0x20\n      add\n      mload(0x40)\n      swap1\n      dup2\n      add\n      0x40\n      mstore\n      dup1\n      swap3\n      swap2\n      swap1\n      dup2\n      dup2\n      mstore\n      0x20\n      add\n      dup3\n      dup1\n      sload\n      tag_242\n      swap1\n      tag_117\n      jump\t// in\n    tag_242:\n      dup1\n      iszero\n      tag_243\n      jumpi\n      dup1\n      0x1f\n      lt\n      tag_244\n      jumpi\n      0x0100\n      dup1\n      dup4\n      sload\n      div\n      mul\n      dup4\n      mstore\n      swap2\n      0x20\n      add\n      swap2\n      jump(tag_243)\n    tag_244:\n      dup3\n      add\n      swap2\n      swap1\n      0x00\n      mstore\n      keccak256(0x00, 0x20)\n      swap1\n    tag_245:\n      dup2\n      sload\n      dup2\n      mstore\n      swap1\n      0x01\n      add\n      swap1\n      0x20\n      add\n      dup1\n      dup4\n      gt\n      tag_245\n      jumpi\n      dup3\n      swap1\n      sub\n      0x1f\n      and\n      dup3\n      add\n      swap2\n    tag_243:\n      pop\n      pop\n      pop\n      pop\n      pop\n      dup2\n      mstore\n      pop\n      pop\n        /* \"contracts/Vote.sol\":5701:5722  tiedCandidatesDetails */\n      dup3\n        /* \"contracts/Vote.sol\":5723:5724  i */\n      dup3\n        /* \"contracts/Vote.sol\":5701:5725  tiedCandidatesDetails[i] */\n      dup2\n      mload\n      dup2\n      lt\n      tag_246\n      jumpi\n      tag_247\n      tag_114\n      jump\t// in\n    tag_247:\n    tag_246:\n      0x20\n      mul\n      0x20\n      add\n      add\n        /* \"contracts/Vote.sol\":5701:5757  tiedCandidatesDetails[i] = candidates[tiedCandidates[i]] */\n      dup2\n      swap1\n      mstore\n      pop\n        /* \"contracts/Vote.sol\":5681:5684  i++ */\n      dup1\n      dup1\n      0x01\n      add\n      swap2\n      pop\n      pop\n        /* \"contracts/Vote.sol\":5637:5769  for (uint i = 0; i < tiedCandidates.length; i++) {... */\n      jump(tag_230)\n    tag_231:\n      pop\n        /* \"contracts/Vote.sol\":5788:5809  tiedCandidatesDetails */\n      dup1\n        /* \"contracts/Vote.sol\":5781:5809  return tiedCandidatesDetails */\n      swap2\n      pop\n      pop\n        /* \"contracts/Vote.sol\":5337:5817  function getTiedCandidates() external view returns (Candidate[] memory) {... */\n      swap1\n      jump\t// out\n        /* \"contracts/Vote.sol\":83:103  address public admin */\n    tag_91:\n      0x00\n      dup1\n      sload\n      swap1\n      0x0100\n      exp\n      swap1\n      div\n      0xffffffffffffffffffffffffffffffffffffffff\n      and\n      dup2\n      jump\t// out\n        /* \"contracts/Vote.sol\":4423:5081  function checkForTie() internal returns (bool) {... */\n    tag_209:\n        /* \"contracts/Vote.sol\":4464:4468  bool */\n      0x00\n        /* \"contracts/Vote.sol\":4481:4502  uint highestVoteCount */\n      dup1\n        /* \"contracts/Vote.sol\":4505:4506  0 */\n      0x00\n        /* \"contracts/Vote.sol\":4481:4506  uint highestVoteCount = 0 */\n      swap1\n      pop\n        /* \"contracts/Vote.sol\":4524:4538  tiedCandidates */\n      0x04\n      0x00\n        /* \"contracts/Vote.sol\":4517:4538  delete tiedCandidates */\n      tag_249\n      swap2\n      swap1\n      tag_250\n      jump\t// in\n    tag_249:\n        /* \"contracts/Vote.sol\":4556:4562  uint i */\n      0x00\n        /* \"contracts/Vote.sol\":4551:5029  for (uint i = 0; i < candidatesList.length; i++) {... */\n    tag_251:\n        /* \"contracts/Vote.sol\":4572:4586  candidatesList */\n      0x03\n        /* \"contracts/Vote.sol\":4572:4593  candidatesList.length */\n      dup1\n      sload\n      swap1\n      pop\n        /* \"contracts/Vote.sol\":4568:4569  i */\n      dup2\n        /* \"contracts/Vote.sol\":4568:4593  i < candidatesList.length */\n      lt\n        /* \"contracts/Vote.sol\":4551:5029  for (uint i = 0; i < candidatesList.length; i++) {... */\n      iszero\n      tag_252\n      jumpi\n        /* \"contracts/Vote.sol\":4615:4636  address candidateAddr */\n      0x00\n        /* \"contracts/Vote.sol\":4639:4653  candidatesList */\n      0x03\n        /* \"contracts/Vote.sol\":4654:4655  i */\n      dup3\n        /* \"contracts/Vote.sol\":4639:4656  candidatesList[i] */\n      dup2\n      sload\n      dup2\n      lt\n      tag_254\n      jumpi\n      tag_255\n      tag_114\n      jump\t// in\n    tag_255:\n    tag_254:\n      swap1\n      0x00\n      mstore\n      keccak256(0x00, 0x20)\n      add\n      0x00\n      swap1\n      sload\n      swap1\n      0x0100\n      exp\n      swap1\n      div\n      0xffffffffffffffffffffffffffffffffffffffff\n      and\n        /* \"contracts/Vote.sol\":4615:4656  address candidateAddr = candidatesList[i] */\n      swap1\n      pop\n        /* \"contracts/Vote.sol\":4671:4690  uint candidateVotes */\n      0x00\n        /* \"contracts/Vote.sol\":4693:4703  candidates */\n      0x02\n        /* \"contracts/Vote.sol\":4693:4718  candidates[candidateAddr] */\n      0x00\n        /* \"contracts/Vote.sol\":4704:4717  candidateAddr */\n      dup4\n        /* \"contracts/Vote.sol\":4693:4718  candidates[candidateAddr] */\n      0xffffffffffffffffffffffffffffffffffffffff\n      and\n      0xffffffffffffffffffffffffffffffffffffffff\n      and\n      dup2\n      mstore\n      0x20\n      add\n      swap1\n      dup2\n      mstore\n      0x20\n      add\n      0x00\n      keccak256\n        /* \"contracts/Vote.sol\":4693:4728  candidates[candidateAddr].voteCount */\n      0x02\n      add\n      sload\n        /* \"contracts/Vote.sol\":4671:4728  uint candidateVotes = candidates[candidateAddr].voteCount */\n      swap1\n      pop\n        /* \"contracts/Vote.sol\":4766:4782  highestVoteCount */\n      dup4\n        /* \"contracts/Vote.sol\":4749:4763  candidateVotes */\n      dup2\n        /* \"contracts/Vote.sol\":4749:4782  candidateVotes > highestVoteCount */\n      gt\n        /* \"contracts/Vote.sol\":4745:5018  if (candidateVotes > highestVoteCount) {... */\n      iszero\n      tag_257\n      jumpi\n        /* \"contracts/Vote.sol\":4822:4836  candidateVotes */\n      dup1\n        /* \"contracts/Vote.sol\":4803:4836  highestVoteCount = candidateVotes */\n      swap4\n      pop\n        /* \"contracts/Vote.sol\":4855:4887  tiedCandidates = [candidateAddr] */\n      mload(0x40)\n      dup1\n      0x20\n      add\n      0x40\n      mstore\n      dup1\n        /* \"contracts/Vote.sol\":4873:4886  candidateAddr */\n      dup4\n        /* \"contracts/Vote.sol\":4855:4887  tiedCandidates = [candidateAddr] */\n      0xffffffffffffffffffffffffffffffffffffffff\n      and\n      0xffffffffffffffffffffffffffffffffffffffff\n      and\n      dup2\n      mstore\n      pop\n        /* \"contracts/Vote.sol\":4855:4869  tiedCandidates */\n      0x04\n        /* \"contracts/Vote.sol\":4855:4887  tiedCandidates = [candidateAddr] */\n      swap1\n      0x01\n      tag_258\n      swap3\n      swap2\n      swap1\n      tag_259\n      jump\t// in\n    tag_258:\n      pop\n        /* \"contracts/Vote.sol\":4745:5018  if (candidateVotes > highestVoteCount) {... */\n      jump(tag_260)\n    tag_257:\n        /* \"contracts/Vote.sol\":4931:4947  highestVoteCount */\n      dup4\n        /* \"contracts/Vote.sol\":4913:4927  candidateVotes */\n      dup2\n        /* \"contracts/Vote.sol\":4913:4947  candidateVotes == highestVoteCount */\n      sub\n        /* \"contracts/Vote.sol\":4909:5018  if (candidateVotes == highestVoteCount) {... */\n      tag_261\n      jumpi\n        /* \"contracts/Vote.sol\":4968:4982  tiedCandidates */\n      0x04\n        /* \"contracts/Vote.sol\":4988:5001  candidateAddr */\n      dup3\n        /* \"contracts/Vote.sol\":4968:5002  tiedCandidates.push(candidateAddr) */\n      swap1\n      dup1\n      0x01\n      dup2\n      sload\n      add\n      dup1\n      dup3\n      sstore\n      dup1\n      swap2\n      pop\n      pop\n      0x01\n      swap1\n      sub\n      swap1\n      0x00\n      mstore\n      keccak256(0x00, 0x20)\n      add\n      0x00\n      swap1\n      swap2\n      swap1\n      swap2\n      swap1\n      swap2\n      0x0100\n      exp\n      dup2\n      sload\n      dup2\n      0xffffffffffffffffffffffffffffffffffffffff\n      mul\n      not\n      and\n      swap1\n      dup4\n      0xffffffffffffffffffffffffffffffffffffffff\n      and\n      mul\n      or\n      swap1\n      sstore\n      pop\n        /* \"contracts/Vote.sol\":4909:5018  if (candidateVotes == highestVoteCount) {... */\n    tag_261:\n        /* \"contracts/Vote.sol\":4745:5018  if (candidateVotes > highestVoteCount) {... */\n    tag_260:\n        /* \"contracts/Vote.sol\":4600:5029  {... */\n      pop\n      pop\n        /* \"contracts/Vote.sol\":4595:4598  i++ */\n      dup1\n      dup1\n      0x01\n      add\n      swap2\n      pop\n      pop\n        /* \"contracts/Vote.sol\":4551:5029  for (uint i = 0; i < candidatesList.length; i++) {... */\n      jump(tag_251)\n    tag_252:\n      pop\n        /* \"contracts/Vote.sol\":5072:5073  1 */\n      0x01\n        /* \"contracts/Vote.sol\":5048:5062  tiedCandidates */\n      0x04\n        /* \"contracts/Vote.sol\":5048:5069  tiedCandidates.length */\n      dup1\n      sload\n      swap1\n      pop\n        /* \"contracts/Vote.sol\":5048:5073  tiedCandidates.length > 1 */\n      gt\n        /* \"contracts/Vote.sol\":5041:5073  return tiedCandidates.length > 1 */\n      swap2\n      pop\n      pop\n        /* \"contracts/Vote.sol\":4423:5081  function checkForTie() internal returns (bool) {... */\n      swap1\n      jump\t// out\n    tag_108:\n      mload(0x40)\n      dup1\n      0x80\n      add\n      0x40\n      mstore\n      dup1\n      0x60\n      dup2\n      mstore\n      0x20\n      add\n      and(0xffffffffffffffffffffffffffffffffffffffff, 0x00)\n      dup2\n      mstore\n      0x20\n      add\n      0x00\n      dup2\n      mstore\n      0x20\n      add\n      0x60\n      dup2\n      mstore\n      pop\n      swap1\n      jump\t// out\n    tag_250:\n      pop\n      dup1\n      sload\n      0x00\n      dup3\n      sstore\n      swap1\n      0x00\n      mstore\n      keccak256(0x00, 0x20)\n      swap1\n      dup2\n      add\n      swap1\n      tag_264\n      swap2\n      swap1\n      tag_265\n      jump\t// in\n    tag_264:\n      pop\n      jump\t// out\n    tag_259:\n      dup3\n      dup1\n      sload\n      dup3\n      dup3\n      sstore\n      swap1\n      0x00\n      mstore\n      keccak256(0x00, 0x20)\n      swap1\n      dup2\n      add\n      swap3\n      dup3\n      iszero\n      tag_266\n      jumpi\n      swap2\n      0x20\n      mul\n      dup3\n      add\n    tag_267:\n      dup3\n      dup2\n      gt\n      iszero\n      tag_268\n      jumpi\n      dup3\n      mload\n      dup3\n      exp(0x0100, 0x00)\n      dup2\n      sload\n      dup2\n      0xffffffffffffffffffffffffffffffffffffffff\n      mul\n      not\n      and\n      swap1\n      dup4\n      0xffffffffffffffffffffffffffffffffffffffff\n      and\n      mul\n      or\n      swap1\n      sstore\n      pop\n      swap2\n      0x20\n      add\n      swap2\n      swap1\n      0x01\n      add\n      swap1\n      jump(tag_267)\n    tag_268:\n    tag_266:\n      pop\n      swap1\n      pop\n      tag_269\n      swap2\n      swap1\n      tag_265\n      jump\t// in\n    tag_269:\n      pop\n      swap1\n      jump\t// out\n    tag_265:\n    tag_270:\n      dup1\n      dup3\n      gt\n      iszero\n      tag_271\n      jumpi\n      0x00\n      dup2\n      0x00\n      swap1\n      sstore\n      pop\n      0x01\n      add\n      jump(tag_270)\n    tag_271:\n      pop\n      swap1\n      jump\t// out\n        /* \"#utility.yul\":7:146   */\n    tag_272:\n        /* \"#utility.yul\":99:105   */\n      0x00\n        /* \"#utility.yul\":133:138   */\n      dup2\n        /* \"#utility.yul\":127:139   */\n      mload\n        /* \"#utility.yul\":117:139   */\n      swap1\n      pop\n        /* \"#utility.yul\":7:146   */\n      swap2\n      swap1\n      pop\n      jump\t// out\n        /* \"#utility.yul\":152:361   */\n    tag_273:\n        /* \"#utility.yul\":276:287   */\n      0x00\n        /* \"#utility.yul\":310:316   */\n      dup3\n        /* \"#utility.yul\":305:308   */\n      dup3\n        /* \"#utility.yul\":298:317   */\n      mstore\n        /* \"#utility.yul\":350:354   */\n      0x20\n        /* \"#utility.yul\":345:348   */\n      dup3\n        /* \"#utility.yul\":341:355   */\n      add\n        /* \"#utility.yul\":326:355   */\n      swap1\n      pop\n        /* \"#utility.yul\":152:361   */\n      swap3\n      swap2\n      pop\n      pop\n      jump\t// out\n        /* \"#utility.yul\":367:524   */\n    tag_274:\n        /* \"#utility.yul\":459:463   */\n      0x00\n        /* \"#utility.yul\":482:485   */\n      dup2\n        /* \"#utility.yul\":474:485   */\n      swap1\n      pop\n        /* \"#utility.yul\":512:516   */\n      0x20\n        /* \"#utility.yul\":507:510   */\n      dup3\n        /* \"#utility.yul\":503:517   */\n      add\n        /* \"#utility.yul\":495:517   */\n      swap1\n      pop\n        /* \"#utility.yul\":367:524   */\n      swap2\n      swap1\n      pop\n      jump\t// out\n        /* \"#utility.yul\":530:629   */\n    tag_275:\n        /* \"#utility.yul\":582:588   */\n      0x00\n        /* \"#utility.yul\":616:621   */\n      dup2\n        /* \"#utility.yul\":610:622   */\n      mload\n        /* \"#utility.yul\":600:622   */\n      swap1\n      pop\n        /* \"#utility.yul\":530:629   */\n      swap2\n      swap1\n      pop\n      jump\t// out\n        /* \"#utility.yul\":635:794   */\n    tag_276:\n        /* \"#utility.yul\":709:720   */\n      0x00\n        /* \"#utility.yul\":743:749   */\n      dup3\n        /* \"#utility.yul\":738:741   */\n      dup3\n        /* \"#utility.yul\":731:750   */\n      mstore\n        /* \"#utility.yul\":783:787   */\n      0x20\n        /* \"#utility.yul\":778:781   */\n      dup3\n        /* \"#utility.yul\":774:788   */\n      add\n        /* \"#utility.yul\":759:788   */\n      swap1\n      pop\n        /* \"#utility.yul\":635:794   */\n      swap3\n      swap2\n      pop\n      pop\n      jump\t// out\n        /* \"#utility.yul\":800:939   */\n    tag_277:\n        /* \"#utility.yul\":889:895   */\n      dup3\n        /* \"#utility.yul\":884:887   */\n      dup2\n        /* \"#utility.yul\":879:882   */\n      dup4\n        /* \"#utility.yul\":873:896   */\n      mcopy\n        /* \"#utility.yul\":930:931   */\n      0x00\n        /* \"#utility.yul\":921:927   */\n      dup4\n        /* \"#utility.yul\":916:919   */\n      dup4\n        /* \"#utility.yul\":912:928   */\n      add\n        /* \"#utility.yul\":905:932   */\n      mstore\n        /* \"#utility.yul\":800:939   */\n      pop\n      pop\n      pop\n      jump\t// out\n        /* \"#utility.yul\":945:1047   */\n    tag_278:\n        /* \"#utility.yul\":986:992   */\n      0x00\n        /* \"#utility.yul\":1037:1039   */\n      0x1f\n        /* \"#utility.yul\":1033:1040   */\n      not\n        /* \"#utility.yul\":1028:1030   */\n      0x1f\n        /* \"#utility.yul\":1021:1026   */\n      dup4\n        /* \"#utility.yul\":1017:1031   */\n      add\n        /* \"#utility.yul\":1013:1041   */\n      and\n        /* \"#utility.yul\":1003:1041   */\n      swap1\n      pop\n        /* \"#utility.yul\":945:1047   */\n      swap2\n      swap1\n      pop\n      jump\t// out\n        /* \"#utility.yul\":1053:1410   */\n    tag_279:\n        /* \"#utility.yul\":1131:1134   */\n      0x00\n        /* \"#utility.yul\":1159:1198   */\n      tag_363\n        /* \"#utility.yul\":1192:1197   */\n      dup3\n        /* \"#utility.yul\":1159:1198   */\n      tag_275\n      jump\t// in\n    tag_363:\n        /* \"#utility.yul\":1214:1275   */\n      tag_364\n        /* \"#utility.yul\":1268:1274   */\n      dup2\n        /* \"#utility.yul\":1263:1266   */\n      dup6\n        /* \"#utility.yul\":1214:1275   */\n      tag_276\n      jump\t// in\n    tag_364:\n        /* \"#utility.yul\":1207:1275   */\n      swap4\n      pop\n        /* \"#utility.yul\":1284:1349   */\n      tag_365\n        /* \"#utility.yul\":1342:1348   */\n      dup2\n        /* \"#utility.yul\":1337:1340   */\n      dup6\n        /* \"#utility.yul\":1330:1334   */\n      0x20\n        /* \"#utility.yul\":1323:1328   */\n      dup7\n        /* \"#utility.yul\":1319:1335   */\n      add\n        /* \"#utility.yul\":1284:1349   */\n      tag_277\n      jump\t// in\n    tag_365:\n        /* \"#utility.yul\":1374:1403   */\n      tag_366\n        /* \"#utility.yul\":1396:1402   */\n      dup2\n        /* \"#utility.yul\":1374:1403   */\n      tag_278\n      jump\t// in\n    tag_366:\n        /* \"#utility.yul\":1369:1372   */\n      dup5\n        /* \"#utility.yul\":1365:1404   */\n      add\n        /* \"#utility.yul\":1358:1404   */\n      swap2\n      pop\n        /* \"#utility.yul\":1135:1410   */\n      pop\n        /* \"#utility.yul\":1053:1410   */\n      swap3\n      swap2\n      pop\n      pop\n      jump\t// out\n        /* \"#utility.yul\":1416:1542   */\n    tag_280:\n        /* \"#utility.yul\":1453:1460   */\n      0x00\n        /* \"#utility.yul\":1493:1535   */\n      0xffffffffffffffffffffffffffffffffffffffff\n        /* \"#utility.yul\":1486:1491   */\n      dup3\n        /* \"#utility.yul\":1482:1536   */\n      and\n        /* \"#utility.yul\":1471:1536   */\n      swap1\n      pop\n        /* \"#utility.yul\":1416:1542   */\n      swap2\n      swap1\n      pop\n      jump\t// out\n        /* \"#utility.yul\":1548:1644   */\n    tag_281:\n        /* \"#utility.yul\":1585:1592   */\n      0x00\n        /* \"#utility.yul\":1614:1638   */\n      tag_369\n        /* \"#utility.yul\":1632:1637   */\n      dup3\n        /* \"#utility.yul\":1614:1638   */\n      tag_280\n      jump\t// in\n    tag_369:\n        /* \"#utility.yul\":1603:1638   */\n      swap1\n      pop\n        /* \"#utility.yul\":1548:1644   */\n      swap2\n      swap1\n      pop\n      jump\t// out\n        /* \"#utility.yul\":1650:1758   */\n    tag_282:\n        /* \"#utility.yul\":1727:1751   */\n      tag_371\n        /* \"#utility.yul\":1745:1750   */\n      dup2\n        /* \"#utility.yul\":1727:1751   */\n      tag_281\n      jump\t// in\n    tag_371:\n        /* \"#utility.yul\":1722:1725   */\n      dup3\n        /* \"#utility.yul\":1715:1752   */\n      mstore\n        /* \"#utility.yul\":1650:1758   */\n      pop\n      pop\n      jump\t// out\n        /* \"#utility.yul\":1764:1841   */\n    tag_283:\n        /* \"#utility.yul\":1801:1808   */\n      0x00\n        /* \"#utility.yul\":1830:1835   */\n      dup2\n        /* \"#utility.yul\":1819:1835   */\n      swap1\n      pop\n        /* \"#utility.yul\":1764:1841   */\n      swap2\n      swap1\n      pop\n      jump\t// out\n        /* \"#utility.yul\":1847:1955   */\n    tag_284:\n        /* \"#utility.yul\":1924:1948   */\n      tag_374\n        /* \"#utility.yul\":1942:1947   */\n      dup2\n        /* \"#utility.yul\":1924:1948   */\n      tag_283\n      jump\t// in\n    tag_374:\n        /* \"#utility.yul\":1919:1922   */\n      dup3\n        /* \"#utility.yul\":1912:1949   */\n      mstore\n        /* \"#utility.yul\":1847:1955   */\n      pop\n      pop\n      jump\t// out\n        /* \"#utility.yul\":2019:3056   */\n    tag_285:\n        /* \"#utility.yul\":2128:2131   */\n      0x00\n        /* \"#utility.yul\":2164:2168   */\n      0x80\n        /* \"#utility.yul\":2159:2162   */\n      dup4\n        /* \"#utility.yul\":2155:2169   */\n      add\n        /* \"#utility.yul\":2251:2255   */\n      0x00\n        /* \"#utility.yul\":2244:2249   */\n      dup4\n        /* \"#utility.yul\":2240:2256   */\n      add\n        /* \"#utility.yul\":2234:2257   */\n      mload\n        /* \"#utility.yul\":2304:2307   */\n      dup5\n        /* \"#utility.yul\":2298:2302   */\n      dup3\n        /* \"#utility.yul\":2294:2308   */\n      sub\n        /* \"#utility.yul\":2287:2291   */\n      0x00\n        /* \"#utility.yul\":2282:2285   */\n      dup7\n        /* \"#utility.yul\":2278:2292   */\n      add\n        /* \"#utility.yul\":2271:2309   */\n      mstore\n        /* \"#utility.yul\":2330:2403   */\n      tag_376\n        /* \"#utility.yul\":2398:2402   */\n      dup3\n        /* \"#utility.yul\":2384:2396   */\n      dup3\n        /* \"#utility.yul\":2330:2403   */\n      tag_279\n      jump\t// in\n    tag_376:\n        /* \"#utility.yul\":2322:2403   */\n      swap2\n      pop\n        /* \"#utility.yul\":2179:2414   */\n      pop\n        /* \"#utility.yul\":2508:2512   */\n      0x20\n        /* \"#utility.yul\":2501:2506   */\n      dup4\n        /* \"#utility.yul\":2497:2513   */\n      add\n        /* \"#utility.yul\":2491:2514   */\n      mload\n        /* \"#utility.yul\":2527:2590   */\n      tag_377\n        /* \"#utility.yul\":2584:2588   */\n      0x20\n        /* \"#utility.yul\":2579:2582   */\n      dup7\n        /* \"#utility.yul\":2575:2589   */\n      add\n        /* \"#utility.yul\":2561:2573   */\n      dup3\n        /* \"#utility.yul\":2527:2590   */\n      tag_282\n      jump\t// in\n    tag_377:\n        /* \"#utility.yul\":2424:2600   */\n      pop\n        /* \"#utility.yul\":2687:2691   */\n      0x40\n        /* \"#utility.yul\":2680:2685   */\n      dup4\n        /* \"#utility.yul\":2676:2692   */\n      add\n        /* \"#utility.yul\":2670:2693   */\n      mload\n        /* \"#utility.yul\":2706:2769   */\n      tag_378\n        /* \"#utility.yul\":2763:2767   */\n      0x40\n        /* \"#utility.yul\":2758:2761   */\n      dup7\n        /* \"#utility.yul\":2754:2768   */\n      add\n        /* \"#utility.yul\":2740:2752   */\n      dup3\n        /* \"#utility.yul\":2706:2769   */\n      tag_284\n      jump\t// in\n    tag_378:\n        /* \"#utility.yul\":2610:2779   */\n      pop\n        /* \"#utility.yul\":2866:2870   */\n      0x60\n        /* \"#utility.yul\":2859:2864   */\n      dup4\n        /* \"#utility.yul\":2855:2871   */\n      add\n        /* \"#utility.yul\":2849:2872   */\n      mload\n        /* \"#utility.yul\":2919:2922   */\n      dup5\n        /* \"#utility.yul\":2913:2917   */\n      dup3\n        /* \"#utility.yul\":2909:2923   */\n      sub\n        /* \"#utility.yul\":2902:2906   */\n      0x60\n        /* \"#utility.yul\":2897:2900   */\n      dup7\n        /* \"#utility.yul\":2893:2907   */\n      add\n        /* \"#utility.yul\":2886:2924   */\n      mstore\n        /* \"#utility.yul\":2945:3018   */\n      tag_379\n        /* \"#utility.yul\":3013:3017   */\n      dup3\n        /* \"#utility.yul\":2999:3011   */\n      dup3\n        /* \"#utility.yul\":2945:3018   */\n      tag_279\n      jump\t// in\n    tag_379:\n        /* \"#utility.yul\":2937:3018   */\n      swap2\n      pop\n        /* \"#utility.yul\":2789:3029   */\n      pop\n        /* \"#utility.yul\":3046:3050   */\n      dup1\n        /* \"#utility.yul\":3039:3050   */\n      swap2\n      pop\n        /* \"#utility.yul\":2133:3056   */\n      pop\n        /* \"#utility.yul\":2019:3056   */\n      swap3\n      swap2\n      pop\n      pop\n      jump\t// out\n        /* \"#utility.yul\":3062:3318   */\n    tag_286:\n        /* \"#utility.yul\":3181:3191   */\n      0x00\n        /* \"#utility.yul\":3216:3312   */\n      tag_381\n        /* \"#utility.yul\":3308:3311   */\n      dup4\n        /* \"#utility.yul\":3300:3306   */\n      dup4\n        /* \"#utility.yul\":3216:3312   */\n      tag_285\n      jump\t// in\n    tag_381:\n        /* \"#utility.yul\":3202:3312   */\n      swap1\n      pop\n        /* \"#utility.yul\":3062:3318   */\n      swap3\n      swap2\n      pop\n      pop\n      jump\t// out\n        /* \"#utility.yul\":3324:3462   */\n    tag_287:\n        /* \"#utility.yul\":3419:3423   */\n      0x00\n        /* \"#utility.yul\":3451:3455   */\n      0x20\n        /* \"#utility.yul\":3446:3449   */\n      dup3\n        /* \"#utility.yul\":3442:3456   */\n      add\n        /* \"#utility.yul\":3434:3456   */\n      swap1\n      pop\n        /* \"#utility.yul\":3324:3462   */\n      swap2\n      swap1\n      pop\n      jump\t// out\n        /* \"#utility.yul\":3530:4641   */\n    tag_288:\n        /* \"#utility.yul\":3699:3702   */\n      0x00\n        /* \"#utility.yul\":3728:3807   */\n      tag_384\n        /* \"#utility.yul\":3801:3806   */\n      dup3\n        /* \"#utility.yul\":3728:3807   */\n      tag_272\n      jump\t// in\n    tag_384:\n        /* \"#utility.yul\":3823:3934   */\n      tag_385\n        /* \"#utility.yul\":3927:3933   */\n      dup2\n        /* \"#utility.yul\":3922:3925   */\n      dup6\n        /* \"#utility.yul\":3823:3934   */\n      tag_273\n      jump\t// in\n    tag_385:\n        /* \"#utility.yul\":3816:3934   */\n      swap4\n      pop\n        /* \"#utility.yul\":3960:3963   */\n      dup4\n        /* \"#utility.yul\":4005:4009   */\n      0x20\n        /* \"#utility.yul\":3997:4003   */\n      dup3\n        /* \"#utility.yul\":3993:4010   */\n      mul\n        /* \"#utility.yul\":3988:3991   */\n      dup6\n        /* \"#utility.yul\":3984:4011   */\n      add\n        /* \"#utility.yul\":4035:4116   */\n      tag_386\n        /* \"#utility.yul\":4110:4115   */\n      dup6\n        /* \"#utility.yul\":4035:4116   */\n      tag_274\n      jump\t// in\n    tag_386:\n        /* \"#utility.yul\":4139:4146   */\n      dup1\n        /* \"#utility.yul\":4170:4171   */\n      0x00\n        /* \"#utility.yul\":4155:4596   */\n    tag_387:\n        /* \"#utility.yul\":4180:4186   */\n      dup6\n        /* \"#utility.yul\":4177:4178   */\n      dup2\n        /* \"#utility.yul\":4174:4187   */\n      lt\n        /* \"#utility.yul\":4155:4596   */\n      iszero\n      tag_389\n      jumpi\n        /* \"#utility.yul\":4251:4260   */\n      dup5\n        /* \"#utility.yul\":4245:4249   */\n      dup5\n        /* \"#utility.yul\":4241:4261   */\n      sub\n        /* \"#utility.yul\":4236:4239   */\n      dup10\n        /* \"#utility.yul\":4229:4262   */\n      mstore\n        /* \"#utility.yul\":4302:4308   */\n      dup2\n        /* \"#utility.yul\":4296:4309   */\n      mload\n        /* \"#utility.yul\":4330:4444   */\n      tag_390\n        /* \"#utility.yul\":4439:4443   */\n      dup6\n        /* \"#utility.yul\":4424:4437   */\n      dup3\n        /* \"#utility.yul\":4330:4444   */\n      tag_286\n      jump\t// in\n    tag_390:\n        /* \"#utility.yul\":4322:4444   */\n      swap5\n      pop\n        /* \"#utility.yul\":4467:4552   */\n      tag_391\n        /* \"#utility.yul\":4545:4551   */\n      dup4\n        /* \"#utility.yul\":4467:4552   */\n      tag_287\n      jump\t// in\n    tag_391:\n        /* \"#utility.yul\":4457:4552   */\n      swap3\n      pop\n        /* \"#utility.yul\":4581:4585   */\n      0x20\n        /* \"#utility.yul\":4576:4579   */\n      dup11\n        /* \"#utility.yul\":4572:4586   */\n      add\n        /* \"#utility.yul\":4565:4586   */\n      swap10\n      pop\n        /* \"#utility.yul\":4215:4596   */\n      pop\n        /* \"#utility.yul\":4202:4203   */\n      0x01\n        /* \"#utility.yul\":4199:4200   */\n      dup2\n        /* \"#utility.yul\":4195:4204   */\n      add\n        /* \"#utility.yul\":4190:4204   */\n      swap1\n      pop\n        /* \"#utility.yul\":4155:4596   */\n      jump(tag_387)\n    tag_389:\n        /* \"#utility.yul\":4159:4173   */\n      pop\n        /* \"#utility.yul\":4612:4616   */\n      dup3\n        /* \"#utility.yul\":4605:4616   */\n      swap8\n      pop\n        /* \"#utility.yul\":4632:4635   */\n      dup8\n        /* \"#utility.yul\":4625:4635   */\n      swap6\n      pop\n        /* \"#utility.yul\":3704:4641   */\n      pop\n      pop\n      pop\n      pop\n      pop\n        /* \"#utility.yul\":3530:4641   */\n      swap3\n      swap2\n      pop\n      pop\n      jump\t// out\n        /* \"#utility.yul\":4647:5120   */\n    tag_29:\n        /* \"#utility.yul\":4840:4844   */\n      0x00\n        /* \"#utility.yul\":4878:4880   */\n      0x20\n        /* \"#utility.yul\":4867:4876   */\n      dup3\n        /* \"#utility.yul\":4863:4881   */\n      add\n        /* \"#utility.yul\":4855:4881   */\n      swap1\n      pop\n        /* \"#utility.yul\":4927:4936   */\n      dup2\n        /* \"#utility.yul\":4921:4925   */\n      dup2\n        /* \"#utility.yul\":4917:4937   */\n      sub\n        /* \"#utility.yul\":4913:4914   */\n      0x00\n        /* \"#utility.yul\":4902:4911   */\n      dup4\n        /* \"#utility.yul\":4898:4915   */\n      add\n        /* \"#utility.yul\":4891:4938   */\n      mstore\n        /* \"#utility.yul\":4955:5113   */\n      tag_393\n        /* \"#utility.yul\":5108:5112   */\n      dup2\n        /* \"#utility.yul\":5099:5105   */\n      dup5\n        /* \"#utility.yul\":4955:5113   */\n      tag_288\n      jump\t// in\n    tag_393:\n        /* \"#utility.yul\":4947:5113   */\n      swap1\n      pop\n        /* \"#utility.yul\":4647:5120   */\n      swap3\n      swap2\n      pop\n      pop\n      jump\t// out\n        /* \"#utility.yul\":5126:5201   */\n    tag_289:\n        /* \"#utility.yul\":5159:5165   */\n      0x00\n        /* \"#utility.yul\":5192:5194   */\n      0x40\n        /* \"#utility.yul\":5186:5195   */\n      mload\n        /* \"#utility.yul\":5176:5195   */\n      swap1\n      pop\n        /* \"#utility.yul\":5126:5201   */\n      swap1\n      jump\t// out\n        /* \"#utility.yul\":5207:5324   */\n    tag_290:\n        /* \"#utility.yul\":5316:5317   */\n      0x00\n        /* \"#utility.yul\":5313:5314   */\n      dup1\n        /* \"#utility.yul\":5306:5318   */\n      revert\n        /* \"#utility.yul\":5330:5447   */\n    tag_291:\n        /* \"#utility.yul\":5439:5440   */\n      0x00\n        /* \"#utility.yul\":5436:5437   */\n      dup1\n        /* \"#utility.yul\":5429:5441   */\n      revert\n        /* \"#utility.yul\":5453:5575   */\n    tag_292:\n        /* \"#utility.yul\":5526:5550   */\n      tag_398\n        /* \"#utility.yul\":5544:5549   */\n      dup2\n        /* \"#utility.yul\":5526:5550   */\n      tag_281\n      jump\t// in\n    tag_398:\n        /* \"#utility.yul\":5519:5524   */\n      dup2\n        /* \"#utility.yul\":5516:5551   */\n      eq\n        /* \"#utility.yul\":5506:5569   */\n      tag_399\n      jumpi\n        /* \"#utility.yul\":5565:5566   */\n      0x00\n        /* \"#utility.yul\":5562:5563   */\n      dup1\n        /* \"#utility.yul\":5555:5567   */\n      revert\n        /* \"#utility.yul\":5506:5569   */\n    tag_399:\n        /* \"#utility.yul\":5453:5575   */\n      pop\n      jump\t// out\n        /* \"#utility.yul\":5581:5720   */\n    tag_293:\n        /* \"#utility.yul\":5627:5632   */\n      0x00\n        /* \"#utility.yul\":5665:5671   */\n      dup2\n        /* \"#utility.yul\":5652:5672   */\n      calldataload\n        /* \"#utility.yul\":5643:5672   */\n      swap1\n      pop\n        /* \"#utility.yul\":5681:5714   */\n      tag_401\n        /* \"#utility.yul\":5708:5713   */\n      dup2\n        /* \"#utility.yul\":5681:5714   */\n      tag_292\n      jump\t// in\n    tag_401:\n        /* \"#utility.yul\":5581:5720   */\n      swap3\n      swap2\n      pop\n      pop\n      jump\t// out\n        /* \"#utility.yul\":5726:5843   */\n    tag_294:\n        /* \"#utility.yul\":5835:5836   */\n      0x00\n        /* \"#utility.yul\":5832:5833   */\n      dup1\n        /* \"#utility.yul\":5825:5837   */\n      revert\n        /* \"#utility.yul\":5849:5966   */\n    tag_295:\n        /* \"#utility.yul\":5958:5959   */\n      0x00\n        /* \"#utility.yul\":5955:5956   */\n      dup1\n        /* \"#utility.yul\":5948:5960   */\n      revert\n        /* \"#utility.yul\":5972:6152   */\n    tag_104:\n        /* \"#utility.yul\":6020:6097   */\n      0x4e487b7100000000000000000000000000000000000000000000000000000000\n        /* \"#utility.yul\":6017:6018   */\n      0x00\n        /* \"#utility.yul\":6010:6098   */\n      mstore\n        /* \"#utility.yul\":6117:6121   */\n      0x41\n        /* \"#utility.yul\":6114:6115   */\n      0x04\n        /* \"#utility.yul\":6107:6122   */\n      mstore\n        /* \"#utility.yul\":6141:6145   */\n      0x24\n        /* \"#utility.yul\":6138:6139   */\n      0x00\n        /* \"#utility.yul\":6131:6146   */\n      revert\n        /* \"#utility.yul\":6158:6439   */\n    tag_296:\n        /* \"#utility.yul\":6241:6268   */\n      tag_406\n        /* \"#utility.yul\":6263:6267   */\n      dup3\n        /* \"#utility.yul\":6241:6268   */\n      tag_278\n      jump\t// in\n    tag_406:\n        /* \"#utility.yul\":6233:6239   */\n      dup2\n        /* \"#utility.yul\":6229:6269   */\n      add\n        /* \"#utility.yul\":6371:6377   */\n      dup2\n        /* \"#utility.yul\":6359:6369   */\n      dup2\n        /* \"#utility.yul\":6356:6378   */\n      lt\n        /* \"#utility.yul\":6335:6353   */\n      0xffffffffffffffff\n        /* \"#utility.yul\":6323:6333   */\n      dup3\n        /* \"#utility.yul\":6320:6354   */\n      gt\n        /* \"#utility.yul\":6317:6379   */\n      or\n        /* \"#utility.yul\":6314:6402   */\n      iszero\n      tag_407\n      jumpi\n        /* \"#utility.yul\":6382:6400   */\n      tag_408\n      tag_104\n      jump\t// in\n    tag_408:\n        /* \"#utility.yul\":6314:6402   */\n    tag_407:\n        /* \"#utility.yul\":6422:6432   */\n      dup1\n        /* \"#utility.yul\":6418:6420   */\n      0x40\n        /* \"#utility.yul\":6411:6433   */\n      mstore\n        /* \"#utility.yul\":6201:6439   */\n      pop\n        /* \"#utility.yul\":6158:6439   */\n      pop\n      pop\n      jump\t// out\n        /* \"#utility.yul\":6445:6574   */\n    tag_297:\n        /* \"#utility.yul\":6479:6485   */\n      0x00\n        /* \"#utility.yul\":6506:6526   */\n      tag_410\n      tag_289\n      jump\t// in\n    tag_410:\n        /* \"#utility.yul\":6496:6526   */\n      swap1\n      pop\n        /* \"#utility.yul\":6535:6568   */\n      tag_411\n        /* \"#utility.yul\":6563:6567   */\n      dup3\n        /* \"#utility.yul\":6555:6561   */\n      dup3\n        /* \"#utility.yul\":6535:6568   */\n      tag_296\n      jump\t// in\n    tag_411:\n        /* \"#utility.yul\":6445:6574   */\n      swap2\n      swap1\n      pop\n      jump\t// out\n        /* \"#utility.yul\":6580:6888   */\n    tag_298:\n        /* \"#utility.yul\":6642:6646   */\n      0x00\n        /* \"#utility.yul\":6732:6750   */\n      0xffffffffffffffff\n        /* \"#utility.yul\":6724:6730   */\n      dup3\n        /* \"#utility.yul\":6721:6751   */\n      gt\n        /* \"#utility.yul\":6718:6774   */\n      iszero\n      tag_413\n      jumpi\n        /* \"#utility.yul\":6754:6772   */\n      tag_414\n      tag_104\n      jump\t// in\n    tag_414:\n        /* \"#utility.yul\":6718:6774   */\n    tag_413:\n        /* \"#utility.yul\":6792:6821   */\n      tag_415\n        /* \"#utility.yul\":6814:6820   */\n      dup3\n        /* \"#utility.yul\":6792:6821   */\n      tag_278\n      jump\t// in\n    tag_415:\n        /* \"#utility.yul\":6784:6821   */\n      swap1\n      pop\n        /* \"#utility.yul\":6876:6880   */\n      0x20\n        /* \"#utility.yul\":6870:6874   */\n      dup2\n        /* \"#utility.yul\":6866:6881   */\n      add\n        /* \"#utility.yul\":6858:6881   */\n      swap1\n      pop\n        /* \"#utility.yul\":6580:6888   */\n      swap2\n      swap1\n      pop\n      jump\t// out\n        /* \"#utility.yul\":6894:7042   */\n    tag_299:\n        /* \"#utility.yul\":6992:6998   */\n      dup3\n        /* \"#utility.yul\":6987:6990   */\n      dup2\n        /* \"#utility.yul\":6982:6985   */\n      dup4\n        /* \"#utility.yul\":6969:6999   */\n      calldatacopy\n        /* \"#utility.yul\":7033:7034   */\n      0x00\n        /* \"#utility.yul\":7024:7030   */\n      dup4\n        /* \"#utility.yul\":7019:7022   */\n      dup4\n        /* \"#utility.yul\":7015:7031   */\n      add\n        /* \"#utility.yul\":7008:7035   */\n      mstore\n        /* \"#utility.yul\":6894:7042   */\n      pop\n      pop\n      pop\n      jump\t// out\n        /* \"#utility.yul\":7048:7473   */\n    tag_300:\n        /* \"#utility.yul\":7126:7131   */\n      0x00\n        /* \"#utility.yul\":7151:7217   */\n      tag_418\n        /* \"#utility.yul\":7167:7216   */\n      tag_419\n        /* \"#utility.yul\":7209:7215   */\n      dup5\n        /* \"#utility.yul\":7167:7216   */\n      tag_298\n      jump\t// in\n    tag_419:\n        /* \"#utility.yul\":7151:7217   */\n      tag_297\n      jump\t// in\n    tag_418:\n        /* \"#utility.yul\":7142:7217   */\n      swap1\n      pop\n        /* \"#utility.yul\":7240:7246   */\n      dup3\n        /* \"#utility.yul\":7233:7238   */\n      dup2\n        /* \"#utility.yul\":7226:7247   */\n      mstore\n        /* \"#utility.yul\":7278:7282   */\n      0x20\n        /* \"#utility.yul\":7271:7276   */\n      dup2\n        /* \"#utility.yul\":7267:7283   */\n      add\n        /* \"#utility.yul\":7316:7319   */\n      dup5\n        /* \"#utility.yul\":7307:7313   */\n      dup5\n        /* \"#utility.yul\":7302:7305   */\n      dup5\n        /* \"#utility.yul\":7298:7314   */\n      add\n        /* \"#utility.yul\":7295:7320   */\n      gt\n        /* \"#utility.yul\":7292:7404   */\n      iszero\n      tag_420\n      jumpi\n        /* \"#utility.yul\":7323:7402   */\n      tag_421\n      tag_295\n      jump\t// in\n    tag_421:\n        /* \"#utility.yul\":7292:7404   */\n    tag_420:\n        /* \"#utility.yul\":7413:7467   */\n      tag_422\n        /* \"#utility.yul\":7460:7466   */\n      dup5\n        /* \"#utility.yul\":7455:7458   */\n      dup3\n        /* \"#utility.yul\":7450:7453   */\n      dup6\n        /* \"#utility.yul\":7413:7467   */\n      tag_299\n      jump\t// in\n    tag_422:\n        /* \"#utility.yul\":7132:7473   */\n      pop\n        /* \"#utility.yul\":7048:7473   */\n      swap4\n      swap3\n      pop\n      pop\n      pop\n      jump\t// out\n        /* \"#utility.yul\":7493:7833   */\n    tag_301:\n        /* \"#utility.yul\":7549:7554   */\n      0x00\n        /* \"#utility.yul\":7598:7601   */\n      dup3\n        /* \"#utility.yul\":7591:7595   */\n      0x1f\n        /* \"#utility.yul\":7583:7589   */\n      dup4\n        /* \"#utility.yul\":7579:7596   */\n      add\n        /* \"#utility.yul\":7575:7602   */\n      slt\n        /* \"#utility.yul\":7565:7687   */\n      tag_424\n      jumpi\n        /* \"#utility.yul\":7606:7685   */\n      tag_425\n      tag_294\n      jump\t// in\n    tag_425:\n        /* \"#utility.yul\":7565:7687   */\n    tag_424:\n        /* \"#utility.yul\":7723:7729   */\n      dup2\n        /* \"#utility.yul\":7710:7730   */\n      calldataload\n        /* \"#utility.yul\":7748:7827   */\n      tag_426\n        /* \"#utility.yul\":7823:7826   */\n      dup5\n        /* \"#utility.yul\":7815:7821   */\n      dup3\n        /* \"#utility.yul\":7808:7812   */\n      0x20\n        /* \"#utility.yul\":7800:7806   */\n      dup7\n        /* \"#utility.yul\":7796:7813   */\n      add\n        /* \"#utility.yul\":7748:7827   */\n      tag_300\n      jump\t// in\n    tag_426:\n        /* \"#utility.yul\":7739:7827   */\n      swap2\n      pop\n        /* \"#utility.yul\":7555:7833   */\n      pop\n        /* \"#utility.yul\":7493:7833   */\n      swap3\n      swap2\n      pop\n      pop\n      jump\t// out\n        /* \"#utility.yul\":7839:8493   */\n    tag_32:\n        /* \"#utility.yul\":7917:7923   */\n      0x00\n        /* \"#utility.yul\":7925:7931   */\n      dup1\n        /* \"#utility.yul\":7974:7976   */\n      0x40\n        /* \"#utility.yul\":7962:7971   */\n      dup4\n        /* \"#utility.yul\":7953:7960   */\n      dup6\n        /* \"#utility.yul\":7949:7972   */\n      sub\n        /* \"#utility.yul\":7945:7977   */\n      slt\n        /* \"#utility.yul\":7942:8061   */\n      iszero\n      tag_428\n      jumpi\n        /* \"#utility.yul\":7980:8059   */\n      tag_429\n      tag_290\n      jump\t// in\n    tag_429:\n        /* \"#utility.yul\":7942:8061   */\n    tag_428:\n        /* \"#utility.yul\":8100:8101   */\n      0x00\n        /* \"#utility.yul\":8125:8178   */\n      tag_430\n        /* \"#utility.yul\":8170:8177   */\n      dup6\n        /* \"#utility.yul\":8161:8167   */\n      dup3\n        /* \"#utility.yul\":8150:8159   */\n      dup7\n        /* \"#utility.yul\":8146:8168   */\n      add\n        /* \"#utility.yul\":8125:8178   */\n      tag_293\n      jump\t// in\n    tag_430:\n        /* \"#utility.yul\":8115:8178   */\n      swap3\n      pop\n        /* \"#utility.yul\":8071:8188   */\n      pop\n        /* \"#utility.yul\":8255:8257   */\n      0x20\n        /* \"#utility.yul\":8244:8253   */\n      dup4\n        /* \"#utility.yul\":8240:8258   */\n      add\n        /* \"#utility.yul\":8227:8259   */\n      calldataload\n        /* \"#utility.yul\":8286:8304   */\n      0xffffffffffffffff\n        /* \"#utility.yul\":8278:8284   */\n      dup2\n        /* \"#utility.yul\":8275:8305   */\n      gt\n        /* \"#utility.yul\":8272:8389   */\n      iszero\n      tag_431\n      jumpi\n        /* \"#utility.yul\":8308:8387   */\n      tag_432\n      tag_291\n      jump\t// in\n    tag_432:\n        /* \"#utility.yul\":8272:8389   */\n    tag_431:\n        /* \"#utility.yul\":8413:8476   */\n      tag_433\n        /* \"#utility.yul\":8468:8475   */\n      dup6\n        /* \"#utility.yul\":8459:8465   */\n      dup3\n        /* \"#utility.yul\":8448:8457   */\n      dup7\n        /* \"#utility.yul\":8444:8466   */\n      add\n        /* \"#utility.yul\":8413:8476   */\n      tag_301\n      jump\t// in\n    tag_433:\n        /* \"#utility.yul\":8403:8476   */\n      swap2\n      pop\n        /* \"#utility.yul\":8198:8486   */\n      pop\n        /* \"#utility.yul\":7839:8493   */\n      swap3\n      pop\n      swap3\n      swap1\n      pop\n      jump\t// out\n        /* \"#utility.yul\":8499:8589   */\n    tag_302:\n        /* \"#utility.yul\":8533:8540   */\n      0x00\n        /* \"#utility.yul\":8576:8581   */\n      dup2\n        /* \"#utility.yul\":8569:8582   */\n      iszero\n        /* \"#utility.yul\":8562:8583   */\n      iszero\n        /* \"#utility.yul\":8551:8583   */\n      swap1\n      pop\n        /* \"#utility.yul\":8499:8589   */\n      swap2\n      swap1\n      pop\n      jump\t// out\n        /* \"#utility.yul\":8595:8704   */\n    tag_303:\n        /* \"#utility.yul\":8676:8697   */\n      tag_436\n        /* \"#utility.yul\":8691:8696   */\n      dup2\n        /* \"#utility.yul\":8676:8697   */\n      tag_302\n      jump\t// in\n    tag_436:\n        /* \"#utility.yul\":8671:8674   */\n      dup3\n        /* \"#utility.yul\":8664:8698   */\n      mstore\n        /* \"#utility.yul\":8595:8704   */\n      pop\n      pop\n      jump\t// out\n        /* \"#utility.yul\":8710:8920   */\n    tag_35:\n        /* \"#utility.yul\":8797:8801   */\n      0x00\n        /* \"#utility.yul\":8835:8837   */\n      0x20\n        /* \"#utility.yul\":8824:8833   */\n      dup3\n        /* \"#utility.yul\":8820:8838   */\n      add\n        /* \"#utility.yul\":8812:8838   */\n      swap1\n      pop\n        /* \"#utility.yul\":8848:8913   */\n      tag_438\n        /* \"#utility.yul\":8910:8911   */\n      0x00\n        /* \"#utility.yul\":8899:8908   */\n      dup4\n        /* \"#utility.yul\":8895:8912   */\n      add\n        /* \"#utility.yul\":8886:8892   */\n      dup5\n        /* \"#utility.yul\":8848:8913   */\n      tag_303\n      jump\t// in\n    tag_438:\n        /* \"#utility.yul\":8710:8920   */\n      swap3\n      swap2\n      pop\n      pop\n      jump\t// out\n        /* \"#utility.yul\":8926:9048   */\n    tag_304:\n        /* \"#utility.yul\":8999:9023   */\n      tag_440\n        /* \"#utility.yul\":9017:9022   */\n      dup2\n        /* \"#utility.yul\":8999:9023   */\n      tag_283\n      jump\t// in\n    tag_440:\n        /* \"#utility.yul\":8992:8997   */\n      dup2\n        /* \"#utility.yul\":8989:9024   */\n      eq\n        /* \"#utility.yul\":8979:9042   */\n      tag_441\n      jumpi\n        /* \"#utility.yul\":9038:9039   */\n      0x00\n        /* \"#utility.yul\":9035:9036   */\n      dup1\n        /* \"#utility.yul\":9028:9040   */\n      revert\n        /* \"#utility.yul\":8979:9042   */\n    tag_441:\n        /* \"#utility.yul\":8926:9048   */\n      pop\n      jump\t// out\n        /* \"#utility.yul\":9054:9193   */\n    tag_305:\n        /* \"#utility.yul\":9100:9105   */\n      0x00\n        /* \"#utility.yul\":9138:9144   */\n      dup2\n        /* \"#utility.yul\":9125:9145   */\n      calldataload\n        /* \"#utility.yul\":9116:9145   */\n      swap1\n      pop\n        /* \"#utility.yul\":9154:9187   */\n      tag_443\n        /* \"#utility.yul\":9181:9186   */\n      dup2\n        /* \"#utility.yul\":9154:9187   */\n      tag_304\n      jump\t// in\n    tag_443:\n        /* \"#utility.yul\":9054:9193   */\n      swap3\n      swap2\n      pop\n      pop\n      jump\t// out\n        /* \"#utility.yul\":9199:10324   */\n    tag_38:\n        /* \"#utility.yul\":9305:9311   */\n      0x00\n        /* \"#utility.yul\":9313:9319   */\n      dup1\n        /* \"#utility.yul\":9321:9327   */\n      0x00\n        /* \"#utility.yul\":9329:9335   */\n      dup1\n        /* \"#utility.yul\":9378:9381   */\n      0x80\n        /* \"#utility.yul\":9366:9375   */\n      dup6\n        /* \"#utility.yul\":9357:9364   */\n      dup8\n        /* \"#utility.yul\":9353:9376   */\n      sub\n        /* \"#utility.yul\":9349:9382   */\n      slt\n        /* \"#utility.yul\":9346:9466   */\n      iszero\n      tag_445\n      jumpi\n        /* \"#utility.yul\":9385:9464   */\n      tag_446\n      tag_290\n      jump\t// in\n    tag_446:\n        /* \"#utility.yul\":9346:9466   */\n    tag_445:\n        /* \"#utility.yul\":9505:9506   */\n      0x00\n        /* \"#utility.yul\":9530:9583   */\n      tag_447\n        /* \"#utility.yul\":9575:9582   */\n      dup8\n        /* \"#utility.yul\":9566:9572   */\n      dup3\n        /* \"#utility.yul\":9555:9564   */\n      dup9\n        /* \"#utility.yul\":9551:9573   */\n      add\n        /* \"#utility.yul\":9530:9583   */\n      tag_293\n      jump\t// in\n    tag_447:\n        /* \"#utility.yul\":9520:9583   */\n      swap5\n      pop\n        /* \"#utility.yul\":9476:9593   */\n      pop\n        /* \"#utility.yul\":9660:9662   */\n      0x20\n        /* \"#utility.yul\":9649:9658   */\n      dup6\n        /* \"#utility.yul\":9645:9663   */\n      add\n        /* \"#utility.yul\":9632:9664   */\n      calldataload\n        /* \"#utility.yul\":9691:9709   */\n      0xffffffffffffffff\n        /* \"#utility.yul\":9683:9689   */\n      dup2\n        /* \"#utility.yul\":9680:9710   */\n      gt\n        /* \"#utility.yul\":9677:9794   */\n      iszero\n      tag_448\n      jumpi\n        /* \"#utility.yul\":9713:9792   */\n      tag_449\n      tag_291\n      jump\t// in\n    tag_449:\n        /* \"#utility.yul\":9677:9794   */\n    tag_448:\n        /* \"#utility.yul\":9818:9881   */\n      tag_450\n        /* \"#utility.yul\":9873:9880   */\n      dup8\n        /* \"#utility.yul\":9864:9870   */\n      dup3\n        /* \"#utility.yul\":9853:9862   */\n      dup9\n        /* \"#utility.yul\":9849:9871   */\n      add\n        /* \"#utility.yul\":9818:9881   */\n      tag_301\n      jump\t// in\n    tag_450:\n        /* \"#utility.yul\":9808:9881   */\n      swap4\n      pop\n        /* \"#utility.yul\":9603:9891   */\n      pop\n        /* \"#utility.yul\":9958:9960   */\n      0x40\n        /* \"#utility.yul\":9947:9956   */\n      dup6\n        /* \"#utility.yul\":9943:9961   */\n      add\n        /* \"#utility.yul\":9930:9962   */\n      calldataload\n        /* \"#utility.yul\":9989:10007   */\n      0xffffffffffffffff\n        /* \"#utility.yul\":9981:9987   */\n      dup2\n        /* \"#utility.yul\":9978:10008   */\n      gt\n        /* \"#utility.yul\":9975:10092   */\n      iszero\n      tag_451\n      jumpi\n        /* \"#utility.yul\":10011:10090   */\n      tag_452\n      tag_291\n      jump\t// in\n    tag_452:\n        /* \"#utility.yul\":9975:10092   */\n    tag_451:\n        /* \"#utility.yul\":10116:10179   */\n      tag_453\n        /* \"#utility.yul\":10171:10178   */\n      dup8\n        /* \"#utility.yul\":10162:10168   */\n      dup3\n        /* \"#utility.yul\":10151:10160   */\n      dup9\n        /* \"#utility.yul\":10147:10169   */\n      add\n        /* \"#utility.yul\":10116:10179   */\n      tag_301\n      jump\t// in\n    tag_453:\n        /* \"#utility.yul\":10106:10179   */\n      swap3\n      pop\n        /* \"#utility.yul\":9901:10189   */\n      pop\n        /* \"#utility.yul\":10228:10230   */\n      0x60\n        /* \"#utility.yul\":10254:10307   */\n      tag_454\n        /* \"#utility.yul\":10299:10306   */\n      dup8\n        /* \"#utility.yul\":10290:10296   */\n      dup3\n        /* \"#utility.yul\":10279:10288   */\n      dup9\n        /* \"#utility.yul\":10275:10297   */\n      add\n        /* \"#utility.yul\":10254:10307   */\n      tag_305\n      jump\t// in\n    tag_454:\n        /* \"#utility.yul\":10244:10307   */\n      swap2\n      pop\n        /* \"#utility.yul\":10199:10317   */\n      pop\n        /* \"#utility.yul\":9199:10324   */\n      swap3\n      swap6\n      swap2\n      swap5\n      pop\n      swap3\n      pop\n      jump\t// out\n        /* \"#utility.yul\":10330:10448   */\n    tag_306:\n        /* \"#utility.yul\":10417:10441   */\n      tag_456\n        /* \"#utility.yul\":10435:10440   */\n      dup2\n        /* \"#utility.yul\":10417:10441   */\n      tag_283\n      jump\t// in\n    tag_456:\n        /* \"#utility.yul\":10412:10415   */\n      dup3\n        /* \"#utility.yul\":10405:10442   */\n      mstore\n        /* \"#utility.yul\":10330:10448   */\n      pop\n      pop\n      jump\t// out\n        /* \"#utility.yul\":10454:10676   */\n    tag_43:\n        /* \"#utility.yul\":10547:10551   */\n      0x00\n        /* \"#utility.yul\":10585:10587   */\n      0x20\n        /* \"#utility.yul\":10574:10583   */\n      dup3\n        /* \"#utility.yul\":10570:10588   */\n      add\n        /* \"#utility.yul\":10562:10588   */\n      swap1\n      pop\n        /* \"#utility.yul\":10598:10669   */\n      tag_458\n        /* \"#utility.yul\":10666:10667   */\n      0x00\n        /* \"#utility.yul\":10655:10664   */\n      dup4\n        /* \"#utility.yul\":10651:10668   */\n      add\n        /* \"#utility.yul\":10642:10648   */\n      dup5\n        /* \"#utility.yul\":10598:10669   */\n      tag_306\n      jump\t// in\n    tag_458:\n        /* \"#utility.yul\":10454:10676   */\n      swap3\n      swap2\n      pop\n      pop\n      jump\t// out\n        /* \"#utility.yul\":10682:11661   */\n    tag_46:\n        /* \"#utility.yul\":10779:10785   */\n      0x00\n        /* \"#utility.yul\":10787:10793   */\n      dup1\n        /* \"#utility.yul\":10795:10801   */\n      0x00\n        /* \"#utility.yul\":10844:10846   */\n      0x60\n        /* \"#utility.yul\":10832:10841   */\n      dup5\n        /* \"#utility.yul\":10823:10830   */\n      dup7\n        /* \"#utility.yul\":10819:10842   */\n      sub\n        /* \"#utility.yul\":10815:10847   */\n      slt\n        /* \"#utility.yul\":10812:10931   */\n      iszero\n      tag_460\n      jumpi\n        /* \"#utility.yul\":10850:10929   */\n      tag_461\n      tag_290\n      jump\t// in\n    tag_461:\n        /* \"#utility.yul\":10812:10931   */\n    tag_460:\n        /* \"#utility.yul\":10970:10971   */\n      0x00\n        /* \"#utility.yul\":10995:11048   */\n      tag_462\n        /* \"#utility.yul\":11040:11047   */\n      dup7\n        /* \"#utility.yul\":11031:11037   */\n      dup3\n        /* \"#utility.yul\":11020:11029   */\n      dup8\n        /* \"#utility.yul\":11016:11038   */\n      add\n        /* \"#utility.yul\":10995:11048   */\n      tag_293\n      jump\t// in\n    tag_462:\n        /* \"#utility.yul\":10985:11048   */\n      swap4\n      pop\n        /* \"#utility.yul\":10941:11058   */\n      pop\n        /* \"#utility.yul\":11125:11127   */\n      0x20\n        /* \"#utility.yul\":11114:11123   */\n      dup5\n        /* \"#utility.yul\":11110:11128   */\n      add\n        /* \"#utility.yul\":11097:11129   */\n      calldataload\n        /* \"#utility.yul\":11156:11174   */\n      0xffffffffffffffff\n        /* \"#utility.yul\":11148:11154   */\n      dup2\n        /* \"#utility.yul\":11145:11175   */\n      gt\n        /* \"#utility.yul\":11142:11259   */\n      iszero\n      tag_463\n      jumpi\n        /* \"#utility.yul\":11178:11257   */\n      tag_464\n      tag_291\n      jump\t// in\n    tag_464:\n        /* \"#utility.yul\":11142:11259   */\n    tag_463:\n        /* \"#utility.yul\":11283:11346   */\n      tag_465\n        /* \"#utility.yul\":11338:11345   */\n      dup7\n        /* \"#utility.yul\":11329:11335   */\n      dup3\n        /* \"#utility.yul\":11318:11327   */\n      dup8\n        /* \"#utility.yul\":11314:11336   */\n      add\n        /* \"#utility.yul\":11283:11346   */\n      tag_301\n      jump\t// in\n    tag_465:\n        /* \"#utility.yul\":11273:11346   */\n      swap3\n      pop\n        /* \"#utility.yul\":11068:11356   */\n      pop\n        /* \"#utility.yul\":11423:11425   */\n      0x40\n        /* \"#utility.yul\":11412:11421   */\n      dup5\n        /* \"#utility.yul\":11408:11426   */\n      add\n        /* \"#utility.yul\":11395:11427   */\n      calldataload\n        /* \"#utility.yul\":11454:11472   */\n      0xffffffffffffffff\n        /* \"#utility.yul\":11446:11452   */\n      dup2\n        /* \"#utility.yul\":11443:11473   */\n      gt\n        /* \"#utility.yul\":11440:11557   */\n      iszero\n      tag_466\n      jumpi\n        /* \"#utility.yul\":11476:11555   */\n      tag_467\n      tag_291\n      jump\t// in\n    tag_467:\n        /* \"#utility.yul\":11440:11557   */\n    tag_466:\n        /* \"#utility.yul\":11581:11644   */\n      tag_468\n        /* \"#utility.yul\":11636:11643   */\n      dup7\n        /* \"#utility.yul\":11627:11633   */\n      dup3\n        /* \"#utility.yul\":11616:11625   */\n      dup8\n        /* \"#utility.yul\":11612:11634   */\n      add\n        /* \"#utility.yul\":11581:11644   */\n      tag_301\n      jump\t// in\n    tag_468:\n        /* \"#utility.yul\":11571:11644   */\n      swap2\n      pop\n        /* \"#utility.yul\":11366:11654   */\n      pop\n        /* \"#utility.yul\":10682:11661   */\n      swap3\n      pop\n      swap3\n      pop\n      swap3\n      jump\t// out\n        /* \"#utility.yul\":11667:11996   */\n    tag_50:\n        /* \"#utility.yul\":11726:11732   */\n      0x00\n        /* \"#utility.yul\":11775:11777   */\n      0x20\n        /* \"#utility.yul\":11763:11772   */\n      dup3\n        /* \"#utility.yul\":11754:11761   */\n      dup5\n        /* \"#utility.yul\":11750:11773   */\n      sub\n        /* \"#utility.yul\":11746:11778   */\n      slt\n        /* \"#utility.yul\":11743:11862   */\n      iszero\n      tag_470\n      jumpi\n        /* \"#utility.yul\":11781:11860   */\n      tag_471\n      tag_290\n      jump\t// in\n    tag_471:\n        /* \"#utility.yul\":11743:11862   */\n    tag_470:\n        /* \"#utility.yul\":11901:11902   */\n      0x00\n        /* \"#utility.yul\":11926:11979   */\n      tag_472\n        /* \"#utility.yul\":11971:11978   */\n      dup5\n        /* \"#utility.yul\":11962:11968   */\n      dup3\n        /* \"#utility.yul\":11951:11960   */\n      dup6\n        /* \"#utility.yul\":11947:11969   */\n      add\n        /* \"#utility.yul\":11926:11979   */\n      tag_293\n      jump\t// in\n    tag_472:\n        /* \"#utility.yul\":11916:11979   */\n      swap2\n      pop\n        /* \"#utility.yul\":11872:11989   */\n      pop\n        /* \"#utility.yul\":11667:11996   */\n      swap3\n      swap2\n      pop\n      pop\n      jump\t// out\n        /* \"#utility.yul\":12002:12171   */\n    tag_307:\n        /* \"#utility.yul\":12086:12097   */\n      0x00\n        /* \"#utility.yul\":12120:12126   */\n      dup3\n        /* \"#utility.yul\":12115:12118   */\n      dup3\n        /* \"#utility.yul\":12108:12127   */\n      mstore\n        /* \"#utility.yul\":12160:12164   */\n      0x20\n        /* \"#utility.yul\":12155:12158   */\n      dup3\n        /* \"#utility.yul\":12151:12165   */\n      add\n        /* \"#utility.yul\":12136:12165   */\n      swap1\n      pop\n        /* \"#utility.yul\":12002:12171   */\n      swap3\n      swap2\n      pop\n      pop\n      jump\t// out\n        /* \"#utility.yul\":12177:12554   */\n    tag_308:\n        /* \"#utility.yul\":12265:12268   */\n      0x00\n        /* \"#utility.yul\":12293:12332   */\n      tag_475\n        /* \"#utility.yul\":12326:12331   */\n      dup3\n        /* \"#utility.yul\":12293:12332   */\n      tag_275\n      jump\t// in\n    tag_475:\n        /* \"#utility.yul\":12348:12419   */\n      tag_476\n        /* \"#utility.yul\":12412:12418   */\n      dup2\n        /* \"#utility.yul\":12407:12410   */\n      dup6\n        /* \"#utility.yul\":12348:12419   */\n      tag_307\n      jump\t// in\n    tag_476:\n        /* \"#utility.yul\":12341:12419   */\n      swap4\n      pop\n        /* \"#utility.yul\":12428:12493   */\n      tag_477\n        /* \"#utility.yul\":12486:12492   */\n      dup2\n        /* \"#utility.yul\":12481:12484   */\n      dup6\n        /* \"#utility.yul\":12474:12478   */\n      0x20\n        /* \"#utility.yul\":12467:12472   */\n      dup7\n        /* \"#utility.yul\":12463:12479   */\n      add\n        /* \"#utility.yul\":12428:12493   */\n      tag_277\n      jump\t// in\n    tag_477:\n        /* \"#utility.yul\":12518:12547   */\n      tag_478\n        /* \"#utility.yul\":12540:12546   */\n      dup2\n        /* \"#utility.yul\":12518:12547   */\n      tag_278\n      jump\t// in\n    tag_478:\n        /* \"#utility.yul\":12513:12516   */\n      dup5\n        /* \"#utility.yul\":12509:12548   */\n      add\n        /* \"#utility.yul\":12502:12548   */\n      swap2\n      pop\n        /* \"#utility.yul\":12269:12554   */\n      pop\n        /* \"#utility.yul\":12177:12554   */\n      swap3\n      swap2\n      pop\n      pop\n      jump\t// out\n        /* \"#utility.yul\":12560:12678   */\n    tag_309:\n        /* \"#utility.yul\":12647:12671   */\n      tag_480\n        /* \"#utility.yul\":12665:12670   */\n      dup2\n        /* \"#utility.yul\":12647:12671   */\n      tag_281\n      jump\t// in\n    tag_480:\n        /* \"#utility.yul\":12642:12645   */\n      dup3\n        /* \"#utility.yul\":12635:12672   */\n      mstore\n        /* \"#utility.yul\":12560:12678   */\n      pop\n      pop\n      jump\t// out\n        /* \"#utility.yul\":12684:13419   */\n    tag_59:\n        /* \"#utility.yul\":12901:12905   */\n      0x00\n        /* \"#utility.yul\":12939:12942   */\n      0x80\n        /* \"#utility.yul\":12928:12937   */\n      dup3\n        /* \"#utility.yul\":12924:12943   */\n      add\n        /* \"#utility.yul\":12916:12943   */\n      swap1\n      pop\n        /* \"#utility.yul\":12989:12998   */\n      dup2\n        /* \"#utility.yul\":12983:12987   */\n      dup2\n        /* \"#utility.yul\":12979:12999   */\n      sub\n        /* \"#utility.yul\":12975:12976   */\n      0x00\n        /* \"#utility.yul\":12964:12973   */\n      dup4\n        /* \"#utility.yul\":12960:12977   */\n      add\n        /* \"#utility.yul\":12953:13000   */\n      mstore\n        /* \"#utility.yul\":13017:13095   */\n      tag_482\n        /* \"#utility.yul\":13090:13094   */\n      dup2\n        /* \"#utility.yul\":13081:13087   */\n      dup8\n        /* \"#utility.yul\":13017:13095   */\n      tag_308\n      jump\t// in\n    tag_482:\n        /* \"#utility.yul\":13009:13095   */\n      swap1\n      pop\n        /* \"#utility.yul\":13105:13177   */\n      tag_483\n        /* \"#utility.yul\":13173:13175   */\n      0x20\n        /* \"#utility.yul\":13162:13171   */\n      dup4\n        /* \"#utility.yul\":13158:13176   */\n      add\n        /* \"#utility.yul\":13149:13155   */\n      dup7\n        /* \"#utility.yul\":13105:13177   */\n      tag_309\n      jump\t// in\n    tag_483:\n        /* \"#utility.yul\":13187:13259   */\n      tag_484\n        /* \"#utility.yul\":13255:13257   */\n      0x40\n        /* \"#utility.yul\":13244:13253   */\n      dup4\n        /* \"#utility.yul\":13240:13258   */\n      add\n        /* \"#utility.yul\":13231:13237   */\n      dup6\n        /* \"#utility.yul\":13187:13259   */\n      tag_306\n      jump\t// in\n    tag_484:\n        /* \"#utility.yul\":13306:13315   */\n      dup2\n        /* \"#utility.yul\":13300:13304   */\n      dup2\n        /* \"#utility.yul\":13296:13316   */\n      sub\n        /* \"#utility.yul\":13291:13293   */\n      0x60\n        /* \"#utility.yul\":13280:13289   */\n      dup4\n        /* \"#utility.yul\":13276:13294   */\n      add\n        /* \"#utility.yul\":13269:13317   */\n      mstore\n        /* \"#utility.yul\":13334:13412   */\n      tag_485\n        /* \"#utility.yul\":13407:13411   */\n      dup2\n        /* \"#utility.yul\":13398:13404   */\n      dup5\n        /* \"#utility.yul\":13334:13412   */\n      tag_308\n      jump\t// in\n    tag_485:\n        /* \"#utility.yul\":13326:13412   */\n      swap1\n      pop\n        /* \"#utility.yul\":12684:13419   */\n      swap6\n      swap5\n      pop\n      pop\n      pop\n      pop\n      pop\n      jump\t// out\n        /* \"#utility.yul\":13425:14469   */\n    tag_67:\n        /* \"#utility.yul\":13714:13718   */\n      0x00\n        /* \"#utility.yul\":13752:13755   */\n      0xe0\n        /* \"#utility.yul\":13741:13750   */\n      dup3\n        /* \"#utility.yul\":13737:13756   */\n      add\n        /* \"#utility.yul\":13729:13756   */\n      swap1\n      pop\n        /* \"#utility.yul\":13766:13831   */\n      tag_487\n        /* \"#utility.yul\":13828:13829   */\n      0x00\n        /* \"#utility.yul\":13817:13826   */\n      dup4\n        /* \"#utility.yul\":13813:13830   */\n      add\n        /* \"#utility.yul\":13804:13810   */\n      dup11\n        /* \"#utility.yul\":13766:13831   */\n      tag_303\n      jump\t// in\n    tag_487:\n        /* \"#utility.yul\":13841:13907   */\n      tag_488\n        /* \"#utility.yul\":13903:13905   */\n      0x20\n        /* \"#utility.yul\":13892:13901   */\n      dup4\n        /* \"#utility.yul\":13888:13906   */\n      add\n        /* \"#utility.yul\":13879:13885   */\n      dup10\n        /* \"#utility.yul\":13841:13907   */\n      tag_303\n      jump\t// in\n    tag_488:\n        /* \"#utility.yul\":13917:13989   */\n      tag_489\n        /* \"#utility.yul\":13985:13987   */\n      0x40\n        /* \"#utility.yul\":13974:13983   */\n      dup4\n        /* \"#utility.yul\":13970:13988   */\n      add\n        /* \"#utility.yul\":13961:13967   */\n      dup9\n        /* \"#utility.yul\":13917:13989   */\n      tag_309\n      jump\t// in\n    tag_489:\n        /* \"#utility.yul\":14036:14045   */\n      dup2\n        /* \"#utility.yul\":14030:14034   */\n      dup2\n        /* \"#utility.yul\":14026:14046   */\n      sub\n        /* \"#utility.yul\":14021:14023   */\n      0x60\n        /* \"#utility.yul\":14010:14019   */\n      dup4\n        /* \"#utility.yul\":14006:14024   */\n      add\n        /* \"#utility.yul\":13999:14047   */\n      mstore\n        /* \"#utility.yul\":14064:14142   */\n      tag_490\n        /* \"#utility.yul\":14137:14141   */\n      dup2\n        /* \"#utility.yul\":14128:14134   */\n      dup8\n        /* \"#utility.yul\":14064:14142   */\n      tag_308\n      jump\t// in\n    tag_490:\n        /* \"#utility.yul\":14056:14142   */\n      swap1\n      pop\n        /* \"#utility.yul\":14190:14199   */\n      dup2\n        /* \"#utility.yul\":14184:14188   */\n      dup2\n        /* \"#utility.yul\":14180:14200   */\n      sub\n        /* \"#utility.yul\":14174:14177   */\n      0x80\n        /* \"#utility.yul\":14163:14172   */\n      dup4\n        /* \"#utility.yul\":14159:14178   */\n      add\n        /* \"#utility.yul\":14152:14201   */\n      mstore\n        /* \"#utility.yul\":14218:14296   */\n      tag_491\n        /* \"#utility.yul\":14291:14295   */\n      dup2\n        /* \"#utility.yul\":14282:14288   */\n      dup7\n        /* \"#utility.yul\":14218:14296   */\n      tag_308\n      jump\t// in\n    tag_491:\n        /* \"#utility.yul\":14210:14296   */\n      swap1\n      pop\n        /* \"#utility.yul\":14306:14379   */\n      tag_492\n        /* \"#utility.yul\":14374:14377   */\n      0xa0\n        /* \"#utility.yul\":14363:14372   */\n      dup4\n        /* \"#utility.yul\":14359:14378   */\n      add\n        /* \"#utility.yul\":14350:14356   */\n      dup6\n        /* \"#utility.yul\":14306:14379   */\n      tag_306\n      jump\t// in\n    tag_492:\n        /* \"#utility.yul\":14389:14462   */\n      tag_493\n        /* \"#utility.yul\":14457:14460   */\n      0xc0\n        /* \"#utility.yul\":14446:14455   */\n      dup4\n        /* \"#utility.yul\":14442:14461   */\n      add\n        /* \"#utility.yul\":14433:14439   */\n      dup5\n        /* \"#utility.yul\":14389:14462   */\n      tag_309\n      jump\t// in\n    tag_493:\n        /* \"#utility.yul\":13425:14469   */\n      swap9\n      swap8\n      pop\n      pop\n      pop\n      pop\n      pop\n      pop\n      pop\n      pop\n      jump\t// out\n        /* \"#utility.yul\":14475:14697   */\n    tag_71:\n        /* \"#utility.yul\":14568:14572   */\n      0x00\n        /* \"#utility.yul\":14606:14608   */\n      0x20\n        /* \"#utility.yul\":14595:14604   */\n      dup3\n        /* \"#utility.yul\":14591:14609   */\n      add\n        /* \"#utility.yul\":14583:14609   */\n      swap1\n      pop\n        /* \"#utility.yul\":14619:14690   */\n      tag_495\n        /* \"#utility.yul\":14687:14688   */\n      0x00\n        /* \"#utility.yul\":14676:14685   */\n      dup4\n        /* \"#utility.yul\":14672:14689   */\n      add\n        /* \"#utility.yul\":14663:14669   */\n      dup5\n        /* \"#utility.yul\":14619:14690   */\n      tag_309\n      jump\t// in\n    tag_495:\n        /* \"#utility.yul\":14475:14697   */\n      swap3\n      swap2\n      pop\n      pop\n      jump\t// out\n        /* \"#utility.yul\":14703:15032   */\n    tag_76:\n        /* \"#utility.yul\":14762:14768   */\n      0x00\n        /* \"#utility.yul\":14811:14813   */\n      0x20\n        /* \"#utility.yul\":14799:14808   */\n      dup3\n        /* \"#utility.yul\":14790:14797   */\n      dup5\n        /* \"#utility.yul\":14786:14809   */\n      sub\n        /* \"#utility.yul\":14782:14814   */\n      slt\n        /* \"#utility.yul\":14779:14898   */\n      iszero\n      tag_497\n      jumpi\n        /* \"#utility.yul\":14817:14896   */\n      tag_498\n      tag_290\n      jump\t// in\n    tag_498:\n        /* \"#utility.yul\":14779:14898   */\n    tag_497:\n        /* \"#utility.yul\":14937:14938   */\n      0x00\n        /* \"#utility.yul\":14962:15015   */\n      tag_499\n        /* \"#utility.yul\":15007:15014   */\n      dup5\n        /* \"#utility.yul\":14998:15004   */\n      dup3\n        /* \"#utility.yul\":14987:14996   */\n      dup6\n        /* \"#utility.yul\":14983:15005   */\n      add\n        /* \"#utility.yul\":14962:15015   */\n      tag_305\n      jump\t// in\n    tag_499:\n        /* \"#utility.yul\":14952:15015   */\n      swap2\n      pop\n        /* \"#utility.yul\":14908:15025   */\n      pop\n        /* \"#utility.yul\":14703:15032   */\n      swap3\n      swap2\n      pop\n      pop\n      jump\t// out\n        /* \"#utility.yul\":15038:15468   */\n    tag_86:\n        /* \"#utility.yul\":15181:15185   */\n      0x00\n        /* \"#utility.yul\":15219:15221   */\n      0x60\n        /* \"#utility.yul\":15208:15217   */\n      dup3\n        /* \"#utility.yul\":15204:15222   */\n      add\n        /* \"#utility.yul\":15196:15222   */\n      swap1\n      pop\n        /* \"#utility.yul\":15232:15303   */\n      tag_501\n        /* \"#utility.yul\":15300:15301   */\n      0x00\n        /* \"#utility.yul\":15289:15298   */\n      dup4\n        /* \"#utility.yul\":15285:15302   */\n      add\n        /* \"#utility.yul\":15276:15282   */\n      dup7\n        /* \"#utility.yul\":15232:15303   */\n      tag_309\n      jump\t// in\n    tag_501:\n        /* \"#utility.yul\":15313:15385   */\n      tag_502\n        /* \"#utility.yul\":15381:15383   */\n      0x20\n        /* \"#utility.yul\":15370:15379   */\n      dup4\n        /* \"#utility.yul\":15366:15384   */\n      add\n        /* \"#utility.yul\":15357:15363   */\n      dup6\n        /* \"#utility.yul\":15313:15385   */\n      tag_306\n      jump\t// in\n    tag_502:\n        /* \"#utility.yul\":15395:15461   */\n      tag_503\n        /* \"#utility.yul\":15457:15459   */\n      0x40\n        /* \"#utility.yul\":15446:15455   */\n      dup4\n        /* \"#utility.yul\":15442:15460   */\n      add\n        /* \"#utility.yul\":15433:15439   */\n      dup5\n        /* \"#utility.yul\":15395:15461   */\n      tag_303\n      jump\t// in\n    tag_503:\n        /* \"#utility.yul\":15038:15468   */\n      swap5\n      swap4\n      pop\n      pop\n      pop\n      pop\n      jump\t// out\n        /* \"#utility.yul\":15474:15695   */\n    tag_310:\n        /* \"#utility.yul\":15614:15648   */\n      0x4f6e6c792061646d696e2063616e20706572666f726d20746869732061637469\n        /* \"#utility.yul\":15610:15611   */\n      0x00\n        /* \"#utility.yul\":15602:15608   */\n      dup3\n        /* \"#utility.yul\":15598:15612   */\n      add\n        /* \"#utility.yul\":15591:15649   */\n      mstore\n        /* \"#utility.yul\":15683:15687   */\n      0x6f6e000000000000000000000000000000000000000000000000000000000000\n        /* \"#utility.yul\":15678:15680   */\n      0x20\n        /* \"#utility.yul\":15670:15676   */\n      dup3\n        /* \"#utility.yul\":15666:15681   */\n      add\n        /* \"#utility.yul\":15659:15688   */\n      mstore\n        /* \"#utility.yul\":15474:15695   */\n      pop\n      jump\t// out\n        /* \"#utility.yul\":15701:16067   */\n    tag_311:\n        /* \"#utility.yul\":15843:15846   */\n      0x00\n        /* \"#utility.yul\":15864:15931   */\n      tag_506\n        /* \"#utility.yul\":15928:15930   */\n      0x22\n        /* \"#utility.yul\":15923:15926   */\n      dup4\n        /* \"#utility.yul\":15864:15931   */\n      tag_307\n      jump\t// in\n    tag_506:\n        /* \"#utility.yul\":15857:15931   */\n      swap2\n      pop\n        /* \"#utility.yul\":15940:16033   */\n      tag_507\n        /* \"#utility.yul\":16029:16032   */\n      dup3\n        /* \"#utility.yul\":15940:16033   */\n      tag_310\n      jump\t// in\n    tag_507:\n        /* \"#utility.yul\":16058:16060   */\n      0x40\n        /* \"#utility.yul\":16053:16056   */\n      dup3\n        /* \"#utility.yul\":16049:16061   */\n      add\n        /* \"#utility.yul\":16042:16061   */\n      swap1\n      pop\n        /* \"#utility.yul\":15701:16067   */\n      swap2\n      swap1\n      pop\n      jump\t// out\n        /* \"#utility.yul\":16073:16492   */\n    tag_96:\n        /* \"#utility.yul\":16239:16243   */\n      0x00\n        /* \"#utility.yul\":16277:16279   */\n      0x20\n        /* \"#utility.yul\":16266:16275   */\n      dup3\n        /* \"#utility.yul\":16262:16280   */\n      add\n        /* \"#utility.yul\":16254:16280   */\n      swap1\n      pop\n        /* \"#utility.yul\":16326:16335   */\n      dup2\n        /* \"#utility.yul\":16320:16324   */\n      dup2\n        /* \"#utility.yul\":16316:16336   */\n      sub\n        /* \"#utility.yul\":16312:16313   */\n      0x00\n        /* \"#utility.yul\":16301:16310   */\n      dup4\n        /* \"#utility.yul\":16297:16314   */\n      add\n        /* \"#utility.yul\":16290:16337   */\n      mstore\n        /* \"#utility.yul\":16354:16485   */\n      tag_509\n        /* \"#utility.yul\":16480:16484   */\n      dup2\n        /* \"#utility.yul\":16354:16485   */\n      tag_311\n      jump\t// in\n    tag_509:\n        /* \"#utility.yul\":16346:16485   */\n      swap1\n      pop\n        /* \"#utility.yul\":16073:16492   */\n      swap2\n      swap1\n      pop\n      jump\t// out\n        /* \"#utility.yul\":16498:16680   */\n    tag_312:\n        /* \"#utility.yul\":16638:16672   */\n      0x4174206c656173742074776f2063616e64696461746573207265717569726564\n        /* \"#utility.yul\":16634:16635   */\n      0x00\n        /* \"#utility.yul\":16626:16632   */\n      dup3\n        /* \"#utility.yul\":16622:16636   */\n      add\n        /* \"#utility.yul\":16615:16673   */\n      mstore\n        /* \"#utility.yul\":16498:16680   */\n      pop\n      jump\t// out\n        /* \"#utility.yul\":16686:17052   */\n    tag_313:\n        /* \"#utility.yul\":16828:16831   */\n      0x00\n        /* \"#utility.yul\":16849:16916   */\n      tag_512\n        /* \"#utility.yul\":16913:16915   */\n      0x20\n        /* \"#utility.yul\":16908:16911   */\n      dup4\n        /* \"#utility.yul\":16849:16916   */\n      tag_307\n      jump\t// in\n    tag_512:\n        /* \"#utility.yul\":16842:16916   */\n      swap2\n      pop\n        /* \"#utility.yul\":16925:17018   */\n      tag_513\n        /* \"#utility.yul\":17014:17017   */\n      dup3\n        /* \"#utility.yul\":16925:17018   */\n      tag_312\n      jump\t// in\n    tag_513:\n        /* \"#utility.yul\":17043:17045   */\n      0x20\n        /* \"#utility.yul\":17038:17041   */\n      dup3\n        /* \"#utility.yul\":17034:17046   */\n      add\n        /* \"#utility.yul\":17027:17046   */\n      swap1\n      pop\n        /* \"#utility.yul\":16686:17052   */\n      swap2\n      swap1\n      pop\n      jump\t// out\n        /* \"#utility.yul\":17058:17477   */\n    tag_100:\n        /* \"#utility.yul\":17224:17228   */\n      0x00\n        /* \"#utility.yul\":17262:17264   */\n      0x20\n        /* \"#utility.yul\":17251:17260   */\n      dup3\n        /* \"#utility.yul\":17247:17265   */\n      add\n        /* \"#utility.yul\":17239:17265   */\n      swap1\n      pop\n        /* \"#utility.yul\":17311:17320   */\n      dup2\n        /* \"#utility.yul\":17305:17309   */\n      dup2\n        /* \"#utility.yul\":17301:17321   */\n      sub\n        /* \"#utility.yul\":17297:17298   */\n      0x00\n        /* \"#utility.yul\":17286:17295   */\n      dup4\n        /* \"#utility.yul\":17282:17299   */\n      add\n        /* \"#utility.yul\":17275:17322   */\n      mstore\n        /* \"#utility.yul\":17339:17470   */\n      tag_515\n        /* \"#utility.yul\":17465:17469   */\n      dup2\n        /* \"#utility.yul\":17339:17470   */\n      tag_313\n      jump\t// in\n    tag_515:\n        /* \"#utility.yul\":17331:17470   */\n      swap1\n      pop\n        /* \"#utility.yul\":17058:17477   */\n      swap2\n      swap1\n      pop\n      jump\t// out\n        /* \"#utility.yul\":17483:17663   */\n    tag_114:\n        /* \"#utility.yul\":17531:17608   */\n      0x4e487b7100000000000000000000000000000000000000000000000000000000\n        /* \"#utility.yul\":17528:17529   */\n      0x00\n        /* \"#utility.yul\":17521:17609   */\n      mstore\n        /* \"#utility.yul\":17628:17632   */\n      0x32\n        /* \"#utility.yul\":17625:17626   */\n      0x04\n        /* \"#utility.yul\":17618:17633   */\n      mstore\n        /* \"#utility.yul\":17652:17656   */\n      0x24\n        /* \"#utility.yul\":17649:17650   */\n      0x00\n        /* \"#utility.yul\":17642:17657   */\n      revert\n        /* \"#utility.yul\":17669:17849   */\n    tag_314:\n        /* \"#utility.yul\":17717:17794   */\n      0x4e487b7100000000000000000000000000000000000000000000000000000000\n        /* \"#utility.yul\":17714:17715   */\n      0x00\n        /* \"#utility.yul\":17707:17795   */\n      mstore\n        /* \"#utility.yul\":17814:17818   */\n      0x22\n        /* \"#utility.yul\":17811:17812   */\n      0x04\n        /* \"#utility.yul\":17804:17819   */\n      mstore\n        /* \"#utility.yul\":17838:17842   */\n      0x24\n        /* \"#utility.yul\":17835:17836   */\n      0x00\n        /* \"#utility.yul\":17828:17843   */\n      revert\n        /* \"#utility.yul\":17855:18175   */\n    tag_117:\n        /* \"#utility.yul\":17899:17905   */\n      0x00\n        /* \"#utility.yul\":17936:17937   */\n      0x02\n        /* \"#utility.yul\":17930:17934   */\n      dup3\n        /* \"#utility.yul\":17926:17938   */\n      div\n        /* \"#utility.yul\":17916:17938   */\n      swap1\n      pop\n        /* \"#utility.yul\":17983:17984   */\n      0x01\n        /* \"#utility.yul\":17977:17981   */\n      dup3\n        /* \"#utility.yul\":17973:17985   */\n      and\n        /* \"#utility.yul\":18004:18022   */\n      dup1\n        /* \"#utility.yul\":17994:18075   */\n      tag_519\n      jumpi\n        /* \"#utility.yul\":18060:18064   */\n      0x7f\n        /* \"#utility.yul\":18052:18058   */\n      dup3\n        /* \"#utility.yul\":18048:18065   */\n      and\n        /* \"#utility.yul\":18038:18065   */\n      swap2\n      pop\n        /* \"#utility.yul\":17994:18075   */\n    tag_519:\n        /* \"#utility.yul\":18122:18124   */\n      0x20\n        /* \"#utility.yul\":18114:18120   */\n      dup3\n        /* \"#utility.yul\":18111:18125   */\n      lt\n        /* \"#utility.yul\":18091:18109   */\n      dup2\n        /* \"#utility.yul\":18088:18126   */\n      sub\n        /* \"#utility.yul\":18085:18169   */\n      tag_520\n      jumpi\n        /* \"#utility.yul\":18141:18159   */\n      tag_521\n      tag_314\n      jump\t// in\n    tag_521:\n        /* \"#utility.yul\":18085:18169   */\n    tag_520:\n        /* \"#utility.yul\":17906:18175   */\n      pop\n        /* \"#utility.yul\":17855:18175   */\n      swap2\n      swap1\n      pop\n      jump\t// out\n        /* \"#utility.yul\":18181:18329   */\n    tag_315:\n        /* \"#utility.yul\":18283:18294   */\n      0x00\n        /* \"#utility.yul\":18320:18323   */\n      dup2\n        /* \"#utility.yul\":18305:18323   */\n      swap1\n      pop\n        /* \"#utility.yul\":18181:18329   */\n      swap3\n      swap2\n      pop\n      pop\n      jump\t// out\n        /* \"#utility.yul\":18335:18725   */\n    tag_316:\n        /* \"#utility.yul\":18441:18444   */\n      0x00\n        /* \"#utility.yul\":18469:18508   */\n      tag_524\n        /* \"#utility.yul\":18502:18507   */\n      dup3\n        /* \"#utility.yul\":18469:18508   */\n      tag_275\n      jump\t// in\n    tag_524:\n        /* \"#utility.yul\":18524:18613   */\n      tag_525\n        /* \"#utility.yul\":18606:18612   */\n      dup2\n        /* \"#utility.yul\":18601:18604   */\n      dup6\n        /* \"#utility.yul\":18524:18613   */\n      tag_315\n      jump\t// in\n    tag_525:\n        /* \"#utility.yul\":18517:18613   */\n      swap4\n      pop\n        /* \"#utility.yul\":18622:18687   */\n      tag_526\n        /* \"#utility.yul\":18680:18686   */\n      dup2\n        /* \"#utility.yul\":18675:18678   */\n      dup6\n        /* \"#utility.yul\":18668:18672   */\n      0x20\n        /* \"#utility.yul\":18661:18666   */\n      dup7\n        /* \"#utility.yul\":18657:18673   */\n      add\n        /* \"#utility.yul\":18622:18687   */\n      tag_277\n      jump\t// in\n    tag_526:\n        /* \"#utility.yul\":18712:18718   */\n      dup1\n        /* \"#utility.yul\":18707:18710   */\n      dup5\n        /* \"#utility.yul\":18703:18719   */\n      add\n        /* \"#utility.yul\":18696:18719   */\n      swap2\n      pop\n        /* \"#utility.yul\":18445:18725   */\n      pop\n        /* \"#utility.yul\":18335:18725   */\n      swap3\n      swap2\n      pop\n      pop\n      jump\t// out\n        /* \"#utility.yul\":18731:19006   */\n    tag_132:\n        /* \"#utility.yul\":18863:18866   */\n      0x00\n        /* \"#utility.yul\":18885:18980   */\n      tag_528\n        /* \"#utility.yul\":18976:18979   */\n      dup3\n        /* \"#utility.yul\":18967:18973   */\n      dup5\n        /* \"#utility.yul\":18885:18980   */\n      tag_316\n      jump\t// in\n    tag_528:\n        /* \"#utility.yul\":18878:18980   */\n      swap2\n      pop\n        /* \"#utility.yul\":18997:19000   */\n      dup2\n        /* \"#utility.yul\":18990:19000   */\n      swap1\n      pop\n        /* \"#utility.yul\":18731:19006   */\n      swap3\n      swap2\n      pop\n      pop\n      jump\t// out\n        /* \"#utility.yul\":19012:19153   */\n    tag_317:\n        /* \"#utility.yul\":19061:19065   */\n      0x00\n        /* \"#utility.yul\":19084:19087   */\n      dup2\n        /* \"#utility.yul\":19076:19087   */\n      swap1\n      pop\n        /* \"#utility.yul\":19107:19110   */\n      dup2\n        /* \"#utility.yul\":19104:19105   */\n      0x00\n        /* \"#utility.yul\":19097:19111   */\n      mstore\n        /* \"#utility.yul\":19141:19145   */\n      0x20\n        /* \"#utility.yul\":19138:19139   */\n      0x00\n        /* \"#utility.yul\":19128:19146   */\n      keccak256\n        /* \"#utility.yul\":19120:19146   */\n      swap1\n      pop\n        /* \"#utility.yul\":19012:19153   */\n      swap2\n      swap1\n      pop\n      jump\t// out\n        /* \"#utility.yul\":19183:20057   */\n    tag_318:\n        /* \"#utility.yul\":19286:19289   */\n      0x00\n        /* \"#utility.yul\":19323:19328   */\n      dup2\n        /* \"#utility.yul\":19317:19329   */\n      sload\n        /* \"#utility.yul\":19352:19388   */\n      tag_531\n        /* \"#utility.yul\":19378:19387   */\n      dup2\n        /* \"#utility.yul\":19352:19388   */\n      tag_117\n      jump\t// in\n    tag_531:\n        /* \"#utility.yul\":19404:19493   */\n      tag_532\n        /* \"#utility.yul\":19486:19492   */\n      dup2\n        /* \"#utility.yul\":19481:19484   */\n      dup7\n        /* \"#utility.yul\":19404:19493   */\n      tag_315\n      jump\t// in\n    tag_532:\n        /* \"#utility.yul\":19397:19493   */\n      swap5\n      pop\n        /* \"#utility.yul\":19524:19525   */\n      0x01\n        /* \"#utility.yul\":19513:19522   */\n      dup3\n        /* \"#utility.yul\":19509:19526   */\n      and\n        /* \"#utility.yul\":19540:19541   */\n      0x00\n        /* \"#utility.yul\":19535:19701   */\n      dup2\n      eq\n      tag_534\n      jumpi\n        /* \"#utility.yul\":19715:19716   */\n      0x01\n        /* \"#utility.yul\":19710:20051   */\n      dup2\n      eq\n      tag_535\n      jumpi\n        /* \"#utility.yul\":19502:20051   */\n      jump(tag_533)\n        /* \"#utility.yul\":19535:19701   */\n    tag_534:\n        /* \"#utility.yul\":19619:19623   */\n      0xff\n        /* \"#utility.yul\":19615:19624   */\n      not\n        /* \"#utility.yul\":19604:19613   */\n      dup4\n        /* \"#utility.yul\":19600:19625   */\n      and\n        /* \"#utility.yul\":19595:19598   */\n      dup7\n        /* \"#utility.yul\":19588:19626   */\n      mstore\n        /* \"#utility.yul\":19681:19687   */\n      dup2\n        /* \"#utility.yul\":19674:19688   */\n      iszero\n        /* \"#utility.yul\":19667:19689   */\n      iszero\n        /* \"#utility.yul\":19659:19665   */\n      dup3\n        /* \"#utility.yul\":19655:19690   */\n      mul\n        /* \"#utility.yul\":19650:19653   */\n      dup7\n        /* \"#utility.yul\":19646:19691   */\n      add\n        /* \"#utility.yul\":19639:19691   */\n      swap4\n      pop\n        /* \"#utility.yul\":19535:19701   */\n      jump(tag_533)\n        /* \"#utility.yul\":19710:20051   */\n    tag_535:\n        /* \"#utility.yul\":19777:19815   */\n      tag_536\n        /* \"#utility.yul\":19809:19814   */\n      dup6\n        /* \"#utility.yul\":19777:19815   */\n      tag_317\n      jump\t// in\n    tag_536:\n        /* \"#utility.yul\":19837:19838   */\n      0x00\n        /* \"#utility.yul\":19851:20005   */\n    tag_537:\n        /* \"#utility.yul\":19865:19871   */\n      dup4\n        /* \"#utility.yul\":19862:19863   */\n      dup2\n        /* \"#utility.yul\":19859:19872   */\n      lt\n        /* \"#utility.yul\":19851:20005   */\n      iszero\n      tag_539\n      jumpi\n        /* \"#utility.yul\":19939:19946   */\n      dup2\n        /* \"#utility.yul\":19933:19947   */\n      sload\n        /* \"#utility.yul\":19929:19930   */\n      dup2\n        /* \"#utility.yul\":19924:19927   */\n      dup10\n        /* \"#utility.yul\":19920:19931   */\n      add\n        /* \"#utility.yul\":19913:19948   */\n      mstore\n        /* \"#utility.yul\":19989:19990   */\n      0x01\n        /* \"#utility.yul\":19980:19987   */\n      dup3\n        /* \"#utility.yul\":19976:19991   */\n      add\n        /* \"#utility.yul\":19965:19991   */\n      swap2\n      pop\n        /* \"#utility.yul\":19887:19891   */\n      0x20\n        /* \"#utility.yul\":19884:19885   */\n      dup2\n        /* \"#utility.yul\":19880:19892   */\n      add\n        /* \"#utility.yul\":19875:19892   */\n      swap1\n      pop\n        /* \"#utility.yul\":19851:20005   */\n      jump(tag_537)\n    tag_539:\n        /* \"#utility.yul\":20034:20040   */\n      dup4\n        /* \"#utility.yul\":20029:20032   */\n      dup9\n        /* \"#utility.yul\":20025:20041   */\n      add\n        /* \"#utility.yul\":20018:20041   */\n      swap6\n      pop\n        /* \"#utility.yul\":19717:20051   */\n      pop\n      pop\n        /* \"#utility.yul\":19502:20051   */\n    tag_533:\n      pop\n        /* \"#utility.yul\":19290:20057   */\n      pop\n      pop\n        /* \"#utility.yul\":19183:20057   */\n      swap3\n      swap2\n      pop\n      pop\n      jump\t// out\n        /* \"#utility.yul\":20063:20332   */\n    tag_134:\n        /* \"#utility.yul\":20192:20195   */\n      0x00\n        /* \"#utility.yul\":20214:20306   */\n      tag_541\n        /* \"#utility.yul\":20302:20305   */\n      dup3\n        /* \"#utility.yul\":20293:20299   */\n      dup5\n        /* \"#utility.yul\":20214:20306   */\n      tag_318\n      jump\t// in\n    tag_541:\n        /* \"#utility.yul\":20207:20306   */\n      swap2\n      pop\n        /* \"#utility.yul\":20323:20326   */\n      dup2\n        /* \"#utility.yul\":20316:20326   */\n      swap1\n      pop\n        /* \"#utility.yul\":20063:20332   */\n      swap3\n      swap2\n      pop\n      pop\n      jump\t// out\n        /* \"#utility.yul\":20338:20515   */\n    tag_319:\n        /* \"#utility.yul\":20478:20507   */\n      0x566f74657220697320616c726561647920726567697374657265640000000000\n        /* \"#utility.yul\":20474:20475   */\n      0x00\n        /* \"#utility.yul\":20466:20472   */\n      dup3\n        /* \"#utility.yul\":20462:20476   */\n      add\n        /* \"#utility.yul\":20455:20508   */\n      mstore\n        /* \"#utility.yul\":20338:20515   */\n      pop\n      jump\t// out\n        /* \"#utility.yul\":20521:20887   */\n    tag_320:\n        /* \"#utility.yul\":20663:20666   */\n      0x00\n        /* \"#utility.yul\":20684:20751   */\n      tag_544\n        /* \"#utility.yul\":20748:20750   */\n      0x1b\n        /* \"#utility.yul\":20743:20746   */\n      dup4\n        /* \"#utility.yul\":20684:20751   */\n      tag_307\n      jump\t// in\n    tag_544:\n        /* \"#utility.yul\":20677:20751   */\n      swap2\n      pop\n        /* \"#utility.yul\":20760:20853   */\n      tag_545\n        /* \"#utility.yul\":20849:20852   */\n      dup3\n        /* \"#utility.yul\":20760:20853   */\n      tag_319\n      jump\t// in\n    tag_545:\n        /* \"#utility.yul\":20878:20880   */\n      0x20\n        /* \"#utility.yul\":20873:20876   */\n      dup3\n        /* \"#utility.yul\":20869:20881   */\n      add\n        /* \"#utility.yul\":20862:20881   */\n      swap1\n      pop\n        /* \"#utility.yul\":20521:20887   */\n      swap2\n      swap1\n      pop\n      jump\t// out\n        /* \"#utility.yul\":20893:21312   */\n    tag_142:\n        /* \"#utility.yul\":21059:21063   */\n      0x00\n        /* \"#utility.yul\":21097:21099   */\n      0x20\n        /* \"#utility.yul\":21086:21095   */\n      dup3\n        /* \"#utility.yul\":21082:21100   */\n      add\n        /* \"#utility.yul\":21074:21100   */\n      swap1\n      pop\n        /* \"#utility.yul\":21146:21155   */\n      dup2\n        /* \"#utility.yul\":21140:21144   */\n      dup2\n        /* \"#utility.yul\":21136:21156   */\n      sub\n        /* \"#utility.yul\":21132:21133   */\n      0x00\n        /* \"#utility.yul\":21121:21130   */\n      dup4\n        /* \"#utility.yul\":21117:21134   */\n      add\n        /* \"#utility.yul\":21110:21157   */\n      mstore\n        /* \"#utility.yul\":21174:21305   */\n      tag_547\n        /* \"#utility.yul\":21300:21304   */\n      dup2\n        /* \"#utility.yul\":21174:21305   */\n      tag_320\n      jump\t// in\n    tag_547:\n        /* \"#utility.yul\":21166:21305   */\n      swap1\n      pop\n        /* \"#utility.yul\":20893:21312   */\n      swap2\n      swap1\n      pop\n      jump\t// out\n        /* \"#utility.yul\":21318:21411   */\n    tag_321:\n        /* \"#utility.yul\":21355:21361   */\n      0x00\n        /* \"#utility.yul\":21402:21404   */\n      0x20\n        /* \"#utility.yul\":21397:21399   */\n      0x1f\n        /* \"#utility.yul\":21390:21395   */\n      dup4\n        /* \"#utility.yul\":21386:21400   */\n      add\n        /* \"#utility.yul\":21382:21405   */\n      div\n        /* \"#utility.yul\":21372:21405   */\n      swap1\n      pop\n        /* \"#utility.yul\":21318:21411   */\n      swap2\n      swap1\n      pop\n      jump\t// out\n        /* \"#utility.yul\":21417:21524   */\n    tag_322:\n        /* \"#utility.yul\":21461:21469   */\n      0x00\n        /* \"#utility.yul\":21511:21516   */\n      dup3\n        /* \"#utility.yul\":21505:21509   */\n      dup3\n        /* \"#utility.yul\":21501:21517   */\n      shl\n        /* \"#utility.yul\":21480:21517   */\n      swap1\n      pop\n        /* \"#utility.yul\":21417:21524   */\n      swap3\n      swap2\n      pop\n      pop\n      jump\t// out\n        /* \"#utility.yul\":21530:21923   */\n    tag_323:\n        /* \"#utility.yul\":21599:21605   */\n      0x00\n        /* \"#utility.yul\":21649:21650   */\n      0x08\n        /* \"#utility.yul\":21637:21647   */\n      dup4\n        /* \"#utility.yul\":21633:21651   */\n      mul\n        /* \"#utility.yul\":21672:21769   */\n      tag_551\n        /* \"#utility.yul\":21702:21768   */\n      0xffffffffffffffffffffffffffffffffffffffffffffffffffffffffffffffff\n        /* \"#utility.yul\":21691:21700   */\n      dup3\n        /* \"#utility.yul\":21672:21769   */\n      tag_322\n      jump\t// in\n    tag_551:\n        /* \"#utility.yul\":21790:21829   */\n      tag_552\n        /* \"#utility.yul\":21820:21828   */\n      dup7\n        /* \"#utility.yul\":21809:21818   */\n      dup4\n        /* \"#utility.yul\":21790:21829   */\n      tag_322\n      jump\t// in\n    tag_552:\n        /* \"#utility.yul\":21778:21829   */\n      swap6\n      pop\n        /* \"#utility.yul\":21862:21866   */\n      dup1\n        /* \"#utility.yul\":21858:21867   */\n      not\n        /* \"#utility.yul\":21851:21856   */\n      dup5\n        /* \"#utility.yul\":21847:21868   */\n      and\n        /* \"#utility.yul\":21838:21868   */\n      swap4\n      pop\n        /* \"#utility.yul\":21911:21915   */\n      dup1\n        /* \"#utility.yul\":21901:21909   */\n      dup7\n        /* \"#utility.yul\":21897:21916   */\n      and\n        /* \"#utility.yul\":21890:21895   */\n      dup5\n        /* \"#utility.yul\":21887:21917   */\n      or\n        /* \"#utility.yul\":21877:21917   */\n      swap3\n      pop\n        /* \"#utility.yul\":21606:21923   */\n      pop\n      pop\n        /* \"#utility.yul\":21530:21923   */\n      swap4\n      swap3\n      pop\n      pop\n      pop\n      jump\t// out\n        /* \"#utility.yul\":21929:21989   */\n    tag_324:\n        /* \"#utility.yul\":21957:21960   */\n      0x00\n        /* \"#utility.yul\":21978:21983   */\n      dup2\n        /* \"#utility.yul\":21971:21983   */\n      swap1\n      pop\n        /* \"#utility.yul\":21929:21989   */\n      swap2\n      swap1\n      pop\n      jump\t// out\n        /* \"#utility.yul\":21995:22137   */\n    tag_325:\n        /* \"#utility.yul\":22045:22054   */\n      0x00\n        /* \"#utility.yul\":22078:22131   */\n      tag_555\n        /* \"#utility.yul\":22096:22130   */\n      tag_556\n        /* \"#utility.yul\":22105:22129   */\n      tag_557\n        /* \"#utility.yul\":22123:22128   */\n      dup5\n        /* \"#utility.yul\":22105:22129   */\n      tag_283\n      jump\t// in\n    tag_557:\n        /* \"#utility.yul\":22096:22130   */\n      tag_324\n      jump\t// in\n    tag_556:\n        /* \"#utility.yul\":22078:22131   */\n      tag_283\n      jump\t// in\n    tag_555:\n        /* \"#utility.yul\":22065:22131   */\n      swap1\n      pop\n        /* \"#utility.yul\":21995:22137   */\n      swap2\n      swap1\n      pop\n      jump\t// out\n        /* \"#utility.yul\":22143:22218   */\n    tag_326:\n        /* \"#utility.yul\":22186:22189   */\n      0x00\n        /* \"#utility.yul\":22207:22212   */\n      dup2\n        /* \"#utility.yul\":22200:22212   */\n      swap1\n      pop\n        /* \"#utility.yul\":22143:22218   */\n      swap2\n      swap1\n      pop\n      jump\t// out\n        /* \"#utility.yul\":22224:22493   */\n    tag_327:\n        /* \"#utility.yul\":22334:22373   */\n      tag_560\n        /* \"#utility.yul\":22365:22372   */\n      dup4\n        /* \"#utility.yul\":22334:22373   */\n      tag_325\n      jump\t// in\n    tag_560:\n        /* \"#utility.yul\":22395:22486   */\n      tag_561\n        /* \"#utility.yul\":22444:22485   */\n      tag_562\n        /* \"#utility.yul\":22468:22484   */\n      dup3\n        /* \"#utility.yul\":22444:22485   */\n      tag_326\n      jump\t// in\n    tag_562:\n        /* \"#utility.yul\":22436:22442   */\n      dup5\n        /* \"#utility.yul\":22429:22433   */\n      dup5\n        /* \"#utility.yul\":22423:22434   */\n      sload\n        /* \"#utility.yul\":22395:22486   */\n      tag_323\n      jump\t// in\n    tag_561:\n        /* \"#utility.yul\":22389:22393   */\n      dup3\n        /* \"#utility.yul\":22382:22487   */\n      sstore\n        /* \"#utility.yul\":22300:22493   */\n      pop\n        /* \"#utility.yul\":22224:22493   */\n      pop\n      pop\n      pop\n      jump\t// out\n        /* \"#utility.yul\":22499:22572   */\n    tag_328:\n        /* \"#utility.yul\":22544:22547   */\n      0x00\n        /* \"#utility.yul\":22499:22572   */\n      swap1\n      jump\t// out\n        /* \"#utility.yul\":22578:22767   */\n    tag_329:\n        /* \"#utility.yul\":22655:22687   */\n      tag_565\n      tag_328\n      jump\t// in\n    tag_565:\n        /* \"#utility.yul\":22696:22761   */\n      tag_566\n        /* \"#utility.yul\":22754:22760   */\n      dup2\n        /* \"#utility.yul\":22746:22752   */\n      dup5\n        /* \"#utility.yul\":22740:22744   */\n      dup5\n        /* \"#utility.yul\":22696:22761   */\n      tag_327\n      jump\t// in\n    tag_566:\n        /* \"#utility.yul\":22631:22767   */\n      pop\n        /* \"#utility.yul\":22578:22767   */\n      pop\n      pop\n      jump\t// out\n        /* \"#utility.yul\":22773:22959   */\n    tag_330:\n        /* \"#utility.yul\":22833:22953   */\n    tag_568:\n        /* \"#utility.yul\":22850:22853   */\n      dup2\n        /* \"#utility.yul\":22843:22848   */\n      dup2\n        /* \"#utility.yul\":22840:22854   */\n      lt\n        /* \"#utility.yul\":22833:22953   */\n      iszero\n      tag_570\n      jumpi\n        /* \"#utility.yul\":22904:22943   */\n      tag_571\n        /* \"#utility.yul\":22941:22942   */\n      0x00\n        /* \"#utility.yul\":22934:22939   */\n      dup3\n        /* \"#utility.yul\":22904:22943   */\n      tag_329\n      jump\t// in\n    tag_571:\n        /* \"#utility.yul\":22877:22878   */\n      0x01\n        /* \"#utility.yul\":22870:22875   */\n      dup2\n        /* \"#utility.yul\":22866:22879   */\n      add\n        /* \"#utility.yul\":22857:22879   */\n      swap1\n      pop\n        /* \"#utility.yul\":22833:22953   */\n      jump(tag_568)\n    tag_570:\n        /* \"#utility.yul\":22773:22959   */\n      pop\n      pop\n      jump\t// out\n        /* \"#utility.yul\":22965:23508   */\n    tag_331:\n        /* \"#utility.yul\":23066:23068   */\n      0x1f\n        /* \"#utility.yul\":23061:23064   */\n      dup3\n        /* \"#utility.yul\":23058:23069   */\n      gt\n        /* \"#utility.yul\":23055:23501   */\n      iszero\n      tag_573\n      jumpi\n        /* \"#utility.yul\":23100:23138   */\n      tag_574\n        /* \"#utility.yul\":23132:23137   */\n      dup2\n        /* \"#utility.yul\":23100:23138   */\n      tag_317\n      jump\t// in\n    tag_574:\n        /* \"#utility.yul\":23184:23213   */\n      tag_575\n        /* \"#utility.yul\":23202:23212   */\n      dup5\n        /* \"#utility.yul\":23184:23213   */\n      tag_321\n      jump\t// in\n    tag_575:\n        /* \"#utility.yul\":23174:23182   */\n      dup2\n        /* \"#utility.yul\":23170:23214   */\n      add\n        /* \"#utility.yul\":23367:23369   */\n      0x20\n        /* \"#utility.yul\":23355:23365   */\n      dup6\n        /* \"#utility.yul\":23352:23370   */\n      lt\n        /* \"#utility.yul\":23349:23398   */\n      iszero\n      tag_576\n      jumpi\n        /* \"#utility.yul\":23388:23396   */\n      dup2\n        /* \"#utility.yul\":23373:23396   */\n      swap1\n      pop\n        /* \"#utility.yul\":23349:23398   */\n    tag_576:\n        /* \"#utility.yul\":23411:23491   */\n      tag_577\n        /* \"#utility.yul\":23467:23489   */\n      tag_578\n        /* \"#utility.yul\":23485:23488   */\n      dup6\n        /* \"#utility.yul\":23467:23489   */\n      tag_321\n      jump\t// in\n    tag_578:\n        /* \"#utility.yul\":23457:23465   */\n      dup4\n        /* \"#utility.yul\":23453:23490   */\n      add\n        /* \"#utility.yul\":23440:23451   */\n      dup3\n        /* \"#utility.yul\":23411:23491   */\n      tag_330\n      jump\t// in\n    tag_577:\n        /* \"#utility.yul\":23070:23501   */\n      pop\n      pop\n        /* \"#utility.yul\":23055:23501   */\n    tag_573:\n        /* \"#utility.yul\":22965:23508   */\n      pop\n      pop\n      pop\n      jump\t// out\n        /* \"#utility.yul\":23514:23631   */\n    tag_332:\n        /* \"#utility.yul\":23568:23576   */\n      0x00\n        /* \"#utility.yul\":23618:23623   */\n      dup3\n        /* \"#utility.yul\":23612:23616   */\n      dup3\n        /* \"#utility.yul\":23608:23624   */\n      shr\n        /* \"#utility.yul\":23587:23624   */\n      swap1\n      pop\n        /* \"#utility.yul\":23514:23631   */\n      swap3\n      swap2\n      pop\n      pop\n      jump\t// out\n        /* \"#utility.yul\":23637:23806   */\n    tag_333:\n        /* \"#utility.yul\":23681:23687   */\n      0x00\n        /* \"#utility.yul\":23714:23765   */\n      tag_581\n        /* \"#utility.yul\":23762:23763   */\n      0x00\n        /* \"#utility.yul\":23758:23764   */\n      not\n        /* \"#utility.yul\":23750:23755   */\n      dup5\n        /* \"#utility.yul\":23747:23748   */\n      0x08\n        /* \"#utility.yul\":23743:23756   */\n      mul\n        /* \"#utility.yul\":23714:23765   */\n      tag_332\n      jump\t// in\n    tag_581:\n        /* \"#utility.yul\":23710:23766   */\n      not\n        /* \"#utility.yul\":23795:23799   */\n      dup1\n        /* \"#utility.yul\":23789:23793   */\n      dup4\n        /* \"#utility.yul\":23785:23800   */\n      and\n        /* \"#utility.yul\":23775:23800   */\n      swap2\n      pop\n        /* \"#utility.yul\":23688:23806   */\n      pop\n        /* \"#utility.yul\":23637:23806   */\n      swap3\n      swap2\n      pop\n      pop\n      jump\t// out\n        /* \"#utility.yul\":23811:24106   */\n    tag_334:\n        /* \"#utility.yul\":23887:23891   */\n      0x00\n        /* \"#utility.yul\":24033:24062   */\n      tag_583\n        /* \"#utility.yul\":24058:24061   */\n      dup4\n        /* \"#utility.yul\":24052:24056   */\n      dup4\n        /* \"#utility.yul\":24033:24062   */\n      tag_333\n      jump\t// in\n    tag_583:\n        /* \"#utility.yul\":24025:24062   */\n      swap2\n      pop\n        /* \"#utility.yul\":24095:24098   */\n      dup3\n        /* \"#utility.yul\":24092:24093   */\n      0x02\n        /* \"#utility.yul\":24088:24099   */\n      mul\n        /* \"#utility.yul\":24082:24086   */\n      dup3\n        /* \"#utility.yul\":24079:24100   */\n      or\n        /* \"#utility.yul\":24071:24100   */\n      swap1\n      pop\n        /* \"#utility.yul\":23811:24106   */\n      swap3\n      swap2\n      pop\n      pop\n      jump\t// out\n        /* \"#utility.yul\":24111:25506   */\n    tag_144:\n        /* \"#utility.yul\":24228:24265   */\n      tag_585\n        /* \"#utility.yul\":24261:24264   */\n      dup3\n        /* \"#utility.yul\":24228:24265   */\n      tag_275\n      jump\t// in\n    tag_585:\n        /* \"#utility.yul\":24330:24348   */\n      0xffffffffffffffff\n        /* \"#utility.yul\":24322:24328   */\n      dup2\n        /* \"#utility.yul\":24319:24349   */\n      gt\n        /* \"#utility.yul\":24316:24372   */\n      iszero\n      tag_586\n      jumpi\n        /* \"#utility.yul\":24352:24370   */\n      tag_587\n      tag_104\n      jump\t// in\n    tag_587:\n        /* \"#utility.yul\":24316:24372   */\n    tag_586:\n        /* \"#utility.yul\":24396:24434   */\n      tag_588\n        /* \"#utility.yul\":24428:24432   */\n      dup3\n        /* \"#utility.yul\":24422:24433   */\n      sload\n        /* \"#utility.yul\":24396:24434   */\n      tag_117\n      jump\t// in\n    tag_588:\n        /* \"#utility.yul\":24481:24548   */\n      tag_589\n        /* \"#utility.yul\":24541:24547   */\n      dup3\n        /* \"#utility.yul\":24533:24539   */\n      dup3\n        /* \"#utility.yul\":24527:24531   */\n      dup6\n        /* \"#utility.yul\":24481:24548   */\n      tag_331\n      jump\t// in\n    tag_589:\n        /* \"#utility.yul\":24575:24576   */\n      0x00\n        /* \"#utility.yul\":24599:24603   */\n      0x20\n        /* \"#utility.yul\":24586:24603   */\n      swap1\n      pop\n        /* \"#utility.yul\":24631:24633   */\n      0x1f\n        /* \"#utility.yul\":24623:24629   */\n      dup4\n        /* \"#utility.yul\":24620:24634   */\n      gt\n        /* \"#utility.yul\":24648:24649   */\n      0x01\n        /* \"#utility.yul\":24643:25261   */\n      dup2\n      eq\n      tag_591\n      jumpi\n        /* \"#utility.yul\":25305:25306   */\n      0x00\n        /* \"#utility.yul\":25322:25328   */\n      dup5\n        /* \"#utility.yul\":25319:25396   */\n      iszero\n      tag_592\n      jumpi\n        /* \"#utility.yul\":25371:25380   */\n      dup3\n        /* \"#utility.yul\":25366:25369   */\n      dup8\n        /* \"#utility.yul\":25362:25381   */\n      add\n        /* \"#utility.yul\":25356:25382   */\n      mload\n        /* \"#utility.yul\":25347:25382   */\n      swap1\n      pop\n        /* \"#utility.yul\":25319:25396   */\n    tag_592:\n        /* \"#utility.yul\":25422:25489   */\n      tag_593\n        /* \"#utility.yul\":25482:25488   */\n      dup6\n        /* \"#utility.yul\":25475:25480   */\n      dup3\n        /* \"#utility.yul\":25422:25489   */\n      tag_334\n      jump\t// in\n    tag_593:\n        /* \"#utility.yul\":25416:25420   */\n      dup7\n        /* \"#utility.yul\":25409:25490   */\n      sstore\n        /* \"#utility.yul\":25278:25500   */\n      pop\n        /* \"#utility.yul\":24613:25500   */\n      jump(tag_590)\n        /* \"#utility.yul\":24643:25261   */\n    tag_591:\n        /* \"#utility.yul\":24695:24699   */\n      0x1f\n        /* \"#utility.yul\":24691:24700   */\n      not\n        /* \"#utility.yul\":24683:24689   */\n      dup5\n        /* \"#utility.yul\":24679:24701   */\n      and\n        /* \"#utility.yul\":24729:24766   */\n      tag_594\n        /* \"#utility.yul\":24761:24765   */\n      dup7\n        /* \"#utility.yul\":24729:24766   */\n      tag_317\n      jump\t// in\n    tag_594:\n        /* \"#utility.yul\":24788:24789   */\n      0x00\n        /* \"#utility.yul\":24802:25010   */\n    tag_595:\n        /* \"#utility.yul\":24816:24823   */\n      dup3\n        /* \"#utility.yul\":24813:24814   */\n      dup2\n        /* \"#utility.yul\":24810:24824   */\n      lt\n        /* \"#utility.yul\":24802:25010   */\n      iszero\n      tag_597\n      jumpi\n        /* \"#utility.yul\":24895:24904   */\n      dup5\n        /* \"#utility.yul\":24890:24893   */\n      dup10\n        /* \"#utility.yul\":24886:24905   */\n      add\n        /* \"#utility.yul\":24880:24906   */\n      mload\n        /* \"#utility.yul\":24872:24878   */\n      dup3\n        /* \"#utility.yul\":24865:24907   */\n      sstore\n        /* \"#utility.yul\":24946:24947   */\n      0x01\n        /* \"#utility.yul\":24938:24944   */\n      dup3\n        /* \"#utility.yul\":24934:24948   */\n      add\n        /* \"#utility.yul\":24924:24948   */\n      swap2\n      pop\n        /* \"#utility.yul\":24993:24995   */\n      0x20\n        /* \"#utility.yul\":24982:24991   */\n      dup6\n        /* \"#utility.yul\":24978:24996   */\n      add\n        /* \"#utility.yul\":24965:24996   */\n      swap5\n      pop\n        /* \"#utility.yul\":24839:24843   */\n      0x20\n        /* \"#utility.yul\":24836:24837   */\n      dup2\n        /* \"#utility.yul\":24832:24844   */\n      add\n        /* \"#utility.yul\":24827:24844   */\n      swap1\n      pop\n        /* \"#utility.yul\":24802:25010   */\n      jump(tag_595)\n    tag_597:\n        /* \"#utility.yul\":25038:25044   */\n      dup7\n        /* \"#utility.yul\":25029:25036   */\n      dup4\n        /* \"#utility.yul\":25026:25045   */\n      lt\n        /* \"#utility.yul\":25023:25202   */\n      iszero\n      tag_598\n      jumpi\n        /* \"#utility.yul\":25096:25105   */\n      dup5\n        /* \"#utility.yul\":25091:25094   */\n      dup10\n        /* \"#utility.yul\":25087:25106   */\n      add\n        /* \"#utility.yul\":25081:25107   */\n      mload\n        /* \"#utility.yul\":25139:25187   */\n      tag_599\n        /* \"#utility.yul\":25181:25185   */\n      0x1f\n        /* \"#utility.yul\":25173:25179   */\n      dup10\n        /* \"#utility.yul\":25169:25186   */\n      and\n        /* \"#utility.yul\":25158:25167   */\n      dup3\n        /* \"#utility.yul\":25139:25187   */\n      tag_333\n      jump\t// in\n    tag_599:\n        /* \"#utility.yul\":25131:25137   */\n      dup4\n        /* \"#utility.yul\":25124:25188   */\n      sstore\n        /* \"#utility.yul\":25046:25202   */\n      pop\n        /* \"#utility.yul\":25023:25202   */\n    tag_598:\n        /* \"#utility.yul\":25248:25249   */\n      0x01\n        /* \"#utility.yul\":25244:25245   */\n      0x02\n        /* \"#utility.yul\":25236:25242   */\n      dup9\n        /* \"#utility.yul\":25232:25246   */\n      mul\n        /* \"#utility.yul\":25228:25250   */\n      add\n        /* \"#utility.yul\":25222:25226   */\n      dup9\n        /* \"#utility.yul\":25215:25251   */\n      sstore\n        /* \"#utility.yul\":24650:25261   */\n      pop\n      pop\n      pop\n        /* \"#utility.yul\":24613:25500   */\n    tag_590:\n      pop\n        /* \"#utility.yul\":24203:25506   */\n      pop\n      pop\n      pop\n        /* \"#utility.yul\":24111:25506   */\n      pop\n      pop\n      jump\t// out\n        /* \"#utility.yul\":25512:26136   */\n    tag_147:\n        /* \"#utility.yul\":25701:25705   */\n      0x00\n        /* \"#utility.yul\":25739:25741   */\n      0x60\n        /* \"#utility.yul\":25728:25737   */\n      dup3\n        /* \"#utility.yul\":25724:25742   */\n      add\n        /* \"#utility.yul\":25716:25742   */\n      swap1\n      pop\n        /* \"#utility.yul\":25788:25797   */\n      dup2\n        /* \"#utility.yul\":25782:25786   */\n      dup2\n        /* \"#utility.yul\":25778:25798   */\n      sub\n        /* \"#utility.yul\":25774:25775   */\n      0x00\n        /* \"#utility.yul\":25763:25772   */\n      dup4\n        /* \"#utility.yul\":25759:25776   */\n      add\n        /* \"#utility.yul\":25752:25799   */\n      mstore\n        /* \"#utility.yul\":25816:25894   */\n      tag_601\n        /* \"#utility.yul\":25889:25893   */\n      dup2\n        /* \"#utility.yul\":25880:25886   */\n      dup7\n        /* \"#utility.yul\":25816:25894   */\n      tag_308\n      jump\t// in\n    tag_601:\n        /* \"#utility.yul\":25808:25894   */\n      swap1\n      pop\n        /* \"#utility.yul\":25941:25950   */\n      dup2\n        /* \"#utility.yul\":25935:25939   */\n      dup2\n        /* \"#utility.yul\":25931:25951   */\n      sub\n        /* \"#utility.yul\":25926:25928   */\n      0x20\n        /* \"#utility.yul\":25915:25924   */\n      dup4\n        /* \"#utility.yul\":25911:25929   */\n      add\n        /* \"#utility.yul\":25904:25952   */\n      mstore\n        /* \"#utility.yul\":25969:26047   */\n      tag_602\n        /* \"#utility.yul\":26042:26046   */\n      dup2\n        /* \"#utility.yul\":26033:26039   */\n      dup6\n        /* \"#utility.yul\":25969:26047   */\n      tag_308\n      jump\t// in\n    tag_602:\n        /* \"#utility.yul\":25961:26047   */\n      swap1\n      pop\n        /* \"#utility.yul\":26057:26129   */\n      tag_603\n        /* \"#utility.yul\":26125:26127   */\n      0x40\n        /* \"#utility.yul\":26114:26123   */\n      dup4\n        /* \"#utility.yul\":26110:26128   */\n      add\n        /* \"#utility.yul\":26101:26107   */\n      dup5\n        /* \"#utility.yul\":26057:26129   */\n      tag_306\n      jump\t// in\n    tag_603:\n        /* \"#utility.yul\":25512:26136   */\n      swap5\n      swap4\n      pop\n      pop\n      pop\n      pop\n      jump\t// out\n        /* \"#utility.yul\":26142:26323   */\n    tag_335:\n        /* \"#utility.yul\":26282:26315   */\n      0x43616e64696461746520697320616c7265616479207265676973746572656400\n        /* \"#utility.yul\":26278:26279   */\n      0x00\n        /* \"#utility.yul\":26270:26276   */\n      dup3\n        /* \"#utility.yul\":26266:26280   */\n      add\n        /* \"#utility.yul\":26259:26316   */\n      mstore\n        /* \"#utility.yul\":26142:26323   */\n      pop\n      jump\t// out\n        /* \"#utility.yul\":26329:26695   */\n    tag_336:\n        /* \"#utility.yul\":26471:26474   */\n      0x00\n        /* \"#utility.yul\":26492:26559   */\n      tag_606\n        /* \"#utility.yul\":26556:26558   */\n      0x1f\n        /* \"#utility.yul\":26551:26554   */\n      dup4\n        /* \"#utility.yul\":26492:26559   */\n      tag_307\n      jump\t// in\n    tag_606:\n        /* \"#utility.yul\":26485:26559   */\n      swap2\n      pop\n        /* \"#utility.yul\":26568:26661   */\n      tag_607\n        /* \"#utility.yul\":26657:26660   */\n      dup3\n        /* \"#utility.yul\":26568:26661   */\n      tag_335\n      jump\t// in\n    tag_607:\n        /* \"#utility.yul\":26686:26688   */\n      0x20\n        /* \"#utility.yul\":26681:26684   */\n      dup3\n        /* \"#utility.yul\":26677:26689   */\n      add\n        /* \"#utility.yul\":26670:26689   */\n      swap1\n      pop\n        /* \"#utility.yul\":26329:26695   */\n      swap2\n      swap1\n      pop\n      jump\t// out\n        /* \"#utility.yul\":26701:27120   */\n    tag_154:\n        /* \"#utility.yul\":26867:26871   */\n      0x00\n        /* \"#utility.yul\":26905:26907   */\n      0x20\n        /* \"#utility.yul\":26894:26903   */\n      dup3\n        /* \"#utility.yul\":26890:26908   */\n      add\n        /* \"#utility.yul\":26882:26908   */\n      swap1\n      pop\n        /* \"#utility.yul\":26954:26963   */\n      dup2\n        /* \"#utility.yul\":26948:26952   */\n      dup2\n        /* \"#utility.yul\":26944:26964   */\n      sub\n        /* \"#utility.yul\":26940:26941   */\n      0x00\n        /* \"#utility.yul\":26929:26938   */\n      dup4\n        /* \"#utility.yul\":26925:26942   */\n      add\n        /* \"#utility.yul\":26918:26965   */\n      mstore\n        /* \"#utility.yul\":26982:27113   */\n      tag_609\n        /* \"#utility.yul\":27108:27112   */\n      dup2\n        /* \"#utility.yul\":26982:27113   */\n      tag_336\n      jump\t// in\n    tag_609:\n        /* \"#utility.yul\":26974:27113   */\n      swap1\n      pop\n        /* \"#utility.yul\":26701:27120   */\n      swap2\n      swap1\n      pop\n      jump\t// out\n        /* \"#utility.yul\":27126:27640   */\n    tag_159:\n        /* \"#utility.yul\":27287:27291   */\n      0x00\n        /* \"#utility.yul\":27325:27327   */\n      0x40\n        /* \"#utility.yul\":27314:27323   */\n      dup3\n        /* \"#utility.yul\":27310:27328   */\n      add\n        /* \"#utility.yul\":27302:27328   */\n      swap1\n      pop\n        /* \"#utility.yul\":27374:27383   */\n      dup2\n        /* \"#utility.yul\":27368:27372   */\n      dup2\n        /* \"#utility.yul\":27364:27384   */\n      sub\n        /* \"#utility.yul\":27360:27361   */\n      0x00\n        /* \"#utility.yul\":27349:27358   */\n      dup4\n        /* \"#utility.yul\":27345:27362   */\n      add\n        /* \"#utility.yul\":27338:27385   */\n      mstore\n        /* \"#utility.yul\":27402:27480   */\n      tag_611\n        /* \"#utility.yul\":27475:27479   */\n      dup2\n        /* \"#utility.yul\":27466:27472   */\n      dup6\n        /* \"#utility.yul\":27402:27480   */\n      tag_308\n      jump\t// in\n    tag_611:\n        /* \"#utility.yul\":27394:27480   */\n      swap1\n      pop\n        /* \"#utility.yul\":27527:27536   */\n      dup2\n        /* \"#utility.yul\":27521:27525   */\n      dup2\n        /* \"#utility.yul\":27517:27537   */\n      sub\n        /* \"#utility.yul\":27512:27514   */\n      0x20\n        /* \"#utility.yul\":27501:27510   */\n      dup4\n        /* \"#utility.yul\":27497:27515   */\n      add\n        /* \"#utility.yul\":27490:27538   */\n      mstore\n        /* \"#utility.yul\":27555:27633   */\n      tag_612\n        /* \"#utility.yul\":27628:27632   */\n      dup2\n        /* \"#utility.yul\":27619:27625   */\n      dup5\n        /* \"#utility.yul\":27555:27633   */\n      tag_308\n      jump\t// in\n    tag_612:\n        /* \"#utility.yul\":27547:27633   */\n      swap1\n      pop\n        /* \"#utility.yul\":27126:27640   */\n      swap4\n      swap3\n      pop\n      pop\n      pop\n      jump\t// out\n        /* \"#utility.yul\":27646:27816   */\n    tag_337:\n        /* \"#utility.yul\":27786:27808   */\n      0x566f74696e67206973206e6f7420616374697665000000000000000000000000\n        /* \"#utility.yul\":27782:27783   */\n      0x00\n        /* \"#utility.yul\":27774:27780   */\n      dup3\n        /* \"#utility.yul\":27770:27784   */\n      add\n        /* \"#utility.yul\":27763:27809   */\n      mstore\n        /* \"#utility.yul\":27646:27816   */\n      pop\n      jump\t// out\n        /* \"#utility.yul\":27822:28188   */\n    tag_338:\n        /* \"#utility.yul\":27964:27967   */\n      0x00\n        /* \"#utility.yul\":27985:28052   */\n      tag_615\n        /* \"#utility.yul\":28049:28051   */\n      0x14\n        /* \"#utility.yul\":28044:28047   */\n      dup4\n        /* \"#utility.yul\":27985:28052   */\n      tag_307\n      jump\t// in\n    tag_615:\n        /* \"#utility.yul\":27978:28052   */\n      swap2\n      pop\n        /* \"#utility.yul\":28061:28154   */\n      tag_616\n        /* \"#utility.yul\":28150:28153   */\n      dup3\n        /* \"#utility.yul\":28061:28154   */\n      tag_337\n      jump\t// in\n    tag_616:\n        /* \"#utility.yul\":28179:28181   */\n      0x20\n        /* \"#utility.yul\":28174:28177   */\n      dup3\n        /* \"#utility.yul\":28170:28182   */\n      add\n        /* \"#utility.yul\":28163:28182   */\n      swap1\n      pop\n        /* \"#utility.yul\":27822:28188   */\n      swap2\n      swap1\n      pop\n      jump\t// out\n        /* \"#utility.yul\":28194:28613   */\n    tag_164:\n        /* \"#utility.yul\":28360:28364   */\n      0x00\n        /* \"#utility.yul\":28398:28400   */\n      0x20\n        /* \"#utility.yul\":28387:28396   */\n      dup3\n        /* \"#utility.yul\":28383:28401   */\n      add\n        /* \"#utility.yul\":28375:28401   */\n      swap1\n      pop\n        /* \"#utility.yul\":28447:28456   */\n      dup2\n        /* \"#utility.yul\":28441:28445   */\n      dup2\n        /* \"#utility.yul\":28437:28457   */\n      sub\n        /* \"#utility.yul\":28433:28434   */\n      0x00\n        /* \"#utility.yul\":28422:28431   */\n      dup4\n        /* \"#utility.yul\":28418:28435   */\n      add\n        /* \"#utility.yul\":28411:28458   */\n      mstore\n        /* \"#utility.yul\":28475:28606   */\n      tag_618\n        /* \"#utility.yul\":28601:28605   */\n      dup2\n        /* \"#utility.yul\":28475:28606   */\n      tag_338\n      jump\t// in\n    tag_618:\n        /* \"#utility.yul\":28467:28606   */\n      swap1\n      pop\n        /* \"#utility.yul\":28194:28613   */\n      swap2\n      swap1\n      pop\n      jump\t// out\n        /* \"#utility.yul\":28619:28800   */\n    tag_339:\n        /* \"#utility.yul\":28759:28792   */\n      0x4f6e6c79207265676973746572656420766f746572732063616e20766f746500\n        /* \"#utility.yul\":28755:28756   */\n      0x00\n        /* \"#utility.yul\":28747:28753   */\n      dup3\n        /* \"#utility.yul\":28743:28757   */\n      add\n        /* \"#utility.yul\":28736:28793   */\n      mstore\n        /* \"#utility.yul\":28619:28800   */\n      pop\n      jump\t// out\n        /* \"#utility.yul\":28806:29172   */\n    tag_340:\n        /* \"#utility.yul\":28948:28951   */\n      0x00\n        /* \"#utility.yul\":28969:29036   */\n      tag_621\n        /* \"#utility.yul\":29033:29035   */\n      0x1f\n        /* \"#utility.yul\":29028:29031   */\n      dup4\n        /* \"#utility.yul\":28969:29036   */\n      tag_307\n      jump\t// in\n    tag_621:\n        /* \"#utility.yul\":28962:29036   */\n      swap2\n      pop\n        /* \"#utility.yul\":29045:29138   */\n      tag_622\n        /* \"#utility.yul\":29134:29137   */\n      dup3\n        /* \"#utility.yul\":29045:29138   */\n      tag_339\n      jump\t// in\n    tag_622:\n        /* \"#utility.yul\":29163:29165   */\n      0x20\n        /* \"#utility.yul\":29158:29161   */\n      dup3\n        /* \"#utility.yul\":29154:29166   */\n      add\n        /* \"#utility.yul\":29147:29166   */\n      swap1\n      pop\n        /* \"#utility.yul\":28806:29172   */\n      swap2\n      swap1\n      pop\n      jump\t// out\n        /* \"#utility.yul\":29178:29597   */\n    tag_168:\n        /* \"#utility.yul\":29344:29348   */\n      0x00\n        /* \"#utility.yul\":29382:29384   */\n      0x20\n        /* \"#utility.yul\":29371:29380   */\n      dup3\n        /* \"#utility.yul\":29367:29385   */\n      add\n        /* \"#utility.yul\":29359:29385   */\n      swap1\n      pop\n        /* \"#utility.yul\":29431:29440   */\n      dup2\n        /* \"#utility.yul\":29425:29429   */\n      dup2\n        /* \"#utility.yul\":29421:29441   */\n      sub\n        /* \"#utility.yul\":29417:29418   */\n      0x00\n        /* \"#utility.yul\":29406:29415   */\n      dup4\n        /* \"#utility.yul\":29402:29419   */\n      add\n        /* \"#utility.yul\":29395:29442   */\n      mstore\n        /* \"#utility.yul\":29459:29590   */\n      tag_624\n        /* \"#utility.yul\":29585:29589   */\n      dup2\n        /* \"#utility.yul\":29459:29590   */\n      tag_340\n      jump\t// in\n    tag_624:\n        /* \"#utility.yul\":29451:29590   */\n      swap1\n      pop\n        /* \"#utility.yul\":29178:29597   */\n      swap2\n      swap1\n      pop\n      jump\t// out\n        /* \"#utility.yul\":29603:29776   */\n    tag_341:\n        /* \"#utility.yul\":29743:29768   */\n      0x566f7465722068617320616c726561647920766f746564000000000000000000\n        /* \"#utility.yul\":29739:29740   */\n      0x00\n        /* \"#utility.yul\":29731:29737   */\n      dup3\n        /* \"#utility.yul\":29727:29741   */\n      add\n        /* \"#utility.yul\":29720:29769   */\n      mstore\n        /* \"#utility.yul\":29603:29776   */\n      pop\n      jump\t// out\n        /* \"#utility.yul\":29782:30148   */\n    tag_342:\n        /* \"#utility.yul\":29924:29927   */\n      0x00\n        /* \"#utility.yul\":29945:30012   */\n      tag_627\n        /* \"#utility.yul\":30009:30011   */\n      0x17\n        /* \"#utility.yul\":30004:30007   */\n      dup4\n        /* \"#utility.yul\":29945:30012   */\n      tag_307\n      jump\t// in\n    tag_627:\n        /* \"#utility.yul\":29938:30012   */\n      swap2\n      pop\n        /* \"#utility.yul\":30021:30114   */\n      tag_628\n        /* \"#utility.yul\":30110:30113   */\n      dup3\n        /* \"#utility.yul\":30021:30114   */\n      tag_341\n      jump\t// in\n    tag_628:\n        /* \"#utility.yul\":30139:30141   */\n      0x20\n        /* \"#utility.yul\":30134:30137   */\n      dup3\n        /* \"#utility.yul\":30130:30142   */\n      add\n        /* \"#utility.yul\":30123:30142   */\n      swap1\n      pop\n        /* \"#utility.yul\":29782:30148   */\n      swap2\n      swap1\n      pop\n      jump\t// out\n        /* \"#utility.yul\":30154:30573   */\n    tag_171:\n        /* \"#utility.yul\":30320:30324   */\n      0x00\n        /* \"#utility.yul\":30358:30360   */\n      0x20\n        /* \"#utility.yul\":30347:30356   */\n      dup3\n        /* \"#utility.yul\":30343:30361   */\n      add\n        /* \"#utility.yul\":30335:30361   */\n      swap1\n      pop\n        /* \"#utility.yul\":30407:30416   */\n      dup2\n        /* \"#utility.yul\":30401:30405   */\n      dup2\n        /* \"#utility.yul\":30397:30417   */\n      sub\n        /* \"#utility.yul\":30393:30394   */\n      0x00\n        /* \"#utility.yul\":30382:30391   */\n      dup4\n        /* \"#utility.yul\":30378:30395   */\n      add\n        /* \"#utility.yul\":30371:30418   */\n      mstore\n        /* \"#utility.yul\":30435:30566   */\n      tag_630\n        /* \"#utility.yul\":30561:30565   */\n      dup2\n        /* \"#utility.yul\":30435:30566   */\n      tag_342\n      jump\t// in\n    tag_630:\n        /* \"#utility.yul\":30427:30566   */\n      swap1\n      pop\n        /* \"#utility.yul\":30154:30573   */\n      swap2\n      swap1\n      pop\n      jump\t// out\n        /* \"#utility.yul\":30579:30753   */\n    tag_343:\n        /* \"#utility.yul\":30719:30745   */\n      0x43616e64696461746520646f6573206e6f742065786973740000000000000000\n        /* \"#utility.yul\":30715:30716   */\n      0x00\n        /* \"#utility.yul\":30707:30713   */\n      dup3\n        /* \"#utility.yul\":30703:30717   */\n      add\n        /* \"#utility.yul\":30696:30746   */\n      mstore\n        /* \"#utility.yul\":30579:30753   */\n      pop\n      jump\t// out\n        /* \"#utility.yul\":30759:31125   */\n    tag_344:\n        /* \"#utility.yul\":30901:30904   */\n      0x00\n        /* \"#utility.yul\":30922:30989   */\n      tag_633\n        /* \"#utility.yul\":30986:30988   */\n      0x18\n        /* \"#utility.yul\":30981:30984   */\n      dup4\n        /* \"#utility.yul\":30922:30989   */\n      tag_307\n      jump\t// in\n    tag_633:\n        /* \"#utility.yul\":30915:30989   */\n      swap2\n      pop\n        /* \"#utility.yul\":30998:31091   */\n      tag_634\n        /* \"#utility.yul\":31087:31090   */\n      dup3\n        /* \"#utility.yul\":30998:31091   */\n      tag_343\n      jump\t// in\n    tag_634:\n        /* \"#utility.yul\":31116:31118   */\n      0x20\n        /* \"#utility.yul\":31111:31114   */\n      dup3\n        /* \"#utility.yul\":31107:31119   */\n      add\n        /* \"#utility.yul\":31100:31119   */\n      swap1\n      pop\n        /* \"#utility.yul\":30759:31125   */\n      swap2\n      swap1\n      pop\n      jump\t// out\n        /* \"#utility.yul\":31131:31550   */\n    tag_174:\n        /* \"#utility.yul\":31297:31301   */\n      0x00\n        /* \"#utility.yul\":31335:31337   */\n      0x20\n        /* \"#utility.yul\":31324:31333   */\n      dup3\n        /* \"#utility.yul\":31320:31338   */\n      add\n        /* \"#utility.yul\":31312:31338   */\n      swap1\n      pop\n        /* \"#utility.yul\":31384:31393   */\n      dup2\n        /* \"#utility.yul\":31378:31382   */\n      dup2\n        /* \"#utility.yul\":31374:31394   */\n      sub\n        /* \"#utility.yul\":31370:31371   */\n      0x00\n        /* \"#utility.yul\":31359:31368   */\n      dup4\n        /* \"#utility.yul\":31355:31372   */\n      add\n        /* \"#utility.yul\":31348:31395   */\n      mstore\n        /* \"#utility.yul\":31412:31543   */\n      tag_636\n        /* \"#utility.yul\":31538:31542   */\n      dup2\n        /* \"#utility.yul\":31412:31543   */\n      tag_344\n      jump\t// in\n    tag_636:\n        /* \"#utility.yul\":31404:31543   */\n      swap1\n      pop\n        /* \"#utility.yul\":31131:31550   */\n      swap2\n      swap1\n      pop\n      jump\t// out\n        /* \"#utility.yul\":31556:31736   */\n    tag_345:\n        /* \"#utility.yul\":31604:31681   */\n      0x4e487b7100000000000000000000000000000000000000000000000000000000\n        /* \"#utility.yul\":31601:31602   */\n      0x00\n        /* \"#utility.yul\":31594:31682   */\n      mstore\n        /* \"#utility.yul\":31701:31705   */\n      0x11\n        /* \"#utility.yul\":31698:31699   */\n      0x04\n        /* \"#utility.yul\":31691:31706   */\n      mstore\n        /* \"#utility.yul\":31725:31729   */\n      0x24\n        /* \"#utility.yul\":31722:31723   */\n      0x00\n        /* \"#utility.yul\":31715:31730   */\n      revert\n        /* \"#utility.yul\":31742:31975   */\n    tag_176:\n        /* \"#utility.yul\":31781:31784   */\n      0x00\n        /* \"#utility.yul\":31804:31828   */\n      tag_639\n        /* \"#utility.yul\":31822:31827   */\n      dup3\n        /* \"#utility.yul\":31804:31828   */\n      tag_283\n      jump\t// in\n    tag_639:\n        /* \"#utility.yul\":31795:31828   */\n      swap2\n      pop\n        /* \"#utility.yul\":31850:31916   */\n      0xffffffffffffffffffffffffffffffffffffffffffffffffffffffffffffffff\n        /* \"#utility.yul\":31843:31848   */\n      dup3\n        /* \"#utility.yul\":31840:31917   */\n      sub\n        /* \"#utility.yul\":31837:31940   */\n      tag_640\n      jumpi\n        /* \"#utility.yul\":31920:31938   */\n      tag_641\n      tag_345\n      jump\t// in\n    tag_641:\n        /* \"#utility.yul\":31837:31940   */\n    tag_640:\n        /* \"#utility.yul\":31967:31968   */\n      0x01\n        /* \"#utility.yul\":31960:31965   */\n      dup3\n        /* \"#utility.yul\":31956:31969   */\n      add\n        /* \"#utility.yul\":31949:31969   */\n      swap1\n      pop\n        /* \"#utility.yul\":31742:31975   */\n      swap2\n      swap1\n      pop\n      jump\t// out\n        /* \"#utility.yul\":31981:32153   */\n    tag_346:\n        /* \"#utility.yul\":32121:32145   */\n      0x566f74696e6720686173206e6f74207374617274656400000000000000000000\n        /* \"#utility.yul\":32117:32118   */\n      0x00\n        /* \"#utility.yul\":32109:32115   */\n      dup3\n        /* \"#utility.yul\":32105:32119   */\n      add\n        /* \"#utility.yul\":32098:32146   */\n      mstore\n        /* \"#utility.yul\":31981:32153   */\n      pop\n      jump\t// out\n        /* \"#utility.yul\":32159:32525   */\n    tag_347:\n        /* \"#utility.yul\":32301:32304   */\n      0x00\n        /* \"#utility.yul\":32322:32389   */\n      tag_644\n        /* \"#utility.yul\":32386:32388   */\n      0x16\n        /* \"#utility.yul\":32381:32384   */\n      dup4\n        /* \"#utility.yul\":32322:32389   */\n      tag_307\n      jump\t// in\n    tag_644:\n        /* \"#utility.yul\":32315:32389   */\n      swap2\n      pop\n        /* \"#utility.yul\":32398:32491   */\n      tag_645\n        /* \"#utility.yul\":32487:32490   */\n      dup3\n        /* \"#utility.yul\":32398:32491   */\n      tag_346\n      jump\t// in\n    tag_645:\n        /* \"#utility.yul\":32516:32518   */\n      0x20\n        /* \"#utility.yul\":32511:32514   */\n      dup3\n        /* \"#utility.yul\":32507:32519   */\n      add\n        /* \"#utility.yul\":32500:32519   */\n      swap1\n      pop\n        /* \"#utility.yul\":32159:32525   */\n      swap2\n      swap1\n      pop\n      jump\t// out\n        /* \"#utility.yul\":32531:32950   */\n    tag_204:\n        /* \"#utility.yul\":32697:32701   */\n      0x00\n        /* \"#utility.yul\":32735:32737   */\n      0x20\n        /* \"#utility.yul\":32724:32733   */\n      dup3\n        /* \"#utility.yul\":32720:32738   */\n      add\n        /* \"#utility.yul\":32712:32738   */\n      swap1\n      pop\n        /* \"#utility.yul\":32784:32793   */\n      dup2\n        /* \"#utility.yul\":32778:32782   */\n      dup2\n        /* \"#utility.yul\":32774:32794   */\n      sub\n        /* \"#utility.yul\":32770:32771   */\n      0x00\n        /* \"#utility.yul\":32759:32768   */\n      dup4\n        /* \"#utility.yul\":32755:32772   */\n      add\n        /* \"#utility.yul\":32748:32795   */\n      mstore\n        /* \"#utility.yul\":32812:32943   */\n      tag_647\n        /* \"#utility.yul\":32938:32942   */\n      dup2\n        /* \"#utility.yul\":32812:32943   */\n      tag_347\n      jump\t// in\n    tag_647:\n        /* \"#utility.yul\":32804:32943   */\n      swap1\n      pop\n        /* \"#utility.yul\":32531:32950   */\n      swap2\n      swap1\n      pop\n      jump\t// out\n        /* \"#utility.yul\":32956:33130   */\n    tag_348:\n        /* \"#utility.yul\":33096:33122   */\n      0x566f74696e672068617320616c726561647920656e6465640000000000000000\n        /* \"#utility.yul\":33092:33093   */\n      0x00\n        /* \"#utility.yul\":33084:33090   */\n      dup3\n        /* \"#utility.yul\":33080:33094   */\n      add\n        /* \"#utility.yul\":33073:33123   */\n      mstore\n        /* \"#utility.yul\":32956:33130   */\n      pop\n      jump\t// out\n        /* \"#utility.yul\":33136:33502   */\n    tag_349:\n        /* \"#utility.yul\":33278:33281   */\n      0x00\n        /* \"#utility.yul\":33299:33366   */\n      tag_650\n        /* \"#utility.yul\":33363:33365   */\n      0x18\n        /* \"#utility.yul\":33358:33361   */\n      dup4\n        /* \"#utility.yul\":33299:33366   */\n      tag_307\n      jump\t// in\n    tag_650:\n        /* \"#utility.yul\":33292:33366   */\n      swap2\n      pop\n        /* \"#utility.yul\":33375:33468   */\n      tag_651\n        /* \"#utility.yul\":33464:33467   */\n      dup3\n        /* \"#utility.yul\":33375:33468   */\n      tag_348\n      jump\t// in\n    tag_651:\n        /* \"#utility.yul\":33493:33495   */\n      0x20\n        /* \"#utility.yul\":33488:33491   */\n      dup3\n        /* \"#utility.yul\":33484:33496   */\n      add\n        /* \"#utility.yul\":33477:33496   */\n      swap1\n      pop\n        /* \"#utility.yul\":33136:33502   */\n      swap2\n      swap1\n      pop\n      jump\t// out\n        /* \"#utility.yul\":33508:33927   */\n    tag_207:\n        /* \"#utility.yul\":33674:33678   */\n      0x00\n        /* \"#utility.yul\":33712:33714   */\n      0x20\n        /* \"#utility.yul\":33701:33710   */\n      dup3\n        /* \"#utility.yul\":33697:33715   */\n      add\n        /* \"#utility.yul\":33689:33715   */\n      swap1\n      pop\n        /* \"#utility.yul\":33761:33770   */\n      dup2\n        /* \"#utility.yul\":33755:33759   */\n      dup2\n        /* \"#utility.yul\":33751:33771   */\n      sub\n        /* \"#utility.yul\":33747:33748   */\n      0x00\n        /* \"#utility.yul\":33736:33745   */\n      dup4\n        /* \"#utility.yul\":33732:33749   */\n      add\n        /* \"#utility.yul\":33725:33772   */\n      mstore\n        /* \"#utility.yul\":33789:33920   */\n      tag_653\n        /* \"#utility.yul\":33915:33919   */\n      dup2\n        /* \"#utility.yul\":33789:33920   */\n      tag_349\n      jump\t// in\n    tag_653:\n        /* \"#utility.yul\":33781:33920   */\n      swap1\n      pop\n        /* \"#utility.yul\":33508:33927   */\n      swap2\n      swap1\n      pop\n      jump\t// out\n        /* \"#utility.yul\":33933:34107   */\n    tag_350:\n        /* \"#utility.yul\":34073:34099   */\n      0x566f74696e6720686173206e6f7420656e646564207965740000000000000000\n        /* \"#utility.yul\":34069:34070   */\n      0x00\n        /* \"#utility.yul\":34061:34067   */\n      dup3\n        /* \"#utility.yul\":34057:34071   */\n      add\n        /* \"#utility.yul\":34050:34100   */\n      mstore\n        /* \"#utility.yul\":33933:34107   */\n      pop\n      jump\t// out\n        /* \"#utility.yul\":34113:34479   */\n    tag_351:\n        /* \"#utility.yul\":34255:34258   */\n      0x00\n        /* \"#utility.yul\":34276:34343   */\n      tag_656\n        /* \"#utility.yul\":34340:34342   */\n      0x18\n        /* \"#utility.yul\":34335:34338   */\n      dup4\n        /* \"#utility.yul\":34276:34343   */\n      tag_307\n      jump\t// in\n    tag_656:\n        /* \"#utility.yul\":34269:34343   */\n      swap2\n      pop\n        /* \"#utility.yul\":34352:34445   */\n      tag_657\n        /* \"#utility.yul\":34441:34444   */\n      dup3\n        /* \"#utility.yul\":34352:34445   */\n      tag_350\n      jump\t// in\n    tag_657:\n        /* \"#utility.yul\":34470:34472   */\n      0x20\n        /* \"#utility.yul\":34465:34468   */\n      dup3\n        /* \"#utility.yul\":34461:34473   */\n      add\n        /* \"#utility.yul\":34454:34473   */\n      swap1\n      pop\n        /* \"#utility.yul\":34113:34479   */\n      swap2\n      swap1\n      pop\n      jump\t// out\n        /* \"#utility.yul\":34485:34904   */\n    tag_218:\n        /* \"#utility.yul\":34651:34655   */\n      0x00\n        /* \"#utility.yul\":34689:34691   */\n      0x20\n        /* \"#utility.yul\":34678:34687   */\n      dup3\n        /* \"#utility.yul\":34674:34692   */\n      add\n        /* \"#utility.yul\":34666:34692   */\n      swap1\n      pop\n        /* \"#utility.yul\":34738:34747   */\n      dup2\n        /* \"#utility.yul\":34732:34736   */\n      dup2\n        /* \"#utility.yul\":34728:34748   */\n      sub\n        /* \"#utility.yul\":34724:34725   */\n      0x00\n        /* \"#utility.yul\":34713:34722   */\n      dup4\n        /* \"#utility.yul\":34709:34726   */\n      add\n        /* \"#utility.yul\":34702:34749   */\n      mstore\n        /* \"#utility.yul\":34766:34897   */\n      tag_659\n        /* \"#utility.yul\":34892:34896   */\n      dup2\n        /* \"#utility.yul\":34766:34897   */\n      tag_351\n      jump\t// in\n    tag_659:\n        /* \"#utility.yul\":34758:34897   */\n      swap1\n      pop\n        /* \"#utility.yul\":34485:34904   */\n      swap2\n      swap1\n      pop\n      jump\t// out\n        /* \"#utility.yul\":34910:35075   */\n    tag_352:\n        /* \"#utility.yul\":35050:35067   */\n      0x4e6f207469652064657465637465640000000000000000000000000000000000\n        /* \"#utility.yul\":35046:35047   */\n      0x00\n        /* \"#utility.yul\":35038:35044   */\n      dup3\n        /* \"#utility.yul\":35034:35048   */\n      add\n        /* \"#utility.yul\":35027:35068   */\n      mstore\n        /* \"#utility.yul\":34910:35075   */\n      pop\n      jump\t// out\n        /* \"#utility.yul\":35081:35447   */\n    tag_353:\n        /* \"#utility.yul\":35223:35226   */\n      0x00\n        /* \"#utility.yul\":35244:35311   */\n      tag_662\n        /* \"#utility.yul\":35308:35310   */\n      0x0f\n        /* \"#utility.yul\":35303:35306   */\n      dup4\n        /* \"#utility.yul\":35244:35311   */\n      tag_307\n      jump\t// in\n    tag_662:\n        /* \"#utility.yul\":35237:35311   */\n      swap2\n      pop\n        /* \"#utility.yul\":35320:35413   */\n      tag_663\n        /* \"#utility.yul\":35409:35412   */\n      dup3\n        /* \"#utility.yul\":35320:35413   */\n      tag_352\n      jump\t// in\n    tag_663:\n        /* \"#utility.yul\":35438:35440   */\n      0x20\n        /* \"#utility.yul\":35433:35436   */\n      dup3\n        /* \"#utility.yul\":35429:35441   */\n      add\n        /* \"#utility.yul\":35422:35441   */\n      swap1\n      pop\n        /* \"#utility.yul\":35081:35447   */\n      swap2\n      swap1\n      pop\n      jump\t// out\n        /* \"#utility.yul\":35453:35872   */\n    tag_224:\n        /* \"#utility.yul\":35619:35623   */\n      0x00\n        /* \"#utility.yul\":35657:35659   */\n      0x20\n        /* \"#utility.yul\":35646:35655   */\n      dup3\n        /* \"#utility.yul\":35642:35660   */\n      add\n        /* \"#utility.yul\":35634:35660   */\n      swap1\n      pop\n        /* \"#utility.yul\":35706:35715   */\n      dup2\n        /* \"#utility.yul\":35700:35704   */\n      dup2\n        /* \"#utility.yul\":35696:35716   */\n      sub\n        /* \"#utility.yul\":35692:35693   */\n      0x00\n        /* \"#utility.yul\":35681:35690   */\n      dup4\n        /* \"#utility.yul\":35677:35694   */\n      add\n        /* \"#utility.yul\":35670:35717   */\n      mstore\n        /* \"#utility.yul\":35734:35865   */\n      tag_665\n        /* \"#utility.yul\":35860:35864   */\n      dup2\n        /* \"#utility.yul\":35734:35865   */\n      tag_353\n      jump\t// in\n    tag_665:\n        /* \"#utility.yul\":35726:35865   */\n      swap1\n      pop\n        /* \"#utility.yul\":35453:35872   */\n      swap2\n      swap1\n      pop\n      jump\t// out\n\n    auxdata: 0xa26469706673582212207262b3d480525e3c1a68fb9abdd9549a9d6ed9c13b2f3c0f0aff6f41b5fa341964736f6c634300081a0033\n}\n",
				"bytecode": {
					"linkReferences": {},
					"object": "6080604052348015600e575f80fd5b50335f806101000a81548173ffffffffffffffffffffffffffffffffffffffff021916908373ffffffffffffffffffffffffffffffffffffffff160217905550612f3c8061005b5f395ff3fe608060405234801561000f575f80fd5b5060043610610114575f3560e01c80639d5a0529116100a0578063d8e06ca91161006f578063d8e06ca9146102af578063df2d5ec7146102df578063eccf1f101461030f578063f7a3b3961461032f578063f851a4401461034d57610114565b80639d5a052914610233578063a3ec138d14610251578063aabe2fe314610287578063c3403ddf146102a557610114565b8063378b4864116100e7578063378b48641461018c57806340b68257146101aa5780636dd7d8ea146101c657806383d948b7146101e25780638ab66a901461020057610114565b80631ec6b60a146101185780632e6997fe1461012257806330eb771a14610140578063326ebef314610170575b5f80fd5b61012061036b565b005b61012a6104a2565b6040516101379190611fe7565b60405180910390f35b61015a6004803603810190610155919061216e565b610743565b60405161016791906121e2565b60405180910390f35b61018a60048036038101906101859190612225565b610808565b005b610194610b1b565b6040516101a191906122d0565b60405180910390f35b6101c460048036038101906101bf91906122e9565b610b21565b005b6101e060048036038101906101db9190612371565b610e21565b005b6101ea611217565b6040516101f791906121e2565b60405180910390f35b61021a60048036038101906102159190612371565b611229565b60405161022a94939291906123f3565b60405180910390f35b61023b611380565b60405161024891906121e2565b60405180910390f35b61026b60048036038101906102669190612371565b611392565b60405161027e9796959493929190612444565b60405180910390f35b61028f611532565b60405161029c91906124bf565b60405180910390f35b6102ad611557565b005b6102c960048036038101906102c491906124d8565b611720565b6040516102d691906124bf565b60405180910390f35b6102f960048036038101906102f491906124d8565b61175b565b60405161030691906124bf565b60405180910390f35b610317611796565b60405161032693929190612503565b60405180910390f35b610337611820565b6040516103449190611fe7565b60405180910390f35b610355611b57565b60405161036291906124bf565b60405180910390f35b5f8054906101000a900473ffffffffffffffffffffffffffffffffffffffff1673ffffffffffffffffffffffffffffffffffffffff163373ffffffffffffffffffffffffffffffffffffffff16146103f8576040517f08c379a00000000000000000000000000000000000000000000000000000000081526004016103ef906125a8565b60405180910390fd5b60026003805490501015610441576040517f08c379a000000000000000000000000000000000000000000000000000000000815260040161043890612610565b60405180910390fd5b60015f60146101000a81548160ff0219169083151502179055505f8060156101000a81548160ff0219169083151502179055507f877e2548498f42b7975a186b94ef1d32c86d420b7b806dd2be2bea293b89590460405160405180910390a1565b60605f60038054905067ffffffffffffffff8111156104c4576104c361204a565b5b6040519080825280602002602001820160405280156104fd57816020015b6104ea611d02565b8152602001906001900390816104e25790505b5090505f5b60038054905081101561073b5760025f600383815481106105265761052561262e565b5b905f5260205f20015f9054906101000a900473ffffffffffffffffffffffffffffffffffffffff1673ffffffffffffffffffffffffffffffffffffffff1673ffffffffffffffffffffffffffffffffffffffff1681526020019081526020015f206040518060800160405290815f820180546105a190612688565b80601f01602080910402602001604051908101604052809291908181526020018280546105cd90612688565b80156106185780601f106105ef57610100808354040283529160200191610618565b820191905f5260205f20905b8154815290600101906020018083116105fb57829003601f168201915b50505050508152602001600182015f9054906101000a900473ffffffffffffffffffffffffffffffffffffffff1673ffffffffffffffffffffffffffffffffffffffff1673ffffffffffffffffffffffffffffffffffffffff1681526020016002820154815260200160038201805461069090612688565b80601f01602080910402602001604051908101604052809291908181526020018280546106bc90612688565b80156107075780601f106106de57610100808354040283529160200191610707565b820191905f5260205f20905b8154815290600101906020018083116106ea57829003601f168201915b5050505050815250508282815181106107235761072261262e565b5b60200260200101819052508080600101915050610502565b508091505090565b5f8060015f8573ffffffffffffffffffffffffffffffffffffffff1673ffffffffffffffffffffffffffffffffffffffff1681526020019081526020015f209050805f015f9054906101000a900460ff1680156107ee5750826040516020016107ac91906126f2565b60405160208183030381529060405280519060200120816002016040516020016107d6919061279a565b60405160208183030381529060405280519060200120145b156107fd576001915050610802565b5f9150505b92915050565b5f8054906101000a900473ffffffffffffffffffffffffffffffffffffffff1673ffffffffffffffffffffffffffffffffffffffff163373ffffffffffffffffffffffffffffffffffffffff1614610895576040517f08c379a000000000000000000000000000000000000000000000000000000000815260040161088c906125a8565b60405180910390fd5b60015f8573ffffffffffffffffffffffffffffffffffffffff1673ffffffffffffffffffffffffffffffffffffffff1681526020019081526020015f205f015f9054906101000a900460ff1615610921576040517f08c379a0000000000000000000000000000000000000000000000000000000008152600401610918906127fa565b60405180910390fd5b6040518060e001604052806001151581526020015f151581526020015f73ffffffffffffffffffffffffffffffffffffffff1681526020018481526020018381526020018281526020018573ffffffffffffffffffffffffffffffffffffffff1681525060015f8673ffffffffffffffffffffffffffffffffffffffff1673ffffffffffffffffffffffffffffffffffffffff1681526020019081526020015f205f820151815f015f6101000a81548160ff0219169083151502179055506020820151815f0160016101000a81548160ff0219169083151502179055506040820151815f0160026101000a81548173ffffffffffffffffffffffffffffffffffffffff021916908373ffffffffffffffffffffffffffffffffffffffff1602179055506060820151816001019081610a5991906129a3565b506080820151816002019081610a6f91906129a3565b5060a0820151816003015560c0820151816004015f6101000a81548173ffffffffffffffffffffffffffffffffffffffff021916908373ffffffffffffffffffffffffffffffffffffffff1602179055509050508373ffffffffffffffffffffffffffffffffffffffff167f9cf1682c9291d84aae23538285245cbbabc90127784deda74b7d7ea1136ae4e7848484604051610b0d93929190612a72565b60405180910390a250505050565b60065481565b5f8054906101000a900473ffffffffffffffffffffffffffffffffffffffff1673ffffffffffffffffffffffffffffffffffffffff163373ffffffffffffffffffffffffffffffffffffffff1614610bae576040517f08c379a0000000000000000000000000000000000000000000000000000000008152600401610ba5906125a8565b60405180910390fd5b5f73ffffffffffffffffffffffffffffffffffffffff1660025f8573ffffffffffffffffffffffffffffffffffffffff1673ffffffffffffffffffffffffffffffffffffffff1681526020019081526020015f206001015f9054906101000a900473ffffffffffffffffffffffffffffffffffffffff1673ffffffffffffffffffffffffffffffffffffffff1614610c7b576040517f08c379a0000000000000000000000000000000000000000000000000000000008152600401610c7290612aff565b60405180910390fd5b60405180608001604052808381526020018473ffffffffffffffffffffffffffffffffffffffff1681526020015f81526020018281525060025f8573ffffffffffffffffffffffffffffffffffffffff1673ffffffffffffffffffffffffffffffffffffffff1681526020019081526020015f205f820151815f019081610d0291906129a3565b506020820151816001015f6101000a81548173ffffffffffffffffffffffffffffffffffffffff021916908373ffffffffffffffffffffffffffffffffffffffff160217905550604082015181600201556060820151816003019081610d6891906129a3565b50905050600383908060018154018082558091505060019003905f5260205f20015f9091909190916101000a81548173ffffffffffffffffffffffffffffffffffffffff021916908373ffffffffffffffffffffffffffffffffffffffff1602179055508273ffffffffffffffffffffffffffffffffffffffff167f32495c7defa10bd47846728172a9991dcad3bb09741cb15a28041c5de778c4168383604051610e14929190612b1d565b60405180910390a2505050565b5f60149054906101000a900460ff168015610e4857505f60159054906101000a900460ff16155b610e87576040517f08c379a0000000000000000000000000000000000000000000000000000000008152600401610e7e90612b9c565b60405180910390fd5b5f60015f3373ffffffffffffffffffffffffffffffffffffffff1673ffffffffffffffffffffffffffffffffffffffff1681526020019081526020015f209050805f015f9054906101000a900460ff16610f16576040517f08c379a0000000000000000000000000000000000000000000000000000000008152600401610f0d90612c04565b60405180910390fd5b805f0160019054906101000a900460ff1615610f67576040517f08c379a0000000000000000000000000000000000000000000000000000000008152600401610f5e90612c6c565b60405180910390fd5b5f73ffffffffffffffffffffffffffffffffffffffff1660025f8473ffffffffffffffffffffffffffffffffffffffff1673ffffffffffffffffffffffffffffffffffffffff1681526020019081526020015f206001015f9054906101000a900473ffffffffffffffffffffffffffffffffffffffff1673ffffffffffffffffffffffffffffffffffffffff1603611034576040517f08c379a000000000000000000000000000000000000000000000000000000000815260040161102b90612cd4565b60405180910390fd5b6001815f0160016101000a81548160ff02191690831515021790555081815f0160026101000a81548173ffffffffffffffffffffffffffffffffffffffff021916908373ffffffffffffffffffffffffffffffffffffffff16021790555060025f8373ffffffffffffffffffffffffffffffffffffffff1673ffffffffffffffffffffffffffffffffffffffff1681526020019081526020015f206002015f8154809291906110e290612d1f565b919050555060065460025f8473ffffffffffffffffffffffffffffffffffffffff1673ffffffffffffffffffffffffffffffffffffffff1681526020019081526020015f206002015411156111b95760025f8373ffffffffffffffffffffffffffffffffffffffff1673ffffffffffffffffffffffffffffffffffffffff1681526020019081526020015f20600201546006819055508160055f6101000a81548173ffffffffffffffffffffffffffffffffffffffff021916908373ffffffffffffffffffffffffffffffffffffffff1602179055505b8173ffffffffffffffffffffffffffffffffffffffff163373ffffffffffffffffffffffffffffffffffffffff167fc4bfea56d023dc354a6e1649f3d6e114e28a306b3e281116b4d9d6c89098fa6660405160405180910390a35050565b5f60149054906101000a900460ff1681565b6002602052805f5260405f205f91509050805f01805461124890612688565b80601f016020809104026020016040519081016040528092919081815260200182805461127490612688565b80156112bf5780601f10611296576101008083540402835291602001916112bf565b820191905f5260205f20905b8154815290600101906020018083116112a257829003601f168201915b505050505090806001015f9054906101000a900473ffffffffffffffffffffffffffffffffffffffff16908060020154908060030180546112ff90612688565b80601f016020809104026020016040519081016040528092919081815260200182805461132b90612688565b80156113765780601f1061134d57610100808354040283529160200191611376565b820191905f5260205f20905b81548152906001019060200180831161135957829003601f168201915b5050505050905084565b5f60159054906101000a900460ff1681565b6001602052805f5260405f205f91509050805f015f9054906101000a900460ff1690805f0160019054906101000a900460ff1690805f0160029054906101000a900473ffffffffffffffffffffffffffffffffffffffff16908060010180546113fa90612688565b80601f016020809104026020016040519081016040528092919081815260200182805461142690612688565b80156114715780601f1061144857610100808354040283529160200191611471565b820191905f5260205f20905b81548152906001019060200180831161145457829003601f168201915b50505050509080600201805461148690612688565b80601f01602080910402602001604051908101604052809291908181526020018280546114b290612688565b80156114fd5780601f106114d4576101008083540402835291602001916114fd565b820191905f5260205f20905b8154815290600101906020018083116114e057829003601f168201915b505050505090806003015490806004015f9054906101000a900473ffffffffffffffffffffffffffffffffffffffff16905087565b60055f9054906101000a900473ffffffffffffffffffffffffffffffffffffffff1681565b5f8054906101000a900473ffffffffffffffffffffffffffffffffffffffff1673ffffffffffffffffffffffffffffffffffffffff163373ffffffffffffffffffffffffffffffffffffffff16146115e4576040517f08c379a00000000000000000000000000000000000000000000000000000000081526004016115db906125a8565b60405180910390fd5b5f60149054906101000a900460ff16611632576040517f08c379a000000000000000000000000000000000000000000000000000000000815260040161162990612db0565b60405180910390fd5b5f60159054906101000a900460ff1615611681576040517f08c379a000000000000000000000000000000000000000000000000000000000815260040161167890612e18565b60405180910390fd5b5f8060146101000a81548160ff02191690831515021790555060015f60156101000a81548160ff0219169083151502179055505f6116bd611b7a565b90507f0bb2f19094bd5381446a0665b0e954deb7d3af8942be3623044de8e377001b5960055f9054906101000a900473ffffffffffffffffffffffffffffffffffffffff166006548360405161171593929190612503565b60405180910390a150565b6004818154811061172f575f80fd5b905f5260205f20015f915054906101000a900473ffffffffffffffffffffffffffffffffffffffff1681565b6003818154811061176a575f80fd5b905f5260205f20015f915054906101000a900473ffffffffffffffffffffffffffffffffffffffff1681565b5f805f8060159054906101000a900460ff166117e7576040517f08c379a00000000000000000000000000000000000000000000000000000000081526004016117de90612e80565b60405180910390fd5b60055f9054906101000a900473ffffffffffffffffffffffffffffffffffffffff16600654600160048054905011925092509250909192565b60605f60159054906101000a900460ff16611870576040517f08c379a000000000000000000000000000000000000000000000000000000000815260040161186790612e80565b60405180910390fd5b6001600480549050116118b8576040517f08c379a00000000000000000000000000000000000000000000000000000000081526004016118af90612ee8565b60405180910390fd5b5f60048054905067ffffffffffffffff8111156118d8576118d761204a565b5b60405190808252806020026020018201604052801561191157816020015b6118fe611d02565b8152602001906001900390816118f65790505b5090505f5b600480549050811015611b4f5760025f6004838154811061193a5761193961262e565b5b905f5260205f20015f9054906101000a900473ffffffffffffffffffffffffffffffffffffffff1673ffffffffffffffffffffffffffffffffffffffff1673ffffffffffffffffffffffffffffffffffffffff1681526020019081526020015f206040518060800160405290815f820180546119b590612688565b80601f01602080910402602001604051908101604052809291908181526020018280546119e190612688565b8015611a2c5780601f10611a0357610100808354040283529160200191611a2c565b820191905f5260205f20905b815481529060010190602001808311611a0f57829003601f168201915b50505050508152602001600182015f9054906101000a900473ffffffffffffffffffffffffffffffffffffffff1673ffffffffffffffffffffffffffffffffffffffff1673ffffffffffffffffffffffffffffffffffffffff16815260200160028201548152602001600382018054611aa490612688565b80601f0160208091040260200160405190810160405280929190818152602001828054611ad090612688565b8015611b1b5780601f10611af257610100808354040283529160200191611b1b565b820191905f5260205f20905b815481529060010190602001808311611afe57829003601f168201915b505050505081525050828281518110611b3757611b3661262e565b5b60200260200101819052508080600101915050611916565b508091505090565b5f8054906101000a900473ffffffffffffffffffffffffffffffffffffffff1681565b5f805f905060045f611b8c9190611d3e565b5f5b600380549050811015611cf2575f60038281548110611bb057611baf61262e565b5b905f5260205f20015f9054906101000a900473ffffffffffffffffffffffffffffffffffffffff1690505f60025f8373ffffffffffffffffffffffffffffffffffffffff1673ffffffffffffffffffffffffffffffffffffffff1681526020019081526020015f2060020154905083811115611c7a5780935060405180602001604052808373ffffffffffffffffffffffffffffffffffffffff1673ffffffffffffffffffffffffffffffffffffffff168152506004906001611c74929190611d5c565b50611ce3565b838103611ce257600482908060018154018082558091505060019003905f5260205f20015f9091909190916101000a81548173ffffffffffffffffffffffffffffffffffffffff021916908373ffffffffffffffffffffffffffffffffffffffff1602179055505b5b50508080600101915050611b8e565b5060016004805490501191505090565b6040518060800160405280606081526020015f73ffffffffffffffffffffffffffffffffffffffff1681526020015f8152602001606081525090565b5080545f8255905f5260205f2090810190611d599190611de3565b50565b828054828255905f5260205f20908101928215611dd2579160200282015b82811115611dd1578251825f6101000a81548173ffffffffffffffffffffffffffffffffffffffff021916908373ffffffffffffffffffffffffffffffffffffffff16021790555091602001919060010190611d7a565b5b509050611ddf9190611de3565b5090565b5b80821115611dfa575f815f905550600101611de4565b5090565b5f81519050919050565b5f82825260208201905092915050565b5f819050602082019050919050565b5f81519050919050565b5f82825260208201905092915050565b8281835e5f83830152505050565b5f601f19601f8301169050919050565b5f611e6982611e27565b611e738185611e31565b9350611e83818560208601611e41565b611e8c81611e4f565b840191505092915050565b5f73ffffffffffffffffffffffffffffffffffffffff82169050919050565b5f611ec082611e97565b9050919050565b611ed081611eb6565b82525050565b5f819050919050565b611ee881611ed6565b82525050565b5f608083015f8301518482035f860152611f088282611e5f565b9150506020830151611f1d6020860182611ec7565b506040830151611f306040860182611edf565b5060608301518482036060860152611f488282611e5f565b9150508091505092915050565b5f611f608383611eee565b905092915050565b5f602082019050919050565b5f611f7e82611dfe565b611f888185611e08565b935083602082028501611f9a85611e18565b805f5b85811015611fd55784840389528151611fb68582611f55565b9450611fc183611f68565b925060208a01995050600181019050611f9d565b50829750879550505050505092915050565b5f6020820190508181035f830152611fff8184611f74565b905092915050565b5f604051905090565b5f80fd5b5f80fd5b61202181611eb6565b811461202b575f80fd5b50565b5f8135905061203c81612018565b92915050565b5f80fd5b5f80fd5b7f4e487b71000000000000000000000000000000000000000000000000000000005f52604160045260245ffd5b61208082611e4f565b810181811067ffffffffffffffff8211171561209f5761209e61204a565b5b80604052505050565b5f6120b1612007565b90506120bd8282612077565b919050565b5f67ffffffffffffffff8211156120dc576120db61204a565b5b6120e582611e4f565b9050602081019050919050565b828183375f83830152505050565b5f61211261210d846120c2565b6120a8565b90508281526020810184848401111561212e5761212d612046565b5b6121398482856120f2565b509392505050565b5f82601f83011261215557612154612042565b5b8135612165848260208601612100565b91505092915050565b5f806040838503121561218457612183612010565b5b5f6121918582860161202e565b925050602083013567ffffffffffffffff8111156121b2576121b1612014565b5b6121be85828601612141565b9150509250929050565b5f8115159050919050565b6121dc816121c8565b82525050565b5f6020820190506121f55f8301846121d3565b92915050565b61220481611ed6565b811461220e575f80fd5b50565b5f8135905061221f816121fb565b92915050565b5f805f806080858703121561223d5761223c612010565b5b5f61224a8782880161202e565b945050602085013567ffffffffffffffff81111561226b5761226a612014565b5b61227787828801612141565b935050604085013567ffffffffffffffff81111561229857612297612014565b5b6122a487828801612141565b92505060606122b587828801612211565b91505092959194509250565b6122ca81611ed6565b82525050565b5f6020820190506122e35f8301846122c1565b92915050565b5f805f60608486031215612300576122ff612010565b5b5f61230d8682870161202e565b935050602084013567ffffffffffffffff81111561232e5761232d612014565b5b61233a86828701612141565b925050604084013567ffffffffffffffff81111561235b5761235a612014565b5b61236786828701612141565b9150509250925092565b5f6020828403121561238657612385612010565b5b5f6123938482850161202e565b91505092915050565b5f82825260208201905092915050565b5f6123b682611e27565b6123c0818561239c565b93506123d0818560208601611e41565b6123d981611e4f565b840191505092915050565b6123ed81611eb6565b82525050565b5f6080820190508181035f83015261240b81876123ac565b905061241a60208301866123e4565b61242760408301856122c1565b818103606083015261243981846123ac565b905095945050505050565b5f60e0820190506124575f83018a6121d3565b61246460208301896121d3565b61247160408301886123e4565b818103606083015261248381876123ac565b9050818103608083015261249781866123ac565b90506124a660a08301856122c1565b6124b360c08301846123e4565b98975050505050505050565b5f6020820190506124d25f8301846123e4565b92915050565b5f602082840312156124ed576124ec612010565b5b5f6124fa84828501612211565b91505092915050565b5f6060820190506125165f8301866123e4565b61252360208301856122c1565b61253060408301846121d3565b949350505050565b7f4f6e6c792061646d696e2063616e20706572666f726d207468697320616374695f8201527f6f6e000000000000000000000000000000000000000000000000000000000000602082015250565b5f61259260228361239c565b915061259d82612538565b604082019050919050565b5f6020820190508181035f8301526125bf81612586565b9050919050565b7f4174206c656173742074776f2063616e646964617465732072657175697265645f82015250565b5f6125fa60208361239c565b9150612605826125c6565b602082019050919050565b5f6020820190508181035f830152612627816125ee565b9050919050565b7f4e487b71000000000000000000000000000000000000000000000000000000005f52603260045260245ffd5b7f4e487b71000000000000000000000000000000000000000000000000000000005f52602260045260245ffd5b5f600282049050600182168061269f57607f821691505b6020821081036126b2576126b161265b565b5b50919050565b5f81905092915050565b5f6126cc82611e27565b6126d681856126b8565b93506126e6818560208601611e41565b80840191505092915050565b5f6126fd82846126c2565b915081905092915050565b5f819050815f5260205f209050919050565b5f815461272681612688565b61273081866126b8565b9450600182165f811461274a576001811461275f57612791565b60ff1983168652811515820286019350612791565b61276885612708565b5f5b838110156127895781548189015260018201915060208101905061276a565b838801955050505b50505092915050565b5f6127a5828461271a565b915081905092915050565b7f566f74657220697320616c7265616479207265676973746572656400000000005f82015250565b5f6127e4601b8361239c565b91506127ef826127b0565b602082019050919050565b5f6020820190508181035f830152612811816127d8565b9050919050565b5f6020601f8301049050919050565b5f82821b905092915050565b5f600883026128627fffffffffffffffffffffffffffffffffffffffffffffffffffffffffffffffff82612827565b61286c8683612827565b95508019841693508086168417925050509392505050565b5f819050919050565b5f6128a76128a261289d84611ed6565b612884565b611ed6565b9050919050565b5f819050919050565b6128c08361288d565b6128d46128cc826128ae565b848454612833565b825550505050565b5f90565b6128e86128dc565b6128f38184846128b7565b505050565b5b818110156129165761290b5f826128e0565b6001810190506128f9565b5050565b601f82111561295b5761292c81612708565b61293584612818565b81016020851015612944578190505b61295861295085612818565b8301826128f8565b50505b505050565b5f82821c905092915050565b5f61297b5f1984600802612960565b1980831691505092915050565b5f612993838361296c565b9150826002028217905092915050565b6129ac82611e27565b67ffffffffffffffff8111156129c5576129c461204a565b5b6129cf8254612688565b6129da82828561291a565b5f60209050601f831160018114612a0b575f84156129f9578287015190505b612a038582612988565b865550612a6a565b601f198416612a1986612708565b5f5b82811015612a4057848901518255600182019150602085019450602081019050612a1b565b86831015612a5d5784890151612a59601f89168261296c565b8355505b6001600288020188555050505b505050505050565b5f6060820190508181035f830152612a8a81866123ac565b90508181036020830152612a9e81856123ac565b9050612aad60408301846122c1565b949350505050565b7f43616e64696461746520697320616c72656164792072656769737465726564005f82015250565b5f612ae9601f8361239c565b9150612af482612ab5565b602082019050919050565b5f6020820190508181035f830152612b1681612add565b9050919050565b5f6040820190508181035f830152612b3581856123ac565b90508181036020830152612b4981846123ac565b90509392505050565b7f566f74696e67206973206e6f74206163746976650000000000000000000000005f82015250565b5f612b8660148361239c565b9150612b9182612b52565b602082019050919050565b5f6020820190508181035f830152612bb381612b7a565b9050919050565b7f4f6e6c79207265676973746572656420766f746572732063616e20766f7465005f82015250565b5f612bee601f8361239c565b9150612bf982612bba565b602082019050919050565b5f6020820190508181035f830152612c1b81612be2565b9050919050565b7f566f7465722068617320616c726561647920766f7465640000000000000000005f82015250565b5f612c5660178361239c565b9150612c6182612c22565b602082019050919050565b5f6020820190508181035f830152612c8381612c4a565b9050919050565b7f43616e64696461746520646f6573206e6f7420657869737400000000000000005f82015250565b5f612cbe60188361239c565b9150612cc982612c8a565b602082019050919050565b5f6020820190508181035f830152612ceb81612cb2565b9050919050565b7f4e487b71000000000000000000000000000000000000000000000000000000005f52601160045260245ffd5b5f612d2982611ed6565b91507fffffffffffffffffffffffffffffffffffffffffffffffffffffffffffffffff8203612d5b57612d5a612cf2565b5b600182019050919050565b7f566f74696e6720686173206e6f742073746172746564000000000000000000005f82015250565b5f612d9a60168361239c565b9150612da582612d66565b602082019050919050565b5f6020820190508181035f830152612dc781612d8e565b9050919050565b7f566f74696e672068617320616c726561647920656e64656400000000000000005f82015250565b5f612e0260188361239c565b9150612e0d82612dce565b602082019050919050565b5f6020820190508181035f830152612e2f81612df6565b9050919050565b7f566f74696e6720686173206e6f7420656e6465642079657400000000000000005f82015250565b5f612e6a60188361239c565b9150612e7582612e36565b602082019050919050565b5f6020820190508181035f830152612e9781612e5e565b9050919050565b7f4e6f2074696520646574656374656400000000000000000000000000000000005f82015250565b5f612ed2600f8361239c565b9150612edd82612e9e565b602082019050919050565b5f6020820190508181035f830152612eff81612ec6565b905091905056fea26469706673582212207262b3d480525e3c1a68fb9abdd9549a9d6ed9c13b2f3c0f0aff6f41b5fa341964736f6c634300081a0033",
					"opcodes": "PUSH1 0x80 PUSH1 0x40 MSTORE CALLVALUE DUP1 ISZERO PUSH1 0xE JUMPI PUSH0 DUP1 REVERT JUMPDEST POP CALLER PUSH0 DUP1 PUSH2 0x100 EXP DUP2 SLOAD DUP2 PUSH20 0xFFFFFFFFFFFFFFFFFFFFFFFFFFFFFFFFFFFFFFFF MUL NOT AND SWAP1 DUP4 PUSH20 0xFFFFFFFFFFFFFFFFFFFFFFFFFFFFFFFFFFFFFFFF AND MUL OR SWAP1 SSTORE POP PUSH2 0x2F3C DUP1 PUSH2 0x5B PUSH0 CODECOPY PUSH0 RETURN INVALID PUSH1 0x80 PUSH1 0x40 MSTORE CALLVALUE DUP1 ISZERO PUSH2 0xF JUMPI PUSH0 DUP1 REVERT JUMPDEST POP PUSH1 0x4 CALLDATASIZE LT PUSH2 0x114 JUMPI PUSH0 CALLDATALOAD PUSH1 0xE0 SHR DUP1 PUSH4 0x9D5A0529 GT PUSH2 0xA0 JUMPI DUP1 PUSH4 0xD8E06CA9 GT PUSH2 0x6F JUMPI DUP1 PUSH4 0xD8E06CA9 EQ PUSH2 0x2AF JUMPI DUP1 PUSH4 0xDF2D5EC7 EQ PUSH2 0x2DF JUMPI DUP1 PUSH4 0xECCF1F10 EQ PUSH2 0x30F JUMPI DUP1 PUSH4 0xF7A3B396 EQ PUSH2 0x32F JUMPI DUP1 PUSH4 0xF851A440 EQ PUSH2 0x34D JUMPI PUSH2 0x114 JUMP JUMPDEST DUP1 PUSH4 0x9D5A0529 EQ PUSH2 0x233 JUMPI DUP1 PUSH4 0xA3EC138D EQ PUSH2 0x251 JUMPI DUP1 PUSH4 0xAABE2FE3 EQ PUSH2 0x287 JUMPI DUP1 PUSH4 0xC3403DDF EQ PUSH2 0x2A5 JUMPI PUSH2 0x114 JUMP JUMPDEST DUP1 PUSH4 0x378B4864 GT PUSH2 0xE7 JUMPI DUP1 PUSH4 0x378B4864 EQ PUSH2 0x18C JUMPI DUP1 PUSH4 0x40B68257 EQ PUSH2 0x1AA JUMPI DUP1 PUSH4 0x6DD7D8EA EQ PUSH2 0x1C6 JUMPI DUP1 PUSH4 0x83D948B7 EQ PUSH2 0x1E2 JUMPI DUP1 PUSH4 0x8AB66A90 EQ PUSH2 0x200 JUMPI PUSH2 0x114 JUMP JUMPDEST DUP1 PUSH4 0x1EC6B60A EQ PUSH2 0x118 JUMPI DUP1 PUSH4 0x2E6997FE EQ PUSH2 0x122 JUMPI DUP1 PUSH4 0x30EB771A EQ PUSH2 0x140 JUMPI DUP1 PUSH4 0x326EBEF3 EQ PUSH2 0x170 JUMPI JUMPDEST PUSH0 DUP1 REVERT JUMPDEST PUSH2 0x120 PUSH2 0x36B JUMP JUMPDEST STOP JUMPDEST PUSH2 0x12A PUSH2 0x4A2 JUMP JUMPDEST PUSH1 0x40 MLOAD PUSH2 0x137 SWAP2 SWAP1 PUSH2 0x1FE7 JUMP JUMPDEST PUSH1 0x40 MLOAD DUP1 SWAP2 SUB SWAP1 RETURN JUMPDEST PUSH2 0x15A PUSH1 0x4 DUP1 CALLDATASIZE SUB DUP2 ADD SWAP1 PUSH2 0x155 SWAP2 SWAP1 PUSH2 0x216E JUMP JUMPDEST PUSH2 0x743 JUMP JUMPDEST PUSH1 0x40 MLOAD PUSH2 0x167 SWAP2 SWAP1 PUSH2 0x21E2 JUMP JUMPDEST PUSH1 0x40 MLOAD DUP1 SWAP2 SUB SWAP1 RETURN JUMPDEST PUSH2 0x18A PUSH1 0x4 DUP1 CALLDATASIZE SUB DUP2 ADD SWAP1 PUSH2 0x185 SWAP2 SWAP1 PUSH2 0x2225 JUMP JUMPDEST PUSH2 0x808 JUMP JUMPDEST STOP JUMPDEST PUSH2 0x194 PUSH2 0xB1B JUMP JUMPDEST PUSH1 0x40 MLOAD PUSH2 0x1A1 SWAP2 SWAP1 PUSH2 0x22D0 JUMP JUMPDEST PUSH1 0x40 MLOAD DUP1 SWAP2 SUB SWAP1 RETURN JUMPDEST PUSH2 0x1C4 PUSH1 0x4 DUP1 CALLDATASIZE SUB DUP2 ADD SWAP1 PUSH2 0x1BF SWAP2 SWAP1 PUSH2 0x22E9 JUMP JUMPDEST PUSH2 0xB21 JUMP JUMPDEST STOP JUMPDEST PUSH2 0x1E0 PUSH1 0x4 DUP1 CALLDATASIZE SUB DUP2 ADD SWAP1 PUSH2 0x1DB SWAP2 SWAP1 PUSH2 0x2371 JUMP JUMPDEST PUSH2 0xE21 JUMP JUMPDEST STOP JUMPDEST PUSH2 0x1EA PUSH2 0x1217 JUMP JUMPDEST PUSH1 0x40 MLOAD PUSH2 0x1F7 SWAP2 SWAP1 PUSH2 0x21E2 JUMP JUMPDEST PUSH1 0x40 MLOAD DUP1 SWAP2 SUB SWAP1 RETURN JUMPDEST PUSH2 0x21A PUSH1 0x4 DUP1 CALLDATASIZE SUB DUP2 ADD SWAP1 PUSH2 0x215 SWAP2 SWAP1 PUSH2 0x2371 JUMP JUMPDEST PUSH2 0x1229 JUMP JUMPDEST PUSH1 0x40 MLOAD PUSH2 0x22A SWAP5 SWAP4 SWAP3 SWAP2 SWAP1 PUSH2 0x23F3 JUMP JUMPDEST PUSH1 0x40 MLOAD DUP1 SWAP2 SUB SWAP1 RETURN JUMPDEST PUSH2 0x23B PUSH2 0x1380 JUMP JUMPDEST PUSH1 0x40 MLOAD PUSH2 0x248 SWAP2 SWAP1 PUSH2 0x21E2 JUMP JUMPDEST PUSH1 0x40 MLOAD DUP1 SWAP2 SUB SWAP1 RETURN JUMPDEST PUSH2 0x26B PUSH1 0x4 DUP1 CALLDATASIZE SUB DUP2 ADD SWAP1 PUSH2 0x266 SWAP2 SWAP1 PUSH2 0x2371 JUMP JUMPDEST PUSH2 0x1392 JUMP JUMPDEST PUSH1 0x40 MLOAD PUSH2 0x27E SWAP8 SWAP7 SWAP6 SWAP5 SWAP4 SWAP3 SWAP2 SWAP1 PUSH2 0x2444 JUMP JUMPDEST PUSH1 0x40 MLOAD DUP1 SWAP2 SUB SWAP1 RETURN JUMPDEST PUSH2 0x28F PUSH2 0x1532 JUMP JUMPDEST PUSH1 0x40 MLOAD PUSH2 0x29C SWAP2 SWAP1 PUSH2 0x24BF JUMP JUMPDEST PUSH1 0x40 MLOAD DUP1 SWAP2 SUB SWAP1 RETURN JUMPDEST PUSH2 0x2AD PUSH2 0x1557 JUMP JUMPDEST STOP JUMPDEST PUSH2 0x2C9 PUSH1 0x4 DUP1 CALLDATASIZE SUB DUP2 ADD SWAP1 PUSH2 0x2C4 SWAP2 SWAP1 PUSH2 0x24D8 JUMP JUMPDEST PUSH2 0x1720 JUMP JUMPDEST PUSH1 0x40 MLOAD PUSH2 0x2D6 SWAP2 SWAP1 PUSH2 0x24BF JUMP JUMPDEST PUSH1 0x40 MLOAD DUP1 SWAP2 SUB SWAP1 RETURN JUMPDEST PUSH2 0x2F9 PUSH1 0x4 DUP1 CALLDATASIZE SUB DUP2 ADD SWAP1 PUSH2 0x2F4 SWAP2 SWAP1 PUSH2 0x24D8 JUMP JUMPDEST PUSH2 0x175B JUMP JUMPDEST PUSH1 0x40 MLOAD PUSH2 0x306 SWAP2 SWAP1 PUSH2 0x24BF JUMP JUMPDEST PUSH1 0x40 MLOAD DUP1 SWAP2 SUB SWAP1 RETURN JUMPDEST PUSH2 0x317 PUSH2 0x1796 JUMP JUMPDEST PUSH1 0x40 MLOAD PUSH2 0x326 SWAP4 SWAP3 SWAP2 SWAP1 PUSH2 0x2503 JUMP JUMPDEST PUSH1 0x40 MLOAD DUP1 SWAP2 SUB SWAP1 RETURN JUMPDEST PUSH2 0x337 PUSH2 0x1820 JUMP JUMPDEST PUSH1 0x40 MLOAD PUSH2 0x344 SWAP2 SWAP1 PUSH2 0x1FE7 JUMP JUMPDEST PUSH1 0x40 MLOAD DUP1 SWAP2 SUB SWAP1 RETURN JUMPDEST PUSH2 0x355 PUSH2 0x1B57 JUMP JUMPDEST PUSH1 0x40 MLOAD PUSH2 0x362 SWAP2 SWAP1 PUSH2 0x24BF JUMP JUMPDEST PUSH1 0x40 MLOAD DUP1 SWAP2 SUB SWAP1 RETURN JUMPDEST PUSH0 DUP1 SLOAD SWAP1 PUSH2 0x100 EXP SWAP1 DIV PUSH20 0xFFFFFFFFFFFFFFFFFFFFFFFFFFFFFFFFFFFFFFFF AND PUSH20 0xFFFFFFFFFFFFFFFFFFFFFFFFFFFFFFFFFFFFFFFF AND CALLER PUSH20 0xFFFFFFFFFFFFFFFFFFFFFFFFFFFFFFFFFFFFFFFF AND EQ PUSH2 0x3F8 JUMPI PUSH1 0x40 MLOAD PUSH32 0x8C379A000000000000000000000000000000000000000000000000000000000 DUP2 MSTORE PUSH1 0x4 ADD PUSH2 0x3EF SWAP1 PUSH2 0x25A8 JUMP JUMPDEST PUSH1 0x40 MLOAD DUP1 SWAP2 SUB SWAP1 REVERT JUMPDEST PUSH1 0x2 PUSH1 0x3 DUP1 SLOAD SWAP1 POP LT ISZERO PUSH2 0x441 JUMPI PUSH1 0x40 MLOAD PUSH32 0x8C379A000000000000000000000000000000000000000000000000000000000 DUP2 MSTORE PUSH1 0x4 ADD PUSH2 0x438 SWAP1 PUSH2 0x2610 JUMP JUMPDEST PUSH1 0x40 MLOAD DUP1 SWAP2 SUB SWAP1 REVERT JUMPDEST PUSH1 0x1 PUSH0 PUSH1 0x14 PUSH2 0x100 EXP DUP2 SLOAD DUP2 PUSH1 0xFF MUL NOT AND SWAP1 DUP4 ISZERO ISZERO MUL OR SWAP1 SSTORE POP PUSH0 DUP1 PUSH1 0x15 PUSH2 0x100 EXP DUP2 SLOAD DUP2 PUSH1 0xFF MUL NOT AND SWAP1 DUP4 ISZERO ISZERO MUL OR SWAP1 SSTORE POP PUSH32 0x877E2548498F42B7975A186B94EF1D32C86D420B7B806DD2BE2BEA293B895904 PUSH1 0x40 MLOAD PUSH1 0x40 MLOAD DUP1 SWAP2 SUB SWAP1 LOG1 JUMP JUMPDEST PUSH1 0x60 PUSH0 PUSH1 0x3 DUP1 SLOAD SWAP1 POP PUSH8 0xFFFFFFFFFFFFFFFF DUP2 GT ISZERO PUSH2 0x4C4 JUMPI PUSH2 0x4C3 PUSH2 0x204A JUMP JUMPDEST JUMPDEST PUSH1 0x40 MLOAD SWAP1 DUP1 DUP3 MSTORE DUP1 PUSH1 0x20 MUL PUSH1 0x20 ADD DUP3 ADD PUSH1 0x40 MSTORE DUP1 ISZERO PUSH2 0x4FD JUMPI DUP2 PUSH1 0x20 ADD JUMPDEST PUSH2 0x4EA PUSH2 0x1D02 JUMP JUMPDEST DUP2 MSTORE PUSH1 0x20 ADD SWAP1 PUSH1 0x1 SWAP1 SUB SWAP1 DUP2 PUSH2 0x4E2 JUMPI SWAP1 POP JUMPDEST POP SWAP1 POP PUSH0 JUMPDEST PUSH1 0x3 DUP1 SLOAD SWAP1 POP DUP2 LT ISZERO PUSH2 0x73B JUMPI PUSH1 0x2 PUSH0 PUSH1 0x3 DUP4 DUP2 SLOAD DUP2 LT PUSH2 0x526 JUMPI PUSH2 0x525 PUSH2 0x262E JUMP JUMPDEST JUMPDEST SWAP1 PUSH0 MSTORE PUSH1 0x20 PUSH0 KECCAK256 ADD PUSH0 SWAP1 SLOAD SWAP1 PUSH2 0x100 EXP SWAP1 DIV PUSH20 0xFFFFFFFFFFFFFFFFFFFFFFFFFFFFFFFFFFFFFFFF AND PUSH20 0xFFFFFFFFFFFFFFFFFFFFFFFFFFFFFFFFFFFFFFFF AND PUSH20 0xFFFFFFFFFFFFFFFFFFFFFFFFFFFFFFFFFFFFFFFF AND DUP2 MSTORE PUSH1 0x20 ADD SWAP1 DUP2 MSTORE PUSH1 0x20 ADD PUSH0 KECCAK256 PUSH1 0x40 MLOAD DUP1 PUSH1 0x80 ADD PUSH1 0x40 MSTORE SWAP1 DUP2 PUSH0 DUP3 ADD DUP1 SLOAD PUSH2 0x5A1 SWAP1 PUSH2 0x2688 JUMP JUMPDEST DUP1 PUSH1 0x1F ADD PUSH1 0x20 DUP1 SWAP2 DIV MUL PUSH1 0x20 ADD PUSH1 0x40 MLOAD SWAP1 DUP2 ADD PUSH1 0x40 MSTORE DUP1 SWAP3 SWAP2 SWAP1 DUP2 DUP2 MSTORE PUSH1 0x20 ADD DUP3 DUP1 SLOAD PUSH2 0x5CD SWAP1 PUSH2 0x2688 JUMP JUMPDEST DUP1 ISZERO PUSH2 0x618 JUMPI DUP1 PUSH1 0x1F LT PUSH2 0x5EF JUMPI PUSH2 0x100 DUP1 DUP4 SLOAD DIV MUL DUP4 MSTORE SWAP2 PUSH1 0x20 ADD SWAP2 PUSH2 0x618 JUMP JUMPDEST DUP3 ADD SWAP2 SWAP1 PUSH0 MSTORE PUSH1 0x20 PUSH0 KECCAK256 SWAP1 JUMPDEST DUP2 SLOAD DUP2 MSTORE SWAP1 PUSH1 0x1 ADD SWAP1 PUSH1 0x20 ADD DUP1 DUP4 GT PUSH2 0x5FB JUMPI DUP3 SWAP1 SUB PUSH1 0x1F AND DUP3 ADD SWAP2 JUMPDEST POP POP POP POP POP DUP2 MSTORE PUSH1 0x20 ADD PUSH1 0x1 DUP3 ADD PUSH0 SWAP1 SLOAD SWAP1 PUSH2 0x100 EXP SWAP1 DIV PUSH20 0xFFFFFFFFFFFFFFFFFFFFFFFFFFFFFFFFFFFFFFFF AND PUSH20 0xFFFFFFFFFFFFFFFFFFFFFFFFFFFFFFFFFFFFFFFF AND PUSH20 0xFFFFFFFFFFFFFFFFFFFFFFFFFFFFFFFFFFFFFFFF AND DUP2 MSTORE PUSH1 0x20 ADD PUSH1 0x2 DUP3 ADD SLOAD DUP2 MSTORE PUSH1 0x20 ADD PUSH1 0x3 DUP3 ADD DUP1 SLOAD PUSH2 0x690 SWAP1 PUSH2 0x2688 JUMP JUMPDEST DUP1 PUSH1 0x1F ADD PUSH1 0x20 DUP1 SWAP2 DIV MUL PUSH1 0x20 ADD PUSH1 0x40 MLOAD SWAP1 DUP2 ADD PUSH1 0x40 MSTORE DUP1 SWAP3 SWAP2 SWAP1 DUP2 DUP2 MSTORE PUSH1 0x20 ADD DUP3 DUP1 SLOAD PUSH2 0x6BC SWAP1 PUSH2 0x2688 JUMP JUMPDEST DUP1 ISZERO PUSH2 0x707 JUMPI DUP1 PUSH1 0x1F LT PUSH2 0x6DE JUMPI PUSH2 0x100 DUP1 DUP4 SLOAD DIV MUL DUP4 MSTORE SWAP2 PUSH1 0x20 ADD SWAP2 PUSH2 0x707 JUMP JUMPDEST DUP3 ADD SWAP2 SWAP1 PUSH0 MSTORE PUSH1 0x20 PUSH0 KECCAK256 SWAP1 JUMPDEST DUP2 SLOAD DUP2 MSTORE SWAP1 PUSH1 0x1 ADD SWAP1 PUSH1 0x20 ADD DUP1 DUP4 GT PUSH2 0x6EA JUMPI DUP3 SWAP1 SUB PUSH1 0x1F AND DUP3 ADD SWAP2 JUMPDEST POP POP POP POP POP DUP2 MSTORE POP POP DUP3 DUP3 DUP2 MLOAD DUP2 LT PUSH2 0x723 JUMPI PUSH2 0x722 PUSH2 0x262E JUMP JUMPDEST JUMPDEST PUSH1 0x20 MUL PUSH1 0x20 ADD ADD DUP2 SWAP1 MSTORE POP DUP1 DUP1 PUSH1 0x1 ADD SWAP2 POP POP PUSH2 0x502 JUMP JUMPDEST POP DUP1 SWAP2 POP POP SWAP1 JUMP JUMPDEST PUSH0 DUP1 PUSH1 0x1 PUSH0 DUP6 PUSH20 0xFFFFFFFFFFFFFFFFFFFFFFFFFFFFFFFFFFFFFFFF AND PUSH20 0xFFFFFFFFFFFFFFFFFFFFFFFFFFFFFFFFFFFFFFFF AND DUP2 MSTORE PUSH1 0x20 ADD SWAP1 DUP2 MSTORE PUSH1 0x20 ADD PUSH0 KECCAK256 SWAP1 POP DUP1 PUSH0 ADD PUSH0 SWAP1 SLOAD SWAP1 PUSH2 0x100 EXP SWAP1 DIV PUSH1 0xFF AND DUP1 ISZERO PUSH2 0x7EE JUMPI POP DUP3 PUSH1 0x40 MLOAD PUSH1 0x20 ADD PUSH2 0x7AC SWAP2 SWAP1 PUSH2 0x26F2 JUMP JUMPDEST PUSH1 0x40 MLOAD PUSH1 0x20 DUP2 DUP4 SUB SUB DUP2 MSTORE SWAP1 PUSH1 0x40 MSTORE DUP1 MLOAD SWAP1 PUSH1 0x20 ADD KECCAK256 DUP2 PUSH1 0x2 ADD PUSH1 0x40 MLOAD PUSH1 0x20 ADD PUSH2 0x7D6 SWAP2 SWAP1 PUSH2 0x279A JUMP JUMPDEST PUSH1 0x40 MLOAD PUSH1 0x20 DUP2 DUP4 SUB SUB DUP2 MSTORE SWAP1 PUSH1 0x40 MSTORE DUP1 MLOAD SWAP1 PUSH1 0x20 ADD KECCAK256 EQ JUMPDEST ISZERO PUSH2 0x7FD JUMPI PUSH1 0x1 SWAP2 POP POP PUSH2 0x802 JUMP JUMPDEST PUSH0 SWAP2 POP POP JUMPDEST SWAP3 SWAP2 POP POP JUMP JUMPDEST PUSH0 DUP1 SLOAD SWAP1 PUSH2 0x100 EXP SWAP1 DIV PUSH20 0xFFFFFFFFFFFFFFFFFFFFFFFFFFFFFFFFFFFFFFFF AND PUSH20 0xFFFFFFFFFFFFFFFFFFFFFFFFFFFFFFFFFFFFFFFF AND CALLER PUSH20 0xFFFFFFFFFFFFFFFFFFFFFFFFFFFFFFFFFFFFFFFF AND EQ PUSH2 0x895 JUMPI PUSH1 0x40 MLOAD PUSH32 0x8C379A000000000000000000000000000000000000000000000000000000000 DUP2 MSTORE PUSH1 0x4 ADD PUSH2 0x88C SWAP1 PUSH2 0x25A8 JUMP JUMPDEST PUSH1 0x40 MLOAD DUP1 SWAP2 SUB SWAP1 REVERT JUMPDEST PUSH1 0x1 PUSH0 DUP6 PUSH20 0xFFFFFFFFFFFFFFFFFFFFFFFFFFFFFFFFFFFFFFFF AND PUSH20 0xFFFFFFFFFFFFFFFFFFFFFFFFFFFFFFFFFFFFFFFF AND DUP2 MSTORE PUSH1 0x20 ADD SWAP1 DUP2 MSTORE PUSH1 0x20 ADD PUSH0 KECCAK256 PUSH0 ADD PUSH0 SWAP1 SLOAD SWAP1 PUSH2 0x100 EXP SWAP1 DIV PUSH1 0xFF AND ISZERO PUSH2 0x921 JUMPI PUSH1 0x40 MLOAD PUSH32 0x8C379A000000000000000000000000000000000000000000000000000000000 DUP2 MSTORE PUSH1 0x4 ADD PUSH2 0x918 SWAP1 PUSH2 0x27FA JUMP JUMPDEST PUSH1 0x40 MLOAD DUP1 SWAP2 SUB SWAP1 REVERT JUMPDEST PUSH1 0x40 MLOAD DUP1 PUSH1 0xE0 ADD PUSH1 0x40 MSTORE DUP1 PUSH1 0x1 ISZERO ISZERO DUP2 MSTORE PUSH1 0x20 ADD PUSH0 ISZERO ISZERO DUP2 MSTORE PUSH1 0x20 ADD PUSH0 PUSH20 0xFFFFFFFFFFFFFFFFFFFFFFFFFFFFFFFFFFFFFFFF AND DUP2 MSTORE PUSH1 0x20 ADD DUP5 DUP2 MSTORE PUSH1 0x20 ADD DUP4 DUP2 MSTORE PUSH1 0x20 ADD DUP3 DUP2 MSTORE PUSH1 0x20 ADD DUP6 PUSH20 0xFFFFFFFFFFFFFFFFFFFFFFFFFFFFFFFFFFFFFFFF AND DUP2 MSTORE POP PUSH1 0x1 PUSH0 DUP7 PUSH20 0xFFFFFFFFFFFFFFFFFFFFFFFFFFFFFFFFFFFFFFFF AND PUSH20 0xFFFFFFFFFFFFFFFFFFFFFFFFFFFFFFFFFFFFFFFF AND DUP2 MSTORE PUSH1 0x20 ADD SWAP1 DUP2 MSTORE PUSH1 0x20 ADD PUSH0 KECCAK256 PUSH0 DUP3 ADD MLOAD DUP2 PUSH0 ADD PUSH0 PUSH2 0x100 EXP DUP2 SLOAD DUP2 PUSH1 0xFF MUL NOT AND SWAP1 DUP4 ISZERO ISZERO MUL OR SWAP1 SSTORE POP PUSH1 0x20 DUP3 ADD MLOAD DUP2 PUSH0 ADD PUSH1 0x1 PUSH2 0x100 EXP DUP2 SLOAD DUP2 PUSH1 0xFF MUL NOT AND SWAP1 DUP4 ISZERO ISZERO MUL OR SWAP1 SSTORE POP PUSH1 0x40 DUP3 ADD MLOAD DUP2 PUSH0 ADD PUSH1 0x2 PUSH2 0x100 EXP DUP2 SLOAD DUP2 PUSH20 0xFFFFFFFFFFFFFFFFFFFFFFFFFFFFFFFFFFFFFFFF MUL NOT AND SWAP1 DUP4 PUSH20 0xFFFFFFFFFFFFFFFFFFFFFFFFFFFFFFFFFFFFFFFF AND MUL OR SWAP1 SSTORE POP PUSH1 0x60 DUP3 ADD MLOAD DUP2 PUSH1 0x1 ADD SWAP1 DUP2 PUSH2 0xA59 SWAP2 SWAP1 PUSH2 0x29A3 JUMP JUMPDEST POP PUSH1 0x80 DUP3 ADD MLOAD DUP2 PUSH1 0x2 ADD SWAP1 DUP2 PUSH2 0xA6F SWAP2 SWAP1 PUSH2 0x29A3 JUMP JUMPDEST POP PUSH1 0xA0 DUP3 ADD MLOAD DUP2 PUSH1 0x3 ADD SSTORE PUSH1 0xC0 DUP3 ADD MLOAD DUP2 PUSH1 0x4 ADD PUSH0 PUSH2 0x100 EXP DUP2 SLOAD DUP2 PUSH20 0xFFFFFFFFFFFFFFFFFFFFFFFFFFFFFFFFFFFFFFFF MUL NOT AND SWAP1 DUP4 PUSH20 0xFFFFFFFFFFFFFFFFFFFFFFFFFFFFFFFFFFFFFFFF AND MUL OR SWAP1 SSTORE POP SWAP1 POP POP DUP4 PUSH20 0xFFFFFFFFFFFFFFFFFFFFFFFFFFFFFFFFFFFFFFFF AND PUSH32 0x9CF1682C9291D84AAE23538285245CBBABC90127784DEDA74B7D7EA1136AE4E7 DUP5 DUP5 DUP5 PUSH1 0x40 MLOAD PUSH2 0xB0D SWAP4 SWAP3 SWAP2 SWAP1 PUSH2 0x2A72 JUMP JUMPDEST PUSH1 0x40 MLOAD DUP1 SWAP2 SUB SWAP1 LOG2 POP POP POP POP JUMP JUMPDEST PUSH1 0x6 SLOAD DUP2 JUMP JUMPDEST PUSH0 DUP1 SLOAD SWAP1 PUSH2 0x100 EXP SWAP1 DIV PUSH20 0xFFFFFFFFFFFFFFFFFFFFFFFFFFFFFFFFFFFFFFFF AND PUSH20 0xFFFFFFFFFFFFFFFFFFFFFFFFFFFFFFFFFFFFFFFF AND CALLER PUSH20 0xFFFFFFFFFFFFFFFFFFFFFFFFFFFFFFFFFFFFFFFF AND EQ PUSH2 0xBAE JUMPI PUSH1 0x40 MLOAD PUSH32 0x8C379A000000000000000000000000000000000000000000000000000000000 DUP2 MSTORE PUSH1 0x4 ADD PUSH2 0xBA5 SWAP1 PUSH2 0x25A8 JUMP JUMPDEST PUSH1 0x40 MLOAD DUP1 SWAP2 SUB SWAP1 REVERT JUMPDEST PUSH0 PUSH20 0xFFFFFFFFFFFFFFFFFFFFFFFFFFFFFFFFFFFFFFFF AND PUSH1 0x2 PUSH0 DUP6 PUSH20 0xFFFFFFFFFFFFFFFFFFFFFFFFFFFFFFFFFFFFFFFF AND PUSH20 0xFFFFFFFFFFFFFFFFFFFFFFFFFFFFFFFFFFFFFFFF AND DUP2 MSTORE PUSH1 0x20 ADD SWAP1 DUP2 MSTORE PUSH1 0x20 ADD PUSH0 KECCAK256 PUSH1 0x1 ADD PUSH0 SWAP1 SLOAD SWAP1 PUSH2 0x100 EXP SWAP1 DIV PUSH20 0xFFFFFFFFFFFFFFFFFFFFFFFFFFFFFFFFFFFFFFFF AND PUSH20 0xFFFFFFFFFFFFFFFFFFFFFFFFFFFFFFFFFFFFFFFF AND EQ PUSH2 0xC7B JUMPI PUSH1 0x40 MLOAD PUSH32 0x8C379A000000000000000000000000000000000000000000000000000000000 DUP2 MSTORE PUSH1 0x4 ADD PUSH2 0xC72 SWAP1 PUSH2 0x2AFF JUMP JUMPDEST PUSH1 0x40 MLOAD DUP1 SWAP2 SUB SWAP1 REVERT JUMPDEST PUSH1 0x40 MLOAD DUP1 PUSH1 0x80 ADD PUSH1 0x40 MSTORE DUP1 DUP4 DUP2 MSTORE PUSH1 0x20 ADD DUP5 PUSH20 0xFFFFFFFFFFFFFFFFFFFFFFFFFFFFFFFFFFFFFFFF AND DUP2 MSTORE PUSH1 0x20 ADD PUSH0 DUP2 MSTORE PUSH1 0x20 ADD DUP3 DUP2 MSTORE POP PUSH1 0x2 PUSH0 DUP6 PUSH20 0xFFFFFFFFFFFFFFFFFFFFFFFFFFFFFFFFFFFFFFFF AND PUSH20 0xFFFFFFFFFFFFFFFFFFFFFFFFFFFFFFFFFFFFFFFF AND DUP2 MSTORE PUSH1 0x20 ADD SWAP1 DUP2 MSTORE PUSH1 0x20 ADD PUSH0 KECCAK256 PUSH0 DUP3 ADD MLOAD DUP2 PUSH0 ADD SWAP1 DUP2 PUSH2 0xD02 SWAP2 SWAP1 PUSH2 0x29A3 JUMP JUMPDEST POP PUSH1 0x20 DUP3 ADD MLOAD DUP2 PUSH1 0x1 ADD PUSH0 PUSH2 0x100 EXP DUP2 SLOAD DUP2 PUSH20 0xFFFFFFFFFFFFFFFFFFFFFFFFFFFFFFFFFFFFFFFF MUL NOT AND SWAP1 DUP4 PUSH20 0xFFFFFFFFFFFFFFFFFFFFFFFFFFFFFFFFFFFFFFFF AND MUL OR SWAP1 SSTORE POP PUSH1 0x40 DUP3 ADD MLOAD DUP2 PUSH1 0x2 ADD SSTORE PUSH1 0x60 DUP3 ADD MLOAD DUP2 PUSH1 0x3 ADD SWAP1 DUP2 PUSH2 0xD68 SWAP2 SWAP1 PUSH2 0x29A3 JUMP JUMPDEST POP SWAP1 POP POP PUSH1 0x3 DUP4 SWAP1 DUP1 PUSH1 0x1 DUP2 SLOAD ADD DUP1 DUP3 SSTORE DUP1 SWAP2 POP POP PUSH1 0x1 SWAP1 SUB SWAP1 PUSH0 MSTORE PUSH1 0x20 PUSH0 KECCAK256 ADD PUSH0 SWAP1 SWAP2 SWAP1 SWAP2 SWAP1 SWAP2 PUSH2 0x100 EXP DUP2 SLOAD DUP2 PUSH20 0xFFFFFFFFFFFFFFFFFFFFFFFFFFFFFFFFFFFFFFFF MUL NOT AND SWAP1 DUP4 PUSH20 0xFFFFFFFFFFFFFFFFFFFFFFFFFFFFFFFFFFFFFFFF AND MUL OR SWAP1 SSTORE POP DUP3 PUSH20 0xFFFFFFFFFFFFFFFFFFFFFFFFFFFFFFFFFFFFFFFF AND PUSH32 0x32495C7DEFA10BD47846728172A9991DCAD3BB09741CB15A28041C5DE778C416 DUP4 DUP4 PUSH1 0x40 MLOAD PUSH2 0xE14 SWAP3 SWAP2 SWAP1 PUSH2 0x2B1D JUMP JUMPDEST PUSH1 0x40 MLOAD DUP1 SWAP2 SUB SWAP1 LOG2 POP POP POP JUMP JUMPDEST PUSH0 PUSH1 0x14 SWAP1 SLOAD SWAP1 PUSH2 0x100 EXP SWAP1 DIV PUSH1 0xFF AND DUP1 ISZERO PUSH2 0xE48 JUMPI POP PUSH0 PUSH1 0x15 SWAP1 SLOAD SWAP1 PUSH2 0x100 EXP SWAP1 DIV PUSH1 0xFF AND ISZERO JUMPDEST PUSH2 0xE87 JUMPI PUSH1 0x40 MLOAD PUSH32 0x8C379A000000000000000000000000000000000000000000000000000000000 DUP2 MSTORE PUSH1 0x4 ADD PUSH2 0xE7E SWAP1 PUSH2 0x2B9C JUMP JUMPDEST PUSH1 0x40 MLOAD DUP1 SWAP2 SUB SWAP1 REVERT JUMPDEST PUSH0 PUSH1 0x1 PUSH0 CALLER PUSH20 0xFFFFFFFFFFFFFFFFFFFFFFFFFFFFFFFFFFFFFFFF AND PUSH20 0xFFFFFFFFFFFFFFFFFFFFFFFFFFFFFFFFFFFFFFFF AND DUP2 MSTORE PUSH1 0x20 ADD SWAP1 DUP2 MSTORE PUSH1 0x20 ADD PUSH0 KECCAK256 SWAP1 POP DUP1 PUSH0 ADD PUSH0 SWAP1 SLOAD SWAP1 PUSH2 0x100 EXP SWAP1 DIV PUSH1 0xFF AND PUSH2 0xF16 JUMPI PUSH1 0x40 MLOAD PUSH32 0x8C379A000000000000000000000000000000000000000000000000000000000 DUP2 MSTORE PUSH1 0x4 ADD PUSH2 0xF0D SWAP1 PUSH2 0x2C04 JUMP JUMPDEST PUSH1 0x40 MLOAD DUP1 SWAP2 SUB SWAP1 REVERT JUMPDEST DUP1 PUSH0 ADD PUSH1 0x1 SWAP1 SLOAD SWAP1 PUSH2 0x100 EXP SWAP1 DIV PUSH1 0xFF AND ISZERO PUSH2 0xF67 JUMPI PUSH1 0x40 MLOAD PUSH32 0x8C379A000000000000000000000000000000000000000000000000000000000 DUP2 MSTORE PUSH1 0x4 ADD PUSH2 0xF5E SWAP1 PUSH2 0x2C6C JUMP JUMPDEST PUSH1 0x40 MLOAD DUP1 SWAP2 SUB SWAP1 REVERT JUMPDEST PUSH0 PUSH20 0xFFFFFFFFFFFFFFFFFFFFFFFFFFFFFFFFFFFFFFFF AND PUSH1 0x2 PUSH0 DUP5 PUSH20 0xFFFFFFFFFFFFFFFFFFFFFFFFFFFFFFFFFFFFFFFF AND PUSH20 0xFFFFFFFFFFFFFFFFFFFFFFFFFFFFFFFFFFFFFFFF AND DUP2 MSTORE PUSH1 0x20 ADD SWAP1 DUP2 MSTORE PUSH1 0x20 ADD PUSH0 KECCAK256 PUSH1 0x1 ADD PUSH0 SWAP1 SLOAD SWAP1 PUSH2 0x100 EXP SWAP1 DIV PUSH20 0xFFFFFFFFFFFFFFFFFFFFFFFFFFFFFFFFFFFFFFFF AND PUSH20 0xFFFFFFFFFFFFFFFFFFFFFFFFFFFFFFFFFFFFFFFF AND SUB PUSH2 0x1034 JUMPI PUSH1 0x40 MLOAD PUSH32 0x8C379A000000000000000000000000000000000000000000000000000000000 DUP2 MSTORE PUSH1 0x4 ADD PUSH2 0x102B SWAP1 PUSH2 0x2CD4 JUMP JUMPDEST PUSH1 0x40 MLOAD DUP1 SWAP2 SUB SWAP1 REVERT JUMPDEST PUSH1 0x1 DUP2 PUSH0 ADD PUSH1 0x1 PUSH2 0x100 EXP DUP2 SLOAD DUP2 PUSH1 0xFF MUL NOT AND SWAP1 DUP4 ISZERO ISZERO MUL OR SWAP1 SSTORE POP DUP2 DUP2 PUSH0 ADD PUSH1 0x2 PUSH2 0x100 EXP DUP2 SLOAD DUP2 PUSH20 0xFFFFFFFFFFFFFFFFFFFFFFFFFFFFFFFFFFFFFFFF MUL NOT AND SWAP1 DUP4 PUSH20 0xFFFFFFFFFFFFFFFFFFFFFFFFFFFFFFFFFFFFFFFF AND MUL OR SWAP1 SSTORE POP PUSH1 0x2 PUSH0 DUP4 PUSH20 0xFFFFFFFFFFFFFFFFFFFFFFFFFFFFFFFFFFFFFFFF AND PUSH20 0xFFFFFFFFFFFFFFFFFFFFFFFFFFFFFFFFFFFFFFFF AND DUP2 MSTORE PUSH1 0x20 ADD SWAP1 DUP2 MSTORE PUSH1 0x20 ADD PUSH0 KECCAK256 PUSH1 0x2 ADD PUSH0 DUP2 SLOAD DUP1 SWAP3 SWAP2 SWAP1 PUSH2 0x10E2 SWAP1 PUSH2 0x2D1F JUMP JUMPDEST SWAP2 SWAP1 POP SSTORE POP PUSH1 0x6 SLOAD PUSH1 0x2 PUSH0 DUP5 PUSH20 0xFFFFFFFFFFFFFFFFFFFFFFFFFFFFFFFFFFFFFFFF AND PUSH20 0xFFFFFFFFFFFFFFFFFFFFFFFFFFFFFFFFFFFFFFFF AND DUP2 MSTORE PUSH1 0x20 ADD SWAP1 DUP2 MSTORE PUSH1 0x20 ADD PUSH0 KECCAK256 PUSH1 0x2 ADD SLOAD GT ISZERO PUSH2 0x11B9 JUMPI PUSH1 0x2 PUSH0 DUP4 PUSH20 0xFFFFFFFFFFFFFFFFFFFFFFFFFFFFFFFFFFFFFFFF AND PUSH20 0xFFFFFFFFFFFFFFFFFFFFFFFFFFFFFFFFFFFFFFFF AND DUP2 MSTORE PUSH1 0x20 ADD SWAP1 DUP2 MSTORE PUSH1 0x20 ADD PUSH0 KECCAK256 PUSH1 0x2 ADD SLOAD PUSH1 0x6 DUP2 SWAP1 SSTORE POP DUP2 PUSH1 0x5 PUSH0 PUSH2 0x100 EXP DUP2 SLOAD DUP2 PUSH20 0xFFFFFFFFFFFFFFFFFFFFFFFFFFFFFFFFFFFFFFFF MUL NOT AND SWAP1 DUP4 PUSH20 0xFFFFFFFFFFFFFFFFFFFFFFFFFFFFFFFFFFFFFFFF AND MUL OR SWAP1 SSTORE POP JUMPDEST DUP2 PUSH20 0xFFFFFFFFFFFFFFFFFFFFFFFFFFFFFFFFFFFFFFFF AND CALLER PUSH20 0xFFFFFFFFFFFFFFFFFFFFFFFFFFFFFFFFFFFFFFFF AND PUSH32 0xC4BFEA56D023DC354A6E1649F3D6E114E28A306B3E281116B4D9D6C89098FA66 PUSH1 0x40 MLOAD PUSH1 0x40 MLOAD DUP1 SWAP2 SUB SWAP1 LOG3 POP POP JUMP JUMPDEST PUSH0 PUSH1 0x14 SWAP1 SLOAD SWAP1 PUSH2 0x100 EXP SWAP1 DIV PUSH1 0xFF AND DUP2 JUMP JUMPDEST PUSH1 0x2 PUSH1 0x20 MSTORE DUP1 PUSH0 MSTORE PUSH1 0x40 PUSH0 KECCAK256 PUSH0 SWAP2 POP SWAP1 POP DUP1 PUSH0 ADD DUP1 SLOAD PUSH2 0x1248 SWAP1 PUSH2 0x2688 JUMP JUMPDEST DUP1 PUSH1 0x1F ADD PUSH1 0x20 DUP1 SWAP2 DIV MUL PUSH1 0x20 ADD PUSH1 0x40 MLOAD SWAP1 DUP2 ADD PUSH1 0x40 MSTORE DUP1 SWAP3 SWAP2 SWAP1 DUP2 DUP2 MSTORE PUSH1 0x20 ADD DUP3 DUP1 SLOAD PUSH2 0x1274 SWAP1 PUSH2 0x2688 JUMP JUMPDEST DUP1 ISZERO PUSH2 0x12BF JUMPI DUP1 PUSH1 0x1F LT PUSH2 0x1296 JUMPI PUSH2 0x100 DUP1 DUP4 SLOAD DIV MUL DUP4 MSTORE SWAP2 PUSH1 0x20 ADD SWAP2 PUSH2 0x12BF JUMP JUMPDEST DUP3 ADD SWAP2 SWAP1 PUSH0 MSTORE PUSH1 0x20 PUSH0 KECCAK256 SWAP1 JUMPDEST DUP2 SLOAD DUP2 MSTORE SWAP1 PUSH1 0x1 ADD SWAP1 PUSH1 0x20 ADD DUP1 DUP4 GT PUSH2 0x12A2 JUMPI DUP3 SWAP1 SUB PUSH1 0x1F AND DUP3 ADD SWAP2 JUMPDEST POP POP POP POP POP SWAP1 DUP1 PUSH1 0x1 ADD PUSH0 SWAP1 SLOAD SWAP1 PUSH2 0x100 EXP SWAP1 DIV PUSH20 0xFFFFFFFFFFFFFFFFFFFFFFFFFFFFFFFFFFFFFFFF AND SWAP1 DUP1 PUSH1 0x2 ADD SLOAD SWAP1 DUP1 PUSH1 0x3 ADD DUP1 SLOAD PUSH2 0x12FF SWAP1 PUSH2 0x2688 JUMP JUMPDEST DUP1 PUSH1 0x1F ADD PUSH1 0x20 DUP1 SWAP2 DIV MUL PUSH1 0x20 ADD PUSH1 0x40 MLOAD SWAP1 DUP2 ADD PUSH1 0x40 MSTORE DUP1 SWAP3 SWAP2 SWAP1 DUP2 DUP2 MSTORE PUSH1 0x20 ADD DUP3 DUP1 SLOAD PUSH2 0x132B SWAP1 PUSH2 0x2688 JUMP JUMPDEST DUP1 ISZERO PUSH2 0x1376 JUMPI DUP1 PUSH1 0x1F LT PUSH2 0x134D JUMPI PUSH2 0x100 DUP1 DUP4 SLOAD DIV MUL DUP4 MSTORE SWAP2 PUSH1 0x20 ADD SWAP2 PUSH2 0x1376 JUMP JUMPDEST DUP3 ADD SWAP2 SWAP1 PUSH0 MSTORE PUSH1 0x20 PUSH0 KECCAK256 SWAP1 JUMPDEST DUP2 SLOAD DUP2 MSTORE SWAP1 PUSH1 0x1 ADD SWAP1 PUSH1 0x20 ADD DUP1 DUP4 GT PUSH2 0x1359 JUMPI DUP3 SWAP1 SUB PUSH1 0x1F AND DUP3 ADD SWAP2 JUMPDEST POP POP POP POP POP SWAP1 POP DUP5 JUMP JUMPDEST PUSH0 PUSH1 0x15 SWAP1 SLOAD SWAP1 PUSH2 0x100 EXP SWAP1 DIV PUSH1 0xFF AND DUP2 JUMP JUMPDEST PUSH1 0x1 PUSH1 0x20 MSTORE DUP1 PUSH0 MSTORE PUSH1 0x40 PUSH0 KECCAK256 PUSH0 SWAP2 POP SWAP1 POP DUP1 PUSH0 ADD PUSH0 SWAP1 SLOAD SWAP1 PUSH2 0x100 EXP SWAP1 DIV PUSH1 0xFF AND SWAP1 DUP1 PUSH0 ADD PUSH1 0x1 SWAP1 SLOAD SWAP1 PUSH2 0x100 EXP SWAP1 DIV PUSH1 0xFF AND SWAP1 DUP1 PUSH0 ADD PUSH1 0x2 SWAP1 SLOAD SWAP1 PUSH2 0x100 EXP SWAP1 DIV PUSH20 0xFFFFFFFFFFFFFFFFFFFFFFFFFFFFFFFFFFFFFFFF AND SWAP1 DUP1 PUSH1 0x1 ADD DUP1 SLOAD PUSH2 0x13FA SWAP1 PUSH2 0x2688 JUMP JUMPDEST DUP1 PUSH1 0x1F ADD PUSH1 0x20 DUP1 SWAP2 DIV MUL PUSH1 0x20 ADD PUSH1 0x40 MLOAD SWAP1 DUP2 ADD PUSH1 0x40 MSTORE DUP1 SWAP3 SWAP2 SWAP1 DUP2 DUP2 MSTORE PUSH1 0x20 ADD DUP3 DUP1 SLOAD PUSH2 0x1426 SWAP1 PUSH2 0x2688 JUMP JUMPDEST DUP1 ISZERO PUSH2 0x1471 JUMPI DUP1 PUSH1 0x1F LT PUSH2 0x1448 JUMPI PUSH2 0x100 DUP1 DUP4 SLOAD DIV MUL DUP4 MSTORE SWAP2 PUSH1 0x20 ADD SWAP2 PUSH2 0x1471 JUMP JUMPDEST DUP3 ADD SWAP2 SWAP1 PUSH0 MSTORE PUSH1 0x20 PUSH0 KECCAK256 SWAP1 JUMPDEST DUP2 SLOAD DUP2 MSTORE SWAP1 PUSH1 0x1 ADD SWAP1 PUSH1 0x20 ADD DUP1 DUP4 GT PUSH2 0x1454 JUMPI DUP3 SWAP1 SUB PUSH1 0x1F AND DUP3 ADD SWAP2 JUMPDEST POP POP POP POP POP SWAP1 DUP1 PUSH1 0x2 ADD DUP1 SLOAD PUSH2 0x1486 SWAP1 PUSH2 0x2688 JUMP JUMPDEST DUP1 PUSH1 0x1F ADD PUSH1 0x20 DUP1 SWAP2 DIV MUL PUSH1 0x20 ADD PUSH1 0x40 MLOAD SWAP1 DUP2 ADD PUSH1 0x40 MSTORE DUP1 SWAP3 SWAP2 SWAP1 DUP2 DUP2 MSTORE PUSH1 0x20 ADD DUP3 DUP1 SLOAD PUSH2 0x14B2 SWAP1 PUSH2 0x2688 JUMP JUMPDEST DUP1 ISZERO PUSH2 0x14FD JUMPI DUP1 PUSH1 0x1F LT PUSH2 0x14D4 JUMPI PUSH2 0x100 DUP1 DUP4 SLOAD DIV MUL DUP4 MSTORE SWAP2 PUSH1 0x20 ADD SWAP2 PUSH2 0x14FD JUMP JUMPDEST DUP3 ADD SWAP2 SWAP1 PUSH0 MSTORE PUSH1 0x20 PUSH0 KECCAK256 SWAP1 JUMPDEST DUP2 SLOAD DUP2 MSTORE SWAP1 PUSH1 0x1 ADD SWAP1 PUSH1 0x20 ADD DUP1 DUP4 GT PUSH2 0x14E0 JUMPI DUP3 SWAP1 SUB PUSH1 0x1F AND DUP3 ADD SWAP2 JUMPDEST POP POP POP POP POP SWAP1 DUP1 PUSH1 0x3 ADD SLOAD SWAP1 DUP1 PUSH1 0x4 ADD PUSH0 SWAP1 SLOAD SWAP1 PUSH2 0x100 EXP SWAP1 DIV PUSH20 0xFFFFFFFFFFFFFFFFFFFFFFFFFFFFFFFFFFFFFFFF AND SWAP1 POP DUP8 JUMP JUMPDEST PUSH1 0x5 PUSH0 SWAP1 SLOAD SWAP1 PUSH2 0x100 EXP SWAP1 DIV PUSH20 0xFFFFFFFFFFFFFFFFFFFFFFFFFFFFFFFFFFFFFFFF AND DUP2 JUMP JUMPDEST PUSH0 DUP1 SLOAD SWAP1 PUSH2 0x100 EXP SWAP1 DIV PUSH20 0xFFFFFFFFFFFFFFFFFFFFFFFFFFFFFFFFFFFFFFFF AND PUSH20 0xFFFFFFFFFFFFFFFFFFFFFFFFFFFFFFFFFFFFFFFF AND CALLER PUSH20 0xFFFFFFFFFFFFFFFFFFFFFFFFFFFFFFFFFFFFFFFF AND EQ PUSH2 0x15E4 JUMPI PUSH1 0x40 MLOAD PUSH32 0x8C379A000000000000000000000000000000000000000000000000000000000 DUP2 MSTORE PUSH1 0x4 ADD PUSH2 0x15DB SWAP1 PUSH2 0x25A8 JUMP JUMPDEST PUSH1 0x40 MLOAD DUP1 SWAP2 SUB SWAP1 REVERT JUMPDEST PUSH0 PUSH1 0x14 SWAP1 SLOAD SWAP1 PUSH2 0x100 EXP SWAP1 DIV PUSH1 0xFF AND PUSH2 0x1632 JUMPI PUSH1 0x40 MLOAD PUSH32 0x8C379A000000000000000000000000000000000000000000000000000000000 DUP2 MSTORE PUSH1 0x4 ADD PUSH2 0x1629 SWAP1 PUSH2 0x2DB0 JUMP JUMPDEST PUSH1 0x40 MLOAD DUP1 SWAP2 SUB SWAP1 REVERT JUMPDEST PUSH0 PUSH1 0x15 SWAP1 SLOAD SWAP1 PUSH2 0x100 EXP SWAP1 DIV PUSH1 0xFF AND ISZERO PUSH2 0x1681 JUMPI PUSH1 0x40 MLOAD PUSH32 0x8C379A000000000000000000000000000000000000000000000000000000000 DUP2 MSTORE PUSH1 0x4 ADD PUSH2 0x1678 SWAP1 PUSH2 0x2E18 JUMP JUMPDEST PUSH1 0x40 MLOAD DUP1 SWAP2 SUB SWAP1 REVERT JUMPDEST PUSH0 DUP1 PUSH1 0x14 PUSH2 0x100 EXP DUP2 SLOAD DUP2 PUSH1 0xFF MUL NOT AND SWAP1 DUP4 ISZERO ISZERO MUL OR SWAP1 SSTORE POP PUSH1 0x1 PUSH0 PUSH1 0x15 PUSH2 0x100 EXP DUP2 SLOAD DUP2 PUSH1 0xFF MUL NOT AND SWAP1 DUP4 ISZERO ISZERO MUL OR SWAP1 SSTORE POP PUSH0 PUSH2 0x16BD PUSH2 0x1B7A JUMP JUMPDEST SWAP1 POP PUSH32 0xBB2F19094BD5381446A0665B0E954DEB7D3AF8942BE3623044DE8E377001B59 PUSH1 0x5 PUSH0 SWAP1 SLOAD SWAP1 PUSH2 0x100 EXP SWAP1 DIV PUSH20 0xFFFFFFFFFFFFFFFFFFFFFFFFFFFFFFFFFFFFFFFF AND PUSH1 0x6 SLOAD DUP4 PUSH1 0x40 MLOAD PUSH2 0x1715 SWAP4 SWAP3 SWAP2 SWAP1 PUSH2 0x2503 JUMP JUMPDEST PUSH1 0x40 MLOAD DUP1 SWAP2 SUB SWAP1 LOG1 POP JUMP JUMPDEST PUSH1 0x4 DUP2 DUP2 SLOAD DUP2 LT PUSH2 0x172F JUMPI PUSH0 DUP1 REVERT JUMPDEST SWAP1 PUSH0 MSTORE PUSH1 0x20 PUSH0 KECCAK256 ADD PUSH0 SWAP2 POP SLOAD SWAP1 PUSH2 0x100 EXP SWAP1 DIV PUSH20 0xFFFFFFFFFFFFFFFFFFFFFFFFFFFFFFFFFFFFFFFF AND DUP2 JUMP JUMPDEST PUSH1 0x3 DUP2 DUP2 SLOAD DUP2 LT PUSH2 0x176A JUMPI PUSH0 DUP1 REVERT JUMPDEST SWAP1 PUSH0 MSTORE PUSH1 0x20 PUSH0 KECCAK256 ADD PUSH0 SWAP2 POP SLOAD SWAP1 PUSH2 0x100 EXP SWAP1 DIV PUSH20 0xFFFFFFFFFFFFFFFFFFFFFFFFFFFFFFFFFFFFFFFF AND DUP2 JUMP JUMPDEST PUSH0 DUP1 PUSH0 DUP1 PUSH1 0x15 SWAP1 SLOAD SWAP1 PUSH2 0x100 EXP SWAP1 DIV PUSH1 0xFF AND PUSH2 0x17E7 JUMPI PUSH1 0x40 MLOAD PUSH32 0x8C379A000000000000000000000000000000000000000000000000000000000 DUP2 MSTORE PUSH1 0x4 ADD PUSH2 0x17DE SWAP1 PUSH2 0x2E80 JUMP JUMPDEST PUSH1 0x40 MLOAD DUP1 SWAP2 SUB SWAP1 REVERT JUMPDEST PUSH1 0x5 PUSH0 SWAP1 SLOAD SWAP1 PUSH2 0x100 EXP SWAP1 DIV PUSH20 0xFFFFFFFFFFFFFFFFFFFFFFFFFFFFFFFFFFFFFFFF AND PUSH1 0x6 SLOAD PUSH1 0x1 PUSH1 0x4 DUP1 SLOAD SWAP1 POP GT SWAP3 POP SWAP3 POP SWAP3 POP SWAP1 SWAP2 SWAP3 JUMP JUMPDEST PUSH1 0x60 PUSH0 PUSH1 0x15 SWAP1 SLOAD SWAP1 PUSH2 0x100 EXP SWAP1 DIV PUSH1 0xFF AND PUSH2 0x1870 JUMPI PUSH1 0x40 MLOAD PUSH32 0x8C379A000000000000000000000000000000000000000000000000000000000 DUP2 MSTORE PUSH1 0x4 ADD PUSH2 0x1867 SWAP1 PUSH2 0x2E80 JUMP JUMPDEST PUSH1 0x40 MLOAD DUP1 SWAP2 SUB SWAP1 REVERT JUMPDEST PUSH1 0x1 PUSH1 0x4 DUP1 SLOAD SWAP1 POP GT PUSH2 0x18B8 JUMPI PUSH1 0x40 MLOAD PUSH32 0x8C379A000000000000000000000000000000000000000000000000000000000 DUP2 MSTORE PUSH1 0x4 ADD PUSH2 0x18AF SWAP1 PUSH2 0x2EE8 JUMP JUMPDEST PUSH1 0x40 MLOAD DUP1 SWAP2 SUB SWAP1 REVERT JUMPDEST PUSH0 PUSH1 0x4 DUP1 SLOAD SWAP1 POP PUSH8 0xFFFFFFFFFFFFFFFF DUP2 GT ISZERO PUSH2 0x18D8 JUMPI PUSH2 0x18D7 PUSH2 0x204A JUMP JUMPDEST JUMPDEST PUSH1 0x40 MLOAD SWAP1 DUP1 DUP3 MSTORE DUP1 PUSH1 0x20 MUL PUSH1 0x20 ADD DUP3 ADD PUSH1 0x40 MSTORE DUP1 ISZERO PUSH2 0x1911 JUMPI DUP2 PUSH1 0x20 ADD JUMPDEST PUSH2 0x18FE PUSH2 0x1D02 JUMP JUMPDEST DUP2 MSTORE PUSH1 0x20 ADD SWAP1 PUSH1 0x1 SWAP1 SUB SWAP1 DUP2 PUSH2 0x18F6 JUMPI SWAP1 POP JUMPDEST POP SWAP1 POP PUSH0 JUMPDEST PUSH1 0x4 DUP1 SLOAD SWAP1 POP DUP2 LT ISZERO PUSH2 0x1B4F JUMPI PUSH1 0x2 PUSH0 PUSH1 0x4 DUP4 DUP2 SLOAD DUP2 LT PUSH2 0x193A JUMPI PUSH2 0x1939 PUSH2 0x262E JUMP JUMPDEST JUMPDEST SWAP1 PUSH0 MSTORE PUSH1 0x20 PUSH0 KECCAK256 ADD PUSH0 SWAP1 SLOAD SWAP1 PUSH2 0x100 EXP SWAP1 DIV PUSH20 0xFFFFFFFFFFFFFFFFFFFFFFFFFFFFFFFFFFFFFFFF AND PUSH20 0xFFFFFFFFFFFFFFFFFFFFFFFFFFFFFFFFFFFFFFFF AND PUSH20 0xFFFFFFFFFFFFFFFFFFFFFFFFFFFFFFFFFFFFFFFF AND DUP2 MSTORE PUSH1 0x20 ADD SWAP1 DUP2 MSTORE PUSH1 0x20 ADD PUSH0 KECCAK256 PUSH1 0x40 MLOAD DUP1 PUSH1 0x80 ADD PUSH1 0x40 MSTORE SWAP1 DUP2 PUSH0 DUP3 ADD DUP1 SLOAD PUSH2 0x19B5 SWAP1 PUSH2 0x2688 JUMP JUMPDEST DUP1 PUSH1 0x1F ADD PUSH1 0x20 DUP1 SWAP2 DIV MUL PUSH1 0x20 ADD PUSH1 0x40 MLOAD SWAP1 DUP2 ADD PUSH1 0x40 MSTORE DUP1 SWAP3 SWAP2 SWAP1 DUP2 DUP2 MSTORE PUSH1 0x20 ADD DUP3 DUP1 SLOAD PUSH2 0x19E1 SWAP1 PUSH2 0x2688 JUMP JUMPDEST DUP1 ISZERO PUSH2 0x1A2C JUMPI DUP1 PUSH1 0x1F LT PUSH2 0x1A03 JUMPI PUSH2 0x100 DUP1 DUP4 SLOAD DIV MUL DUP4 MSTORE SWAP2 PUSH1 0x20 ADD SWAP2 PUSH2 0x1A2C JUMP JUMPDEST DUP3 ADD SWAP2 SWAP1 PUSH0 MSTORE PUSH1 0x20 PUSH0 KECCAK256 SWAP1 JUMPDEST DUP2 SLOAD DUP2 MSTORE SWAP1 PUSH1 0x1 ADD SWAP1 PUSH1 0x20 ADD DUP1 DUP4 GT PUSH2 0x1A0F JUMPI DUP3 SWAP1 SUB PUSH1 0x1F AND DUP3 ADD SWAP2 JUMPDEST POP POP POP POP POP DUP2 MSTORE PUSH1 0x20 ADD PUSH1 0x1 DUP3 ADD PUSH0 SWAP1 SLOAD SWAP1 PUSH2 0x100 EXP SWAP1 DIV PUSH20 0xFFFFFFFFFFFFFFFFFFFFFFFFFFFFFFFFFFFFFFFF AND PUSH20 0xFFFFFFFFFFFFFFFFFFFFFFFFFFFFFFFFFFFFFFFF AND PUSH20 0xFFFFFFFFFFFFFFFFFFFFFFFFFFFFFFFFFFFFFFFF AND DUP2 MSTORE PUSH1 0x20 ADD PUSH1 0x2 DUP3 ADD SLOAD DUP2 MSTORE PUSH1 0x20 ADD PUSH1 0x3 DUP3 ADD DUP1 SLOAD PUSH2 0x1AA4 SWAP1 PUSH2 0x2688 JUMP JUMPDEST DUP1 PUSH1 0x1F ADD PUSH1 0x20 DUP1 SWAP2 DIV MUL PUSH1 0x20 ADD PUSH1 0x40 MLOAD SWAP1 DUP2 ADD PUSH1 0x40 MSTORE DUP1 SWAP3 SWAP2 SWAP1 DUP2 DUP2 MSTORE PUSH1 0x20 ADD DUP3 DUP1 SLOAD PUSH2 0x1AD0 SWAP1 PUSH2 0x2688 JUMP JUMPDEST DUP1 ISZERO PUSH2 0x1B1B JUMPI DUP1 PUSH1 0x1F LT PUSH2 0x1AF2 JUMPI PUSH2 0x100 DUP1 DUP4 SLOAD DIV MUL DUP4 MSTORE SWAP2 PUSH1 0x20 ADD SWAP2 PUSH2 0x1B1B JUMP JUMPDEST DUP3 ADD SWAP2 SWAP1 PUSH0 MSTORE PUSH1 0x20 PUSH0 KECCAK256 SWAP1 JUMPDEST DUP2 SLOAD DUP2 MSTORE SWAP1 PUSH1 0x1 ADD SWAP1 PUSH1 0x20 ADD DUP1 DUP4 GT PUSH2 0x1AFE JUMPI DUP3 SWAP1 SUB PUSH1 0x1F AND DUP3 ADD SWAP2 JUMPDEST POP POP POP POP POP DUP2 MSTORE POP POP DUP3 DUP3 DUP2 MLOAD DUP2 LT PUSH2 0x1B37 JUMPI PUSH2 0x1B36 PUSH2 0x262E JUMP JUMPDEST JUMPDEST PUSH1 0x20 MUL PUSH1 0x20 ADD ADD DUP2 SWAP1 MSTORE POP DUP1 DUP1 PUSH1 0x1 ADD SWAP2 POP POP PUSH2 0x1916 JUMP JUMPDEST POP DUP1 SWAP2 POP POP SWAP1 JUMP JUMPDEST PUSH0 DUP1 SLOAD SWAP1 PUSH2 0x100 EXP SWAP1 DIV PUSH20 0xFFFFFFFFFFFFFFFFFFFFFFFFFFFFFFFFFFFFFFFF AND DUP2 JUMP JUMPDEST PUSH0 DUP1 PUSH0 SWAP1 POP PUSH1 0x4 PUSH0 PUSH2 0x1B8C SWAP2 SWAP1 PUSH2 0x1D3E JUMP JUMPDEST PUSH0 JUMPDEST PUSH1 0x3 DUP1 SLOAD SWAP1 POP DUP2 LT ISZERO PUSH2 0x1CF2 JUMPI PUSH0 PUSH1 0x3 DUP3 DUP2 SLOAD DUP2 LT PUSH2 0x1BB0 JUMPI PUSH2 0x1BAF PUSH2 0x262E JUMP JUMPDEST JUMPDEST SWAP1 PUSH0 MSTORE PUSH1 0x20 PUSH0 KECCAK256 ADD PUSH0 SWAP1 SLOAD SWAP1 PUSH2 0x100 EXP SWAP1 DIV PUSH20 0xFFFFFFFFFFFFFFFFFFFFFFFFFFFFFFFFFFFFFFFF AND SWAP1 POP PUSH0 PUSH1 0x2 PUSH0 DUP4 PUSH20 0xFFFFFFFFFFFFFFFFFFFFFFFFFFFFFFFFFFFFFFFF AND PUSH20 0xFFFFFFFFFFFFFFFFFFFFFFFFFFFFFFFFFFFFFFFF AND DUP2 MSTORE PUSH1 0x20 ADD SWAP1 DUP2 MSTORE PUSH1 0x20 ADD PUSH0 KECCAK256 PUSH1 0x2 ADD SLOAD SWAP1 POP DUP4 DUP2 GT ISZERO PUSH2 0x1C7A JUMPI DUP1 SWAP4 POP PUSH1 0x40 MLOAD DUP1 PUSH1 0x20 ADD PUSH1 0x40 MSTORE DUP1 DUP4 PUSH20 0xFFFFFFFFFFFFFFFFFFFFFFFFFFFFFFFFFFFFFFFF AND PUSH20 0xFFFFFFFFFFFFFFFFFFFFFFFFFFFFFFFFFFFFFFFF AND DUP2 MSTORE POP PUSH1 0x4 SWAP1 PUSH1 0x1 PUSH2 0x1C74 SWAP3 SWAP2 SWAP1 PUSH2 0x1D5C JUMP JUMPDEST POP PUSH2 0x1CE3 JUMP JUMPDEST DUP4 DUP2 SUB PUSH2 0x1CE2 JUMPI PUSH1 0x4 DUP3 SWAP1 DUP1 PUSH1 0x1 DUP2 SLOAD ADD DUP1 DUP3 SSTORE DUP1 SWAP2 POP POP PUSH1 0x1 SWAP1 SUB SWAP1 PUSH0 MSTORE PUSH1 0x20 PUSH0 KECCAK256 ADD PUSH0 SWAP1 SWAP2 SWAP1 SWAP2 SWAP1 SWAP2 PUSH2 0x100 EXP DUP2 SLOAD DUP2 PUSH20 0xFFFFFFFFFFFFFFFFFFFFFFFFFFFFFFFFFFFFFFFF MUL NOT AND SWAP1 DUP4 PUSH20 0xFFFFFFFFFFFFFFFFFFFFFFFFFFFFFFFFFFFFFFFF AND MUL OR SWAP1 SSTORE POP JUMPDEST JUMPDEST POP POP DUP1 DUP1 PUSH1 0x1 ADD SWAP2 POP POP PUSH2 0x1B8E JUMP JUMPDEST POP PUSH1 0x1 PUSH1 0x4 DUP1 SLOAD SWAP1 POP GT SWAP2 POP POP SWAP1 JUMP JUMPDEST PUSH1 0x40 MLOAD DUP1 PUSH1 0x80 ADD PUSH1 0x40 MSTORE DUP1 PUSH1 0x60 DUP2 MSTORE PUSH1 0x20 ADD PUSH0 PUSH20 0xFFFFFFFFFFFFFFFFFFFFFFFFFFFFFFFFFFFFFFFF AND DUP2 MSTORE PUSH1 0x20 ADD PUSH0 DUP2 MSTORE PUSH1 0x20 ADD PUSH1 0x60 DUP2 MSTORE POP SWAP1 JUMP JUMPDEST POP DUP1 SLOAD PUSH0 DUP3 SSTORE SWAP1 PUSH0 MSTORE PUSH1 0x20 PUSH0 KECCAK256 SWAP1 DUP2 ADD SWAP1 PUSH2 0x1D59 SWAP2 SWAP1 PUSH2 0x1DE3 JUMP JUMPDEST POP JUMP JUMPDEST DUP3 DUP1 SLOAD DUP3 DUP3 SSTORE SWAP1 PUSH0 MSTORE PUSH1 0x20 PUSH0 KECCAK256 SWAP1 DUP2 ADD SWAP3 DUP3 ISZERO PUSH2 0x1DD2 JUMPI SWAP2 PUSH1 0x20 MUL DUP3 ADD JUMPDEST DUP3 DUP2 GT ISZERO PUSH2 0x1DD1 JUMPI DUP3 MLOAD DUP3 PUSH0 PUSH2 0x100 EXP DUP2 SLOAD DUP2 PUSH20 0xFFFFFFFFFFFFFFFFFFFFFFFFFFFFFFFFFFFFFFFF MUL NOT AND SWAP1 DUP4 PUSH20 0xFFFFFFFFFFFFFFFFFFFFFFFFFFFFFFFFFFFFFFFF AND MUL OR SWAP1 SSTORE POP SWAP2 PUSH1 0x20 ADD SWAP2 SWAP1 PUSH1 0x1 ADD SWAP1 PUSH2 0x1D7A JUMP JUMPDEST JUMPDEST POP SWAP1 POP PUSH2 0x1DDF SWAP2 SWAP1 PUSH2 0x1DE3 JUMP JUMPDEST POP SWAP1 JUMP JUMPDEST JUMPDEST DUP1 DUP3 GT ISZERO PUSH2 0x1DFA JUMPI PUSH0 DUP2 PUSH0 SWAP1 SSTORE POP PUSH1 0x1 ADD PUSH2 0x1DE4 JUMP JUMPDEST POP SWAP1 JUMP JUMPDEST PUSH0 DUP2 MLOAD SWAP1 POP SWAP2 SWAP1 POP JUMP JUMPDEST PUSH0 DUP3 DUP3 MSTORE PUSH1 0x20 DUP3 ADD SWAP1 POP SWAP3 SWAP2 POP POP JUMP JUMPDEST PUSH0 DUP2 SWAP1 POP PUSH1 0x20 DUP3 ADD SWAP1 POP SWAP2 SWAP1 POP JUMP JUMPDEST PUSH0 DUP2 MLOAD SWAP1 POP SWAP2 SWAP1 POP JUMP JUMPDEST PUSH0 DUP3 DUP3 MSTORE PUSH1 0x20 DUP3 ADD SWAP1 POP SWAP3 SWAP2 POP POP JUMP JUMPDEST DUP3 DUP2 DUP4 MCOPY PUSH0 DUP4 DUP4 ADD MSTORE POP POP POP JUMP JUMPDEST PUSH0 PUSH1 0x1F NOT PUSH1 0x1F DUP4 ADD AND SWAP1 POP SWAP2 SWAP1 POP JUMP JUMPDEST PUSH0 PUSH2 0x1E69 DUP3 PUSH2 0x1E27 JUMP JUMPDEST PUSH2 0x1E73 DUP2 DUP6 PUSH2 0x1E31 JUMP JUMPDEST SWAP4 POP PUSH2 0x1E83 DUP2 DUP6 PUSH1 0x20 DUP7 ADD PUSH2 0x1E41 JUMP JUMPDEST PUSH2 0x1E8C DUP2 PUSH2 0x1E4F JUMP JUMPDEST DUP5 ADD SWAP2 POP POP SWAP3 SWAP2 POP POP JUMP JUMPDEST PUSH0 PUSH20 0xFFFFFFFFFFFFFFFFFFFFFFFFFFFFFFFFFFFFFFFF DUP3 AND SWAP1 POP SWAP2 SWAP1 POP JUMP JUMPDEST PUSH0 PUSH2 0x1EC0 DUP3 PUSH2 0x1E97 JUMP JUMPDEST SWAP1 POP SWAP2 SWAP1 POP JUMP JUMPDEST PUSH2 0x1ED0 DUP2 PUSH2 0x1EB6 JUMP JUMPDEST DUP3 MSTORE POP POP JUMP JUMPDEST PUSH0 DUP2 SWAP1 POP SWAP2 SWAP1 POP JUMP JUMPDEST PUSH2 0x1EE8 DUP2 PUSH2 0x1ED6 JUMP JUMPDEST DUP3 MSTORE POP POP JUMP JUMPDEST PUSH0 PUSH1 0x80 DUP4 ADD PUSH0 DUP4 ADD MLOAD DUP5 DUP3 SUB PUSH0 DUP7 ADD MSTORE PUSH2 0x1F08 DUP3 DUP3 PUSH2 0x1E5F JUMP JUMPDEST SWAP2 POP POP PUSH1 0x20 DUP4 ADD MLOAD PUSH2 0x1F1D PUSH1 0x20 DUP7 ADD DUP3 PUSH2 0x1EC7 JUMP JUMPDEST POP PUSH1 0x40 DUP4 ADD MLOAD PUSH2 0x1F30 PUSH1 0x40 DUP7 ADD DUP3 PUSH2 0x1EDF JUMP JUMPDEST POP PUSH1 0x60 DUP4 ADD MLOAD DUP5 DUP3 SUB PUSH1 0x60 DUP7 ADD MSTORE PUSH2 0x1F48 DUP3 DUP3 PUSH2 0x1E5F JUMP JUMPDEST SWAP2 POP POP DUP1 SWAP2 POP POP SWAP3 SWAP2 POP POP JUMP JUMPDEST PUSH0 PUSH2 0x1F60 DUP4 DUP4 PUSH2 0x1EEE JUMP JUMPDEST SWAP1 POP SWAP3 SWAP2 POP POP JUMP JUMPDEST PUSH0 PUSH1 0x20 DUP3 ADD SWAP1 POP SWAP2 SWAP1 POP JUMP JUMPDEST PUSH0 PUSH2 0x1F7E DUP3 PUSH2 0x1DFE JUMP JUMPDEST PUSH2 0x1F88 DUP2 DUP6 PUSH2 0x1E08 JUMP JUMPDEST SWAP4 POP DUP4 PUSH1 0x20 DUP3 MUL DUP6 ADD PUSH2 0x1F9A DUP6 PUSH2 0x1E18 JUMP JUMPDEST DUP1 PUSH0 JUMPDEST DUP6 DUP2 LT ISZERO PUSH2 0x1FD5 JUMPI DUP5 DUP5 SUB DUP10 MSTORE DUP2 MLOAD PUSH2 0x1FB6 DUP6 DUP3 PUSH2 0x1F55 JUMP JUMPDEST SWAP5 POP PUSH2 0x1FC1 DUP4 PUSH2 0x1F68 JUMP JUMPDEST SWAP3 POP PUSH1 0x20 DUP11 ADD SWAP10 POP POP PUSH1 0x1 DUP2 ADD SWAP1 POP PUSH2 0x1F9D JUMP JUMPDEST POP DUP3 SWAP8 POP DUP8 SWAP6 POP POP POP POP POP POP SWAP3 SWAP2 POP POP JUMP JUMPDEST PUSH0 PUSH1 0x20 DUP3 ADD SWAP1 POP DUP2 DUP2 SUB PUSH0 DUP4 ADD MSTORE PUSH2 0x1FFF DUP2 DUP5 PUSH2 0x1F74 JUMP JUMPDEST SWAP1 POP SWAP3 SWAP2 POP POP JUMP JUMPDEST PUSH0 PUSH1 0x40 MLOAD SWAP1 POP SWAP1 JUMP JUMPDEST PUSH0 DUP1 REVERT JUMPDEST PUSH0 DUP1 REVERT JUMPDEST PUSH2 0x2021 DUP2 PUSH2 0x1EB6 JUMP JUMPDEST DUP2 EQ PUSH2 0x202B JUMPI PUSH0 DUP1 REVERT JUMPDEST POP JUMP JUMPDEST PUSH0 DUP2 CALLDATALOAD SWAP1 POP PUSH2 0x203C DUP2 PUSH2 0x2018 JUMP JUMPDEST SWAP3 SWAP2 POP POP JUMP JUMPDEST PUSH0 DUP1 REVERT JUMPDEST PUSH0 DUP1 REVERT JUMPDEST PUSH32 0x4E487B7100000000000000000000000000000000000000000000000000000000 PUSH0 MSTORE PUSH1 0x41 PUSH1 0x4 MSTORE PUSH1 0x24 PUSH0 REVERT JUMPDEST PUSH2 0x2080 DUP3 PUSH2 0x1E4F JUMP JUMPDEST DUP2 ADD DUP2 DUP2 LT PUSH8 0xFFFFFFFFFFFFFFFF DUP3 GT OR ISZERO PUSH2 0x209F JUMPI PUSH2 0x209E PUSH2 0x204A JUMP JUMPDEST JUMPDEST DUP1 PUSH1 0x40 MSTORE POP POP POP JUMP JUMPDEST PUSH0 PUSH2 0x20B1 PUSH2 0x2007 JUMP JUMPDEST SWAP1 POP PUSH2 0x20BD DUP3 DUP3 PUSH2 0x2077 JUMP JUMPDEST SWAP2 SWAP1 POP JUMP JUMPDEST PUSH0 PUSH8 0xFFFFFFFFFFFFFFFF DUP3 GT ISZERO PUSH2 0x20DC JUMPI PUSH2 0x20DB PUSH2 0x204A JUMP JUMPDEST JUMPDEST PUSH2 0x20E5 DUP3 PUSH2 0x1E4F JUMP JUMPDEST SWAP1 POP PUSH1 0x20 DUP2 ADD SWAP1 POP SWAP2 SWAP1 POP JUMP JUMPDEST DUP3 DUP2 DUP4 CALLDATACOPY PUSH0 DUP4 DUP4 ADD MSTORE POP POP POP JUMP JUMPDEST PUSH0 PUSH2 0x2112 PUSH2 0x210D DUP5 PUSH2 0x20C2 JUMP JUMPDEST PUSH2 0x20A8 JUMP JUMPDEST SWAP1 POP DUP3 DUP2 MSTORE PUSH1 0x20 DUP2 ADD DUP5 DUP5 DUP5 ADD GT ISZERO PUSH2 0x212E JUMPI PUSH2 0x212D PUSH2 0x2046 JUMP JUMPDEST JUMPDEST PUSH2 0x2139 DUP5 DUP3 DUP6 PUSH2 0x20F2 JUMP JUMPDEST POP SWAP4 SWAP3 POP POP POP JUMP JUMPDEST PUSH0 DUP3 PUSH1 0x1F DUP4 ADD SLT PUSH2 0x2155 JUMPI PUSH2 0x2154 PUSH2 0x2042 JUMP JUMPDEST JUMPDEST DUP2 CALLDATALOAD PUSH2 0x2165 DUP5 DUP3 PUSH1 0x20 DUP7 ADD PUSH2 0x2100 JUMP JUMPDEST SWAP2 POP POP SWAP3 SWAP2 POP POP JUMP JUMPDEST PUSH0 DUP1 PUSH1 0x40 DUP4 DUP6 SUB SLT ISZERO PUSH2 0x2184 JUMPI PUSH2 0x2183 PUSH2 0x2010 JUMP JUMPDEST JUMPDEST PUSH0 PUSH2 0x2191 DUP6 DUP3 DUP7 ADD PUSH2 0x202E JUMP JUMPDEST SWAP3 POP POP PUSH1 0x20 DUP4 ADD CALLDATALOAD PUSH8 0xFFFFFFFFFFFFFFFF DUP2 GT ISZERO PUSH2 0x21B2 JUMPI PUSH2 0x21B1 PUSH2 0x2014 JUMP JUMPDEST JUMPDEST PUSH2 0x21BE DUP6 DUP3 DUP7 ADD PUSH2 0x2141 JUMP JUMPDEST SWAP2 POP POP SWAP3 POP SWAP3 SWAP1 POP JUMP JUMPDEST PUSH0 DUP2 ISZERO ISZERO SWAP1 POP SWAP2 SWAP1 POP JUMP JUMPDEST PUSH2 0x21DC DUP2 PUSH2 0x21C8 JUMP JUMPDEST DUP3 MSTORE POP POP JUMP JUMPDEST PUSH0 PUSH1 0x20 DUP3 ADD SWAP1 POP PUSH2 0x21F5 PUSH0 DUP4 ADD DUP5 PUSH2 0x21D3 JUMP JUMPDEST SWAP3 SWAP2 POP POP JUMP JUMPDEST PUSH2 0x2204 DUP2 PUSH2 0x1ED6 JUMP JUMPDEST DUP2 EQ PUSH2 0x220E JUMPI PUSH0 DUP1 REVERT JUMPDEST POP JUMP JUMPDEST PUSH0 DUP2 CALLDATALOAD SWAP1 POP PUSH2 0x221F DUP2 PUSH2 0x21FB JUMP JUMPDEST SWAP3 SWAP2 POP POP JUMP JUMPDEST PUSH0 DUP1 PUSH0 DUP1 PUSH1 0x80 DUP6 DUP8 SUB SLT ISZERO PUSH2 0x223D JUMPI PUSH2 0x223C PUSH2 0x2010 JUMP JUMPDEST JUMPDEST PUSH0 PUSH2 0x224A DUP8 DUP3 DUP9 ADD PUSH2 0x202E JUMP JUMPDEST SWAP5 POP POP PUSH1 0x20 DUP6 ADD CALLDATALOAD PUSH8 0xFFFFFFFFFFFFFFFF DUP2 GT ISZERO PUSH2 0x226B JUMPI PUSH2 0x226A PUSH2 0x2014 JUMP JUMPDEST JUMPDEST PUSH2 0x2277 DUP8 DUP3 DUP9 ADD PUSH2 0x2141 JUMP JUMPDEST SWAP4 POP POP PUSH1 0x40 DUP6 ADD CALLDATALOAD PUSH8 0xFFFFFFFFFFFFFFFF DUP2 GT ISZERO PUSH2 0x2298 JUMPI PUSH2 0x2297 PUSH2 0x2014 JUMP JUMPDEST JUMPDEST PUSH2 0x22A4 DUP8 DUP3 DUP9 ADD PUSH2 0x2141 JUMP JUMPDEST SWAP3 POP POP PUSH1 0x60 PUSH2 0x22B5 DUP8 DUP3 DUP9 ADD PUSH2 0x2211 JUMP JUMPDEST SWAP2 POP POP SWAP3 SWAP6 SWAP2 SWAP5 POP SWAP3 POP JUMP JUMPDEST PUSH2 0x22CA DUP2 PUSH2 0x1ED6 JUMP JUMPDEST DUP3 MSTORE POP POP JUMP JUMPDEST PUSH0 PUSH1 0x20 DUP3 ADD SWAP1 POP PUSH2 0x22E3 PUSH0 DUP4 ADD DUP5 PUSH2 0x22C1 JUMP JUMPDEST SWAP3 SWAP2 POP POP JUMP JUMPDEST PUSH0 DUP1 PUSH0 PUSH1 0x60 DUP5 DUP7 SUB SLT ISZERO PUSH2 0x2300 JUMPI PUSH2 0x22FF PUSH2 0x2010 JUMP JUMPDEST JUMPDEST PUSH0 PUSH2 0x230D DUP7 DUP3 DUP8 ADD PUSH2 0x202E JUMP JUMPDEST SWAP4 POP POP PUSH1 0x20 DUP5 ADD CALLDATALOAD PUSH8 0xFFFFFFFFFFFFFFFF DUP2 GT ISZERO PUSH2 0x232E JUMPI PUSH2 0x232D PUSH2 0x2014 JUMP JUMPDEST JUMPDEST PUSH2 0x233A DUP7 DUP3 DUP8 ADD PUSH2 0x2141 JUMP JUMPDEST SWAP3 POP POP PUSH1 0x40 DUP5 ADD CALLDATALOAD PUSH8 0xFFFFFFFFFFFFFFFF DUP2 GT ISZERO PUSH2 0x235B JUMPI PUSH2 0x235A PUSH2 0x2014 JUMP JUMPDEST JUMPDEST PUSH2 0x2367 DUP7 DUP3 DUP8 ADD PUSH2 0x2141 JUMP JUMPDEST SWAP2 POP POP SWAP3 POP SWAP3 POP SWAP3 JUMP JUMPDEST PUSH0 PUSH1 0x20 DUP3 DUP5 SUB SLT ISZERO PUSH2 0x2386 JUMPI PUSH2 0x2385 PUSH2 0x2010 JUMP JUMPDEST JUMPDEST PUSH0 PUSH2 0x2393 DUP5 DUP3 DUP6 ADD PUSH2 0x202E JUMP JUMPDEST SWAP2 POP POP SWAP3 SWAP2 POP POP JUMP JUMPDEST PUSH0 DUP3 DUP3 MSTORE PUSH1 0x20 DUP3 ADD SWAP1 POP SWAP3 SWAP2 POP POP JUMP JUMPDEST PUSH0 PUSH2 0x23B6 DUP3 PUSH2 0x1E27 JUMP JUMPDEST PUSH2 0x23C0 DUP2 DUP6 PUSH2 0x239C JUMP JUMPDEST SWAP4 POP PUSH2 0x23D0 DUP2 DUP6 PUSH1 0x20 DUP7 ADD PUSH2 0x1E41 JUMP JUMPDEST PUSH2 0x23D9 DUP2 PUSH2 0x1E4F JUMP JUMPDEST DUP5 ADD SWAP2 POP POP SWAP3 SWAP2 POP POP JUMP JUMPDEST PUSH2 0x23ED DUP2 PUSH2 0x1EB6 JUMP JUMPDEST DUP3 MSTORE POP POP JUMP JUMPDEST PUSH0 PUSH1 0x80 DUP3 ADD SWAP1 POP DUP2 DUP2 SUB PUSH0 DUP4 ADD MSTORE PUSH2 0x240B DUP2 DUP8 PUSH2 0x23AC JUMP JUMPDEST SWAP1 POP PUSH2 0x241A PUSH1 0x20 DUP4 ADD DUP7 PUSH2 0x23E4 JUMP JUMPDEST PUSH2 0x2427 PUSH1 0x40 DUP4 ADD DUP6 PUSH2 0x22C1 JUMP JUMPDEST DUP2 DUP2 SUB PUSH1 0x60 DUP4 ADD MSTORE PUSH2 0x2439 DUP2 DUP5 PUSH2 0x23AC JUMP JUMPDEST SWAP1 POP SWAP6 SWAP5 POP POP POP POP POP JUMP JUMPDEST PUSH0 PUSH1 0xE0 DUP3 ADD SWAP1 POP PUSH2 0x2457 PUSH0 DUP4 ADD DUP11 PUSH2 0x21D3 JUMP JUMPDEST PUSH2 0x2464 PUSH1 0x20 DUP4 ADD DUP10 PUSH2 0x21D3 JUMP JUMPDEST PUSH2 0x2471 PUSH1 0x40 DUP4 ADD DUP9 PUSH2 0x23E4 JUMP JUMPDEST DUP2 DUP2 SUB PUSH1 0x60 DUP4 ADD MSTORE PUSH2 0x2483 DUP2 DUP8 PUSH2 0x23AC JUMP JUMPDEST SWAP1 POP DUP2 DUP2 SUB PUSH1 0x80 DUP4 ADD MSTORE PUSH2 0x2497 DUP2 DUP7 PUSH2 0x23AC JUMP JUMPDEST SWAP1 POP PUSH2 0x24A6 PUSH1 0xA0 DUP4 ADD DUP6 PUSH2 0x22C1 JUMP JUMPDEST PUSH2 0x24B3 PUSH1 0xC0 DUP4 ADD DUP5 PUSH2 0x23E4 JUMP JUMPDEST SWAP9 SWAP8 POP POP POP POP POP POP POP POP JUMP JUMPDEST PUSH0 PUSH1 0x20 DUP3 ADD SWAP1 POP PUSH2 0x24D2 PUSH0 DUP4 ADD DUP5 PUSH2 0x23E4 JUMP JUMPDEST SWAP3 SWAP2 POP POP JUMP JUMPDEST PUSH0 PUSH1 0x20 DUP3 DUP5 SUB SLT ISZERO PUSH2 0x24ED JUMPI PUSH2 0x24EC PUSH2 0x2010 JUMP JUMPDEST JUMPDEST PUSH0 PUSH2 0x24FA DUP5 DUP3 DUP6 ADD PUSH2 0x2211 JUMP JUMPDEST SWAP2 POP POP SWAP3 SWAP2 POP POP JUMP JUMPDEST PUSH0 PUSH1 0x60 DUP3 ADD SWAP1 POP PUSH2 0x2516 PUSH0 DUP4 ADD DUP7 PUSH2 0x23E4 JUMP JUMPDEST PUSH2 0x2523 PUSH1 0x20 DUP4 ADD DUP6 PUSH2 0x22C1 JUMP JUMPDEST PUSH2 0x2530 PUSH1 0x40 DUP4 ADD DUP5 PUSH2 0x21D3 JUMP JUMPDEST SWAP5 SWAP4 POP POP POP POP JUMP JUMPDEST PUSH32 0x4F6E6C792061646D696E2063616E20706572666F726D20746869732061637469 PUSH0 DUP3 ADD MSTORE PUSH32 0x6F6E000000000000000000000000000000000000000000000000000000000000 PUSH1 0x20 DUP3 ADD MSTORE POP JUMP JUMPDEST PUSH0 PUSH2 0x2592 PUSH1 0x22 DUP4 PUSH2 0x239C JUMP JUMPDEST SWAP2 POP PUSH2 0x259D DUP3 PUSH2 0x2538 JUMP JUMPDEST PUSH1 0x40 DUP3 ADD SWAP1 POP SWAP2 SWAP1 POP JUMP JUMPDEST PUSH0 PUSH1 0x20 DUP3 ADD SWAP1 POP DUP2 DUP2 SUB PUSH0 DUP4 ADD MSTORE PUSH2 0x25BF DUP2 PUSH2 0x2586 JUMP JUMPDEST SWAP1 POP SWAP2 SWAP1 POP JUMP JUMPDEST PUSH32 0x4174206C656173742074776F2063616E64696461746573207265717569726564 PUSH0 DUP3 ADD MSTORE POP JUMP JUMPDEST PUSH0 PUSH2 0x25FA PUSH1 0x20 DUP4 PUSH2 0x239C JUMP JUMPDEST SWAP2 POP PUSH2 0x2605 DUP3 PUSH2 0x25C6 JUMP JUMPDEST PUSH1 0x20 DUP3 ADD SWAP1 POP SWAP2 SWAP1 POP JUMP JUMPDEST PUSH0 PUSH1 0x20 DUP3 ADD SWAP1 POP DUP2 DUP2 SUB PUSH0 DUP4 ADD MSTORE PUSH2 0x2627 DUP2 PUSH2 0x25EE JUMP JUMPDEST SWAP1 POP SWAP2 SWAP1 POP JUMP JUMPDEST PUSH32 0x4E487B7100000000000000000000000000000000000000000000000000000000 PUSH0 MSTORE PUSH1 0x32 PUSH1 0x4 MSTORE PUSH1 0x24 PUSH0 REVERT JUMPDEST PUSH32 0x4E487B7100000000000000000000000000000000000000000000000000000000 PUSH0 MSTORE PUSH1 0x22 PUSH1 0x4 MSTORE PUSH1 0x24 PUSH0 REVERT JUMPDEST PUSH0 PUSH1 0x2 DUP3 DIV SWAP1 POP PUSH1 0x1 DUP3 AND DUP1 PUSH2 0x269F JUMPI PUSH1 0x7F DUP3 AND SWAP2 POP JUMPDEST PUSH1 0x20 DUP3 LT DUP2 SUB PUSH2 0x26B2 JUMPI PUSH2 0x26B1 PUSH2 0x265B JUMP JUMPDEST JUMPDEST POP SWAP2 SWAP1 POP JUMP JUMPDEST PUSH0 DUP2 SWAP1 POP SWAP3 SWAP2 POP POP JUMP JUMPDEST PUSH0 PUSH2 0x26CC DUP3 PUSH2 0x1E27 JUMP JUMPDEST PUSH2 0x26D6 DUP2 DUP6 PUSH2 0x26B8 JUMP JUMPDEST SWAP4 POP PUSH2 0x26E6 DUP2 DUP6 PUSH1 0x20 DUP7 ADD PUSH2 0x1E41 JUMP JUMPDEST DUP1 DUP5 ADD SWAP2 POP POP SWAP3 SWAP2 POP POP JUMP JUMPDEST PUSH0 PUSH2 0x26FD DUP3 DUP5 PUSH2 0x26C2 JUMP JUMPDEST SWAP2 POP DUP2 SWAP1 POP SWAP3 SWAP2 POP POP JUMP JUMPDEST PUSH0 DUP2 SWAP1 POP DUP2 PUSH0 MSTORE PUSH1 0x20 PUSH0 KECCAK256 SWAP1 POP SWAP2 SWAP1 POP JUMP JUMPDEST PUSH0 DUP2 SLOAD PUSH2 0x2726 DUP2 PUSH2 0x2688 JUMP JUMPDEST PUSH2 0x2730 DUP2 DUP7 PUSH2 0x26B8 JUMP JUMPDEST SWAP5 POP PUSH1 0x1 DUP3 AND PUSH0 DUP2 EQ PUSH2 0x274A JUMPI PUSH1 0x1 DUP2 EQ PUSH2 0x275F JUMPI PUSH2 0x2791 JUMP JUMPDEST PUSH1 0xFF NOT DUP4 AND DUP7 MSTORE DUP2 ISZERO ISZERO DUP3 MUL DUP7 ADD SWAP4 POP PUSH2 0x2791 JUMP JUMPDEST PUSH2 0x2768 DUP6 PUSH2 0x2708 JUMP JUMPDEST PUSH0 JUMPDEST DUP4 DUP2 LT ISZERO PUSH2 0x2789 JUMPI DUP2 SLOAD DUP2 DUP10 ADD MSTORE PUSH1 0x1 DUP3 ADD SWAP2 POP PUSH1 0x20 DUP2 ADD SWAP1 POP PUSH2 0x276A JUMP JUMPDEST DUP4 DUP9 ADD SWAP6 POP POP POP JUMPDEST POP POP POP SWAP3 SWAP2 POP POP JUMP JUMPDEST PUSH0 PUSH2 0x27A5 DUP3 DUP5 PUSH2 0x271A JUMP JUMPDEST SWAP2 POP DUP2 SWAP1 POP SWAP3 SWAP2 POP POP JUMP JUMPDEST PUSH32 0x566F74657220697320616C726561647920726567697374657265640000000000 PUSH0 DUP3 ADD MSTORE POP JUMP JUMPDEST PUSH0 PUSH2 0x27E4 PUSH1 0x1B DUP4 PUSH2 0x239C JUMP JUMPDEST SWAP2 POP PUSH2 0x27EF DUP3 PUSH2 0x27B0 JUMP JUMPDEST PUSH1 0x20 DUP3 ADD SWAP1 POP SWAP2 SWAP1 POP JUMP JUMPDEST PUSH0 PUSH1 0x20 DUP3 ADD SWAP1 POP DUP2 DUP2 SUB PUSH0 DUP4 ADD MSTORE PUSH2 0x2811 DUP2 PUSH2 0x27D8 JUMP JUMPDEST SWAP1 POP SWAP2 SWAP1 POP JUMP JUMPDEST PUSH0 PUSH1 0x20 PUSH1 0x1F DUP4 ADD DIV SWAP1 POP SWAP2 SWAP1 POP JUMP JUMPDEST PUSH0 DUP3 DUP3 SHL SWAP1 POP SWAP3 SWAP2 POP POP JUMP JUMPDEST PUSH0 PUSH1 0x8 DUP4 MUL PUSH2 0x2862 PUSH32 0xFFFFFFFFFFFFFFFFFFFFFFFFFFFFFFFFFFFFFFFFFFFFFFFFFFFFFFFFFFFFFFFF DUP3 PUSH2 0x2827 JUMP JUMPDEST PUSH2 0x286C DUP7 DUP4 PUSH2 0x2827 JUMP JUMPDEST SWAP6 POP DUP1 NOT DUP5 AND SWAP4 POP DUP1 DUP7 AND DUP5 OR SWAP3 POP POP POP SWAP4 SWAP3 POP POP POP JUMP JUMPDEST PUSH0 DUP2 SWAP1 POP SWAP2 SWAP1 POP JUMP JUMPDEST PUSH0 PUSH2 0x28A7 PUSH2 0x28A2 PUSH2 0x289D DUP5 PUSH2 0x1ED6 JUMP JUMPDEST PUSH2 0x2884 JUMP JUMPDEST PUSH2 0x1ED6 JUMP JUMPDEST SWAP1 POP SWAP2 SWAP1 POP JUMP JUMPDEST PUSH0 DUP2 SWAP1 POP SWAP2 SWAP1 POP JUMP JUMPDEST PUSH2 0x28C0 DUP4 PUSH2 0x288D JUMP JUMPDEST PUSH2 0x28D4 PUSH2 0x28CC DUP3 PUSH2 0x28AE JUMP JUMPDEST DUP5 DUP5 SLOAD PUSH2 0x2833 JUMP JUMPDEST DUP3 SSTORE POP POP POP POP JUMP JUMPDEST PUSH0 SWAP1 JUMP JUMPDEST PUSH2 0x28E8 PUSH2 0x28DC JUMP JUMPDEST PUSH2 0x28F3 DUP2 DUP5 DUP5 PUSH2 0x28B7 JUMP JUMPDEST POP POP POP JUMP JUMPDEST JUMPDEST DUP2 DUP2 LT ISZERO PUSH2 0x2916 JUMPI PUSH2 0x290B PUSH0 DUP3 PUSH2 0x28E0 JUMP JUMPDEST PUSH1 0x1 DUP2 ADD SWAP1 POP PUSH2 0x28F9 JUMP JUMPDEST POP POP JUMP JUMPDEST PUSH1 0x1F DUP3 GT ISZERO PUSH2 0x295B JUMPI PUSH2 0x292C DUP2 PUSH2 0x2708 JUMP JUMPDEST PUSH2 0x2935 DUP5 PUSH2 0x2818 JUMP JUMPDEST DUP2 ADD PUSH1 0x20 DUP6 LT ISZERO PUSH2 0x2944 JUMPI DUP2 SWAP1 POP JUMPDEST PUSH2 0x2958 PUSH2 0x2950 DUP6 PUSH2 0x2818 JUMP JUMPDEST DUP4 ADD DUP3 PUSH2 0x28F8 JUMP JUMPDEST POP POP JUMPDEST POP POP POP JUMP JUMPDEST PUSH0 DUP3 DUP3 SHR SWAP1 POP SWAP3 SWAP2 POP POP JUMP JUMPDEST PUSH0 PUSH2 0x297B PUSH0 NOT DUP5 PUSH1 0x8 MUL PUSH2 0x2960 JUMP JUMPDEST NOT DUP1 DUP4 AND SWAP2 POP POP SWAP3 SWAP2 POP POP JUMP JUMPDEST PUSH0 PUSH2 0x2993 DUP4 DUP4 PUSH2 0x296C JUMP JUMPDEST SWAP2 POP DUP3 PUSH1 0x2 MUL DUP3 OR SWAP1 POP SWAP3 SWAP2 POP POP JUMP JUMPDEST PUSH2 0x29AC DUP3 PUSH2 0x1E27 JUMP JUMPDEST PUSH8 0xFFFFFFFFFFFFFFFF DUP2 GT ISZERO PUSH2 0x29C5 JUMPI PUSH2 0x29C4 PUSH2 0x204A JUMP JUMPDEST JUMPDEST PUSH2 0x29CF DUP3 SLOAD PUSH2 0x2688 JUMP JUMPDEST PUSH2 0x29DA DUP3 DUP3 DUP6 PUSH2 0x291A JUMP JUMPDEST PUSH0 PUSH1 0x20 SWAP1 POP PUSH1 0x1F DUP4 GT PUSH1 0x1 DUP2 EQ PUSH2 0x2A0B JUMPI PUSH0 DUP5 ISZERO PUSH2 0x29F9 JUMPI DUP3 DUP8 ADD MLOAD SWAP1 POP JUMPDEST PUSH2 0x2A03 DUP6 DUP3 PUSH2 0x2988 JUMP JUMPDEST DUP7 SSTORE POP PUSH2 0x2A6A JUMP JUMPDEST PUSH1 0x1F NOT DUP5 AND PUSH2 0x2A19 DUP7 PUSH2 0x2708 JUMP JUMPDEST PUSH0 JUMPDEST DUP3 DUP2 LT ISZERO PUSH2 0x2A40 JUMPI DUP5 DUP10 ADD MLOAD DUP3 SSTORE PUSH1 0x1 DUP3 ADD SWAP2 POP PUSH1 0x20 DUP6 ADD SWAP5 POP PUSH1 0x20 DUP2 ADD SWAP1 POP PUSH2 0x2A1B JUMP JUMPDEST DUP7 DUP4 LT ISZERO PUSH2 0x2A5D JUMPI DUP5 DUP10 ADD MLOAD PUSH2 0x2A59 PUSH1 0x1F DUP10 AND DUP3 PUSH2 0x296C JUMP JUMPDEST DUP4 SSTORE POP JUMPDEST PUSH1 0x1 PUSH1 0x2 DUP9 MUL ADD DUP9 SSTORE POP POP POP JUMPDEST POP POP POP POP POP POP JUMP JUMPDEST PUSH0 PUSH1 0x60 DUP3 ADD SWAP1 POP DUP2 DUP2 SUB PUSH0 DUP4 ADD MSTORE PUSH2 0x2A8A DUP2 DUP7 PUSH2 0x23AC JUMP JUMPDEST SWAP1 POP DUP2 DUP2 SUB PUSH1 0x20 DUP4 ADD MSTORE PUSH2 0x2A9E DUP2 DUP6 PUSH2 0x23AC JUMP JUMPDEST SWAP1 POP PUSH2 0x2AAD PUSH1 0x40 DUP4 ADD DUP5 PUSH2 0x22C1 JUMP JUMPDEST SWAP5 SWAP4 POP POP POP POP JUMP JUMPDEST PUSH32 0x43616E64696461746520697320616C7265616479207265676973746572656400 PUSH0 DUP3 ADD MSTORE POP JUMP JUMPDEST PUSH0 PUSH2 0x2AE9 PUSH1 0x1F DUP4 PUSH2 0x239C JUMP JUMPDEST SWAP2 POP PUSH2 0x2AF4 DUP3 PUSH2 0x2AB5 JUMP JUMPDEST PUSH1 0x20 DUP3 ADD SWAP1 POP SWAP2 SWAP1 POP JUMP JUMPDEST PUSH0 PUSH1 0x20 DUP3 ADD SWAP1 POP DUP2 DUP2 SUB PUSH0 DUP4 ADD MSTORE PUSH2 0x2B16 DUP2 PUSH2 0x2ADD JUMP JUMPDEST SWAP1 POP SWAP2 SWAP1 POP JUMP JUMPDEST PUSH0 PUSH1 0x40 DUP3 ADD SWAP1 POP DUP2 DUP2 SUB PUSH0 DUP4 ADD MSTORE PUSH2 0x2B35 DUP2 DUP6 PUSH2 0x23AC JUMP JUMPDEST SWAP1 POP DUP2 DUP2 SUB PUSH1 0x20 DUP4 ADD MSTORE PUSH2 0x2B49 DUP2 DUP5 PUSH2 0x23AC JUMP JUMPDEST SWAP1 POP SWAP4 SWAP3 POP POP POP JUMP JUMPDEST PUSH32 0x566F74696E67206973206E6F7420616374697665000000000000000000000000 PUSH0 DUP3 ADD MSTORE POP JUMP JUMPDEST PUSH0 PUSH2 0x2B86 PUSH1 0x14 DUP4 PUSH2 0x239C JUMP JUMPDEST SWAP2 POP PUSH2 0x2B91 DUP3 PUSH2 0x2B52 JUMP JUMPDEST PUSH1 0x20 DUP3 ADD SWAP1 POP SWAP2 SWAP1 POP JUMP JUMPDEST PUSH0 PUSH1 0x20 DUP3 ADD SWAP1 POP DUP2 DUP2 SUB PUSH0 DUP4 ADD MSTORE PUSH2 0x2BB3 DUP2 PUSH2 0x2B7A JUMP JUMPDEST SWAP1 POP SWAP2 SWAP1 POP JUMP JUMPDEST PUSH32 0x4F6E6C79207265676973746572656420766F746572732063616E20766F746500 PUSH0 DUP3 ADD MSTORE POP JUMP JUMPDEST PUSH0 PUSH2 0x2BEE PUSH1 0x1F DUP4 PUSH2 0x239C JUMP JUMPDEST SWAP2 POP PUSH2 0x2BF9 DUP3 PUSH2 0x2BBA JUMP JUMPDEST PUSH1 0x20 DUP3 ADD SWAP1 POP SWAP2 SWAP1 POP JUMP JUMPDEST PUSH0 PUSH1 0x20 DUP3 ADD SWAP1 POP DUP2 DUP2 SUB PUSH0 DUP4 ADD MSTORE PUSH2 0x2C1B DUP2 PUSH2 0x2BE2 JUMP JUMPDEST SWAP1 POP SWAP2 SWAP1 POP JUMP JUMPDEST PUSH32 0x566F7465722068617320616C726561647920766F746564000000000000000000 PUSH0 DUP3 ADD MSTORE POP JUMP JUMPDEST PUSH0 PUSH2 0x2C56 PUSH1 0x17 DUP4 PUSH2 0x239C JUMP JUMPDEST SWAP2 POP PUSH2 0x2C61 DUP3 PUSH2 0x2C22 JUMP JUMPDEST PUSH1 0x20 DUP3 ADD SWAP1 POP SWAP2 SWAP1 POP JUMP JUMPDEST PUSH0 PUSH1 0x20 DUP3 ADD SWAP1 POP DUP2 DUP2 SUB PUSH0 DUP4 ADD MSTORE PUSH2 0x2C83 DUP2 PUSH2 0x2C4A JUMP JUMPDEST SWAP1 POP SWAP2 SWAP1 POP JUMP JUMPDEST PUSH32 0x43616E64696461746520646F6573206E6F742065786973740000000000000000 PUSH0 DUP3 ADD MSTORE POP JUMP JUMPDEST PUSH0 PUSH2 0x2CBE PUSH1 0x18 DUP4 PUSH2 0x239C JUMP JUMPDEST SWAP2 POP PUSH2 0x2CC9 DUP3 PUSH2 0x2C8A JUMP JUMPDEST PUSH1 0x20 DUP3 ADD SWAP1 POP SWAP2 SWAP1 POP JUMP JUMPDEST PUSH0 PUSH1 0x20 DUP3 ADD SWAP1 POP DUP2 DUP2 SUB PUSH0 DUP4 ADD MSTORE PUSH2 0x2CEB DUP2 PUSH2 0x2CB2 JUMP JUMPDEST SWAP1 POP SWAP2 SWAP1 POP JUMP JUMPDEST PUSH32 0x4E487B7100000000000000000000000000000000000000000000000000000000 PUSH0 MSTORE PUSH1 0x11 PUSH1 0x4 MSTORE PUSH1 0x24 PUSH0 REVERT JUMPDEST PUSH0 PUSH2 0x2D29 DUP3 PUSH2 0x1ED6 JUMP JUMPDEST SWAP2 POP PUSH32 0xFFFFFFFFFFFFFFFFFFFFFFFFFFFFFFFFFFFFFFFFFFFFFFFFFFFFFFFFFFFFFFFF DUP3 SUB PUSH2 0x2D5B JUMPI PUSH2 0x2D5A PUSH2 0x2CF2 JUMP JUMPDEST JUMPDEST PUSH1 0x1 DUP3 ADD SWAP1 POP SWAP2 SWAP1 POP JUMP JUMPDEST PUSH32 0x566F74696E6720686173206E6F74207374617274656400000000000000000000 PUSH0 DUP3 ADD MSTORE POP JUMP JUMPDEST PUSH0 PUSH2 0x2D9A PUSH1 0x16 DUP4 PUSH2 0x239C JUMP JUMPDEST SWAP2 POP PUSH2 0x2DA5 DUP3 PUSH2 0x2D66 JUMP JUMPDEST PUSH1 0x20 DUP3 ADD SWAP1 POP SWAP2 SWAP1 POP JUMP JUMPDEST PUSH0 PUSH1 0x20 DUP3 ADD SWAP1 POP DUP2 DUP2 SUB PUSH0 DUP4 ADD MSTORE PUSH2 0x2DC7 DUP2 PUSH2 0x2D8E JUMP JUMPDEST SWAP1 POP SWAP2 SWAP1 POP JUMP JUMPDEST PUSH32 0x566F74696E672068617320616C726561647920656E6465640000000000000000 PUSH0 DUP3 ADD MSTORE POP JUMP JUMPDEST PUSH0 PUSH2 0x2E02 PUSH1 0x18 DUP4 PUSH2 0x239C JUMP JUMPDEST SWAP2 POP PUSH2 0x2E0D DUP3 PUSH2 0x2DCE JUMP JUMPDEST PUSH1 0x20 DUP3 ADD SWAP1 POP SWAP2 SWAP1 POP JUMP JUMPDEST PUSH0 PUSH1 0x20 DUP3 ADD SWAP1 POP DUP2 DUP2 SUB PUSH0 DUP4 ADD MSTORE PUSH2 0x2E2F DUP2 PUSH2 0x2DF6 JUMP JUMPDEST SWAP1 POP SWAP2 SWAP1 POP JUMP JUMPDEST PUSH32 0x566F74696E6720686173206E6F7420656E646564207965740000000000000000 PUSH0 DUP3 ADD MSTORE POP JUMP JUMPDEST PUSH0 PUSH2 0x2E6A PUSH1 0x18 DUP4 PUSH2 0x239C JUMP JUMPDEST SWAP2 POP PUSH2 0x2E75 DUP3 PUSH2 0x2E36 JUMP JUMPDEST PUSH1 0x20 DUP3 ADD SWAP1 POP SWAP2 SWAP1 POP JUMP JUMPDEST PUSH0 PUSH1 0x20 DUP3 ADD SWAP1 POP DUP2 DUP2 SUB PUSH0 DUP4 ADD MSTORE PUSH2 0x2E97 DUP2 PUSH2 0x2E5E JUMP JUMPDEST SWAP1 POP SWAP2 SWAP1 POP JUMP JUMPDEST PUSH32 0x4E6F207469652064657465637465640000000000000000000000000000000000 PUSH0 DUP3 ADD MSTORE POP JUMP JUMPDEST PUSH0 PUSH2 0x2ED2 PUSH1 0xF DUP4 PUSH2 0x239C JUMP JUMPDEST SWAP2 POP PUSH2 0x2EDD DUP3 PUSH2 0x2E9E JUMP JUMPDEST PUSH1 0x20 DUP3 ADD SWAP1 POP SWAP2 SWAP1 POP JUMP JUMPDEST PUSH0 PUSH1 0x20 DUP3 ADD SWAP1 POP DUP2 DUP2 SUB PUSH0 DUP4 ADD MSTORE PUSH2 0x2EFF DUP2 PUSH2 0x2EC6 JUMP JUMPDEST SWAP1 POP SWAP2 SWAP1 POP JUMP INVALID LOG2 PUSH5 0x6970667358 0x22 SLT KECCAK256 PUSH19 0x62B3D480525E3C1A68FB9ABDD9549A9D6ED9C1 EXTCODESIZE 0x2F EXTCODECOPY 0xF EXP SELFDESTRUCT PUSH16 0x41B5FA341964736F6C634300081A0033 "
				},
				"gasEstimates": {
					"creation": {
						"codeDepositCost": "2418400",
						"executionCost": "26861",
						"totalCost": "2445261"
					},
					"external": {
						"admin()": "2615",
						"candidates(address)": "infinite",
						"candidatesList(uint256)": "4988",
						"currentMaxVotes()": "2448",
						"currentWinner()": "2575",
						"endVoting()": "infinite",
						"getAllCandidates()": "infinite",
						"getElectionResults()": "9229",
						"getTiedCandidates()": "infinite",
						"registerCandidate(address,string,string)": "infinite",
						"registerVoter(address,string,string,uint256)": "infinite",
						"startVoting()": "53876",
						"tiedCandidates(uint256)": "4966",
						"verifyVoter(address,string)": "infinite",
						"vote(address)": "139191",
						"voters(address)": "infinite",
						"votingEnded()": "2539",
						"votingStarted()": "2605"
					},
					"internal": {
						"checkForTie()": "infinite"
					}
				},
				"methodIdentifiers": {
					"admin()": "f851a440",
					"candidates(address)": "8ab66a90",
					"candidatesList(uint256)": "df2d5ec7",
					"currentMaxVotes()": "378b4864",
					"currentWinner()": "aabe2fe3",
					"endVoting()": "c3403ddf",
					"getAllCandidates()": "2e6997fe",
					"getElectionResults()": "eccf1f10",
					"getTiedCandidates()": "f7a3b396",
					"registerCandidate(address,string,string)": "40b68257",
					"registerVoter(address,string,string,uint256)": "326ebef3",
					"startVoting()": "1ec6b60a",
					"tiedCandidates(uint256)": "d8e06ca9",
					"verifyVoter(address,string)": "30eb771a",
					"vote(address)": "6dd7d8ea",
					"voters(address)": "a3ec138d",
					"votingEnded()": "9d5a0529",
					"votingStarted()": "83d948b7"
				}
			},
			"storageLayout": {
				"storage": [
					{
						"astId": 3,
						"contract": "contracts/Vote.sol:Voting",
						"label": "admin",
						"offset": 0,
						"slot": "0",
						"type": "t_address"
					},
					{
						"astId": 5,
						"contract": "contracts/Vote.sol:Voting",
						"label": "votingStarted",
						"offset": 20,
						"slot": "0",
						"type": "t_bool"
					},
					{
						"astId": 7,
						"contract": "contracts/Vote.sol:Voting",
						"label": "votingEnded",
						"offset": 21,
						"slot": "0",
						"type": "t_bool"
					},
					{
						"astId": 36,
						"contract": "contracts/Vote.sol:Voting",
						"label": "voters",
						"offset": 0,
						"slot": "1",
						"type": "t_mapping(t_address,t_struct(Voter)22_storage)"
					},
					{
						"astId": 41,
						"contract": "contracts/Vote.sol:Voting",
						"label": "candidates",
						"offset": 0,
						"slot": "2",
						"type": "t_mapping(t_address,t_struct(Candidate)31_storage)"
					},
					{
						"astId": 44,
						"contract": "contracts/Vote.sol:Voting",
						"label": "candidatesList",
						"offset": 0,
						"slot": "3",
						"type": "t_array(t_address)dyn_storage"
					},
					{
						"astId": 47,
						"contract": "contracts/Vote.sol:Voting",
						"label": "tiedCandidates",
						"offset": 0,
						"slot": "4",
						"type": "t_array(t_address)dyn_storage"
					},
					{
						"astId": 49,
						"contract": "contracts/Vote.sol:Voting",
						"label": "currentWinner",
						"offset": 0,
						"slot": "5",
						"type": "t_address"
					},
					{
						"astId": 51,
						"contract": "contracts/Vote.sol:Voting",
						"label": "currentMaxVotes",
						"offset": 0,
						"slot": "6",
						"type": "t_uint256"
					}
				],
				"types": {
					"t_address": {
						"encoding": "inplace",
						"label": "address",
						"numberOfBytes": "20"
					},
					"t_array(t_address)dyn_storage": {
						"base": "t_address",
						"encoding": "dynamic_array",
						"label": "address[]",
						"numberOfBytes": "32"
					},
					"t_bool": {
						"encoding": "inplace",
						"label": "bool",
						"numberOfBytes": "1"
					},
					"t_mapping(t_address,t_struct(Candidate)31_storage)": {
						"encoding": "mapping",
						"key": "t_address",
						"label": "mapping(address => struct Voting.Candidate)",
						"numberOfBytes": "32",
						"value": "t_struct(Candidate)31_storage"
					},
					"t_mapping(t_address,t_struct(Voter)22_storage)": {
						"encoding": "mapping",
						"key": "t_address",
						"label": "mapping(address => struct Voting.Voter)",
						"numberOfBytes": "32",
						"value": "t_struct(Voter)22_storage"
					},
					"t_string_storage": {
						"encoding": "bytes",
						"label": "string",
						"numberOfBytes": "32"
					},
					"t_struct(Candidate)31_storage": {
						"encoding": "inplace",
						"label": "struct Voting.Candidate",
						"members": [
							{
								"astId": 24,
								"contract": "contracts/Vote.sol:Voting",
								"label": "name",
								"offset": 0,
								"slot": "0",
								"type": "t_string_storage"
							},
							{
								"astId": 26,
								"contract": "contracts/Vote.sol:Voting",
								"label": "candidateAddress",
								"offset": 0,
								"slot": "1",
								"type": "t_address"
							},
							{
								"astId": 28,
								"contract": "contracts/Vote.sol:Voting",
								"label": "voteCount",
								"offset": 0,
								"slot": "2",
								"type": "t_uint256"
							},
							{
								"astId": 30,
								"contract": "contracts/Vote.sol:Voting",
								"label": "partyName",
								"offset": 0,
								"slot": "3",
								"type": "t_string_storage"
							}
						],
						"numberOfBytes": "128"
					},
					"t_struct(Voter)22_storage": {
						"encoding": "inplace",
						"label": "struct Voting.Voter",
						"members": [
							{
								"astId": 9,
								"contract": "contracts/Vote.sol:Voting",
								"label": "isRegistered",
								"offset": 0,
								"slot": "0",
								"type": "t_bool"
							},
							{
								"astId": 11,
								"contract": "contracts/Vote.sol:Voting",
								"label": "hasVoted",
								"offset": 1,
								"slot": "0",
								"type": "t_bool"
							},
							{
								"astId": 13,
								"contract": "contracts/Vote.sol:Voting",
								"label": "votedFor",
								"offset": 2,
								"slot": "0",
								"type": "t_address"
							},
							{
								"astId": 15,
								"contract": "contracts/Vote.sol:Voting",
								"label": "name",
								"offset": 0,
								"slot": "1",
								"type": "t_string_storage"
							},
							{
								"astId": 17,
								"contract": "contracts/Vote.sol:Voting",
								"label": "nationalId",
								"offset": 0,
								"slot": "2",
								"type": "t_string_storage"
							},
							{
								"astId": 19,
								"contract": "contracts/Vote.sol:Voting",
								"label": "age",
								"offset": 0,
								"slot": "3",
								"type": "t_uint256"
							},
							{
								"astId": 21,
								"contract": "contracts/Vote.sol:Voting",
								"label": "voterAddress",
								"offset": 0,
								"slot": "4",
								"type": "t_address"
							}
						],
						"numberOfBytes": "160"
					},
					"t_uint256": {
						"encoding": "inplace",
						"label": "uint256",
						"numberOfBytes": "32"
					}
				}
			},
			"userdoc": {
				"kind": "user",
				"methods": {},
				"version": 1
			}
		}
	}
}